:020000040800F2
:1000000078B300205D030008E1431008492D100873
:100010006D40100825F90F08214710080000000066
:10002000000000000000000000000000290200089D
:1000300009FA0F0800000000D50200084903000873
:1000400077030008770300087703000877030008A8
:1000500077030008770300080DFA0F0877030008FC
:100060007703000877030008770300087703000888
:100070007703000877030008770300087703000878
:100080007703000877030008770300087703000868
:100090007703000877030008770300087703000858
:1000A0007703000877030008770300087703000848
:1000B000AD451008770300087703000877030008B0
:1000C0007703000877030008770300087703000828
:1000D0007703000877030008770300087703000818
:1000E00091FA0F08770300087703000877030008E8
:1000F00077030008770300087703000877030008F8
:1001000077030008770300087703000877030008E7
:1001100077030008770300087703000877030008D7
:1001200077030008770300087703000877030008C7
:1001300077030008770300087703000877030008B7
:1001400077030008770300087703000877030008A7
:100150007703000877030008770300087703000897
:100160007703000877030008770300087703000887
:1001700077030008770300087703000800000000F9
:100180007703000877030008770300087703000867
:100190007703000877030008770300087703000857
:1001A000153E10087703000829F90F08DFF80CD076
:1001B00000F0B4FD00480047DD3A110878B3002094
:1001C00080F309887047EFF309807047684680F331
:1001D000098804480078C00714BF0220032080F378
:1001E00014887047B86A1108DFF818C0EFF3058368
:1001F0001B0618BF6047EFF31483DB0708BF604797
:1002000000DF7047893F1108DFF818C0EFF305835E
:100210001B0618BF6047EFF31483DB0708BF604776
:1002200000DF7047E9411108EFF30980816911F897
:10023000021CC9BB10B590E80F10E047BDE81040A4
:10024000EFF3098C204B93E80600914229D081B14D
:100250000CB41EF0100F06BF2CED108A03230123EF
:1002600081F826302CE9F00FC1F82CC014F1A4F964
:100270000CBC1A60D2F82CC0BCE8F00F92F8263003
:1002800013F0020F1ABFBCEC108A6FF0120E6FF061
:10029000020E8CF3098813F0010F08BF704792F823
:1002A0002500CCF80000704710B5084A126891424A
:1002B00009D8074C54F8214090E80F10A047EFF3FD
:1002C000098C8CE80F0010BDBC0100205CF30F0806
:1002D0005CF30F0810B514F165F8BDE81040194B38
:1002E00093E80600914208BF70470CB4EFF3098C05
:1002F0001EF0100F06BF2CED108A0223002381F898
:1003000026302CE9F00FC1F82CC014F155F90CBCC3
:100310001A60D2F82CC0BCE8F00F92F8263013F027
:10032000020F1ABFBCEC108A6FF0120E6FF0020EB3
:100330008CF3098813F0010F1CBF92F82530CCF81C
:1003400000307047BC01002010B514F107FAC4E773
:1003500010B513F12DFD14F101FABEE706488047F0
:1003600006480047FEE7FEE7FEE7FEE7FEE7FEE79A
:10037000FEE7FEE7FEE7FEE755451008AD01000881
:1003800062B6704772B6704750E8002F40E800131D
:10039000002BF9D1BFF35F8F104670472DE9F04174
:1003A00000242546002905DA01240027D0EB0700A8
:1003B00067EB0101002B05DA0027D2EB07020125CC
:1003C00067EB030300F00EFB86460E4617469C467D
:1003D000AC4204D00025D0EB050E65EB010624B13C
:1003E0000020D2EB000760EB030C704631463A4622
:1003F0006346BDE8F081202A04DB203A00FA02F1CE
:10040000002070479140C2F1200320FA03F3194302
:1004100090407047202A04DB203A21FA02F00021A4
:10042000704721FA02F3D040C2F120029140084304
:1004300019467047202A06DBCB17203A41FA02F012
:1004400043EAE07306E041FA02F3D040C2F1200231
:10045000914008431946704710B5431A934209D298
:100460008318881803E010F8011D03F8011D521EBF
:10047000F9D210BD40EA01039B0703D009E008C987
:10048000121F08C0042AFAD203E011F8013B00F859
:10049000013B521EF9D210BDD2B201E000F8012B8F
:1004A000491EFBD270470022F6E710B513460A46F4
:1004B00004461946FFF7F0FF204610BD2DE9FE4F18
:1004C000804681EA0300C00F0C46009021F00041F5
:1004D00023F00045B8EB0200A94105D24046214671
:1004E00090461C460B46024623F00040104304D1C0
:1004F0004046214603B0BDE8F08F270DC7F30A0040
:10050000C3F30A510290401A0190402866DAC3F3FF
:10051000130040F4801B0098924620B10023D2EBD8
:10052000030A63EB0B0B01985946C0F14002504699
:10053000FFF761FF06460D4650465946019AFFF700
:1005400079FF10EB08006141002487EA115284EA28
:10055000E7731A433BD0009A3AB3019A012A4FEA53
:10056000075210DC001B61EB02014FF0004202EA6F
:100570000752CDE90042001C41F5801132462B465E
:1005800000F0D1FAB6E7001B61EB0201001C41F557
:10059000801300185B412018A2F5001747EB0301F8
:1005A00040EAD570B6196D4111E06D084FEA360684
:1005B00045EAC0754FEA0752001B61EB0201001CBF
:1005C00041F5801149084FEA300000195141324687
:1005D0002B4603B0BDE8F04F00F098BA0098012216
:1005E00040000023D0EB020263EBE0730098214649
:1005F0004FEAE074B8EB000061EB0401E9E783F037
:1006000000435BE781F0004158E72DE9FE4F81EAA6
:10061000030404F0004421F0004100944FF0000B6B
:1006200023F0004350EA010402D052EA030404D14B
:100630000020014603B0BDE8F08FC3F30A54C1F3B4
:100640000A552C44A4F2F3340194A0FB0254C1F3E4
:10065000130141F48011C3F3130343F4801301FB2E
:10066000024400FB034E840A970A44EA815447EA95
:100670008357A4FB076802958D0A05FB07854FEA9F
:10068000932C04FB0C542705029D4FEA065847EAB9
:100690001637B5EB08056EEB070C870E920E47EA8E
:1006A000811742EA8312A7FB0201B6EB0B0164EB50
:1006B00000042B0D43EA0C335E1844EB1C50DA4661
:1006C0005146E7FB0201C5F313044FEA0B3343EA3B
:1006D00014534FEA0432019C43EA0603A4F10C04CC
:1006E0000294009CCDE900B400F01DFAA2E72DE9C8
:1006F000F04D81EA030404F0004B21F0004514465C
:100700004FF0000A23F0004150EA050220D054EADD
:1007100001021DD0C5F30A570246C5F31303C1F306
:100720001300C1F30A5640F4801543F48013A7EB7D
:100730000608101BD64608F2FD3873EB050002D3FD
:1007400008F1010801E092185B41B8F1000F03DAEB
:1007500000200146BDE8F08D00204FF480110646D0
:1007600084460EE0171B73EB050705D3121B63EBE2
:10077000050306434CEA010C49084FEA3000921881
:100780005B4150EA0107EDD152EA030012D082EA40
:10079000040083EA0501084303D100224FF000431F
:1007A00008E0101BAB4102D20122002302E06FF0EF
:1007B000010253101AEB06004CEB085110EB0A0033
:1007C00041EB0B01BDE8F04D00F0A0B9F0B4CA1741
:1007D000CB0F50405140C61851F100004FEAC37290
:1007E00031464FF0960303D0B623F0BC00F034B985
:1007F00030460021F9E70EB5C10F80EAE0700844E9
:10080000CA07002140F233438DE80E000A460B462A
:1008100000F089F903B000BD3EB5CA17CB0F002424
:1008200050405140C0186141DA0740F23343009410
:10083000CDE901232246234600F075F903B030BD0F
:1008400010B500F0004420F00040C20DC0F31600C7
:1008500040F400007F2A02DA0020014610BD00218A
:10086000962A03DCC2F19602D04002E0963AFFF7E6
:10087000C2FD002CF2D00023D0EB030063EB01019A
:1008800010BD70B5C1F30A5201F000450024C1F358
:10089000130140F2FF3341F480119A4201DA002043
:1008A00070BD40F233439A42A2F2334203DC52421B
:1008B000FFF7B0FD00E090402C43F1D0404270BD06
:1008C00070B5C1F30A5201F000450024C1F31301D1
:1008D00040F2FF3341F480119A4202DA00200146CF
:1008E00070BD40F233439A42A2F2334203DC5242DB
:1008F000FFF790FD01E0FFF77EFD2C43F0D00023D1
:10090000D0EB030063EB010170BD00F0004230F05A
:1009100000400AD0C10D01F56071C0F3160042EA33
:100920000151C2084007114370470020014670473B
:1009300030B5002904DB4FF00044404264EB010174
:10094000002B04DB4FF00044524264EB03038B4264
:1009500008BF824230BD000030B5002904DB4FF0F3
:100960000044404264EB0101002B04DB4FF00044E3
:10097000524264EB0303994208BF904230BD00002D
:1009800001F0004330B421F0004150EA010206D0EA
:100990000A0DA2F56072C1F31301002A02DC30BC1B
:1009A00000207047440F44EAC104C100E01830BC85
:1009B00000EBC25000F047B830B50B4601460020AE
:1009C0002022012409E021FA02F59D4205D303FA11
:1009D00002F5491B04FA02F52844151EA2F1010292
:1009E000F1DC30BD2DE9F05F0546002092469B46C4
:1009F00088460646814640241BE028464146474635
:100A00002246FFF707FD53465A46C01A914110D3BC
:100A1000114618462246FFF7EEFC2D1A67EB010837
:100A20004F46224601200021FFF7E5FC17EB0009A5
:100A30004E41201EA4F10104DFDC484631462A461F
:100A40004346BDE8F09F0029A8BF7047401C4900FD
:100A500008BF20F00100704710B4B0FA80FC00FA23
:100A60000CF050EA010404BF10BC704749B1CCF14E
:100A7000200421FA04F411FA0CF118BF01212143DA
:100A80000843A3EB0C01CB1D0106000A002BBEBFDF
:100A9000002010BC704700EBC35010440029A4BFD5
:100AA00010BC7047401C490008BF20F0010010BC7A
:100AB0007047F0B400F0004221F000414FEAD156F7
:100AC00020F000404FEAD053C1F31601C0F31600E6
:100AD00041F40001154640F40000C1F10004A6F104
:100AE000010609E010EB440002D582F000424042CA
:100AF0008842F7D85B1E4000B342F9DA18B1F0BC67
:100B00000021FFF7A9BF2846F0BC704710B5002BA5
:100B100008DA401C41F1000192185B411A4301D1EF
:100B200020F0010010BD2DE9F04D92469B4611B119
:100B3000B1FA81F202E0B0FA80F220329046FFF77B
:100B40005AFC04460F4640EA0A0041EA0B015346AC
:100B50005A46084303D120463946BDE8F08D114678
:100B600053EA010015D0C8F140025046FFF752FC8D
:100B700005460E46504659464246FFF73CFC0843A0
:100B800001D0012000E00020054346EAE0762C4336
:100B900037430A984FEA4453A0EB08004FEAD424A5
:100BA0000A304FF0000244EA47544FEAD72502D5F5
:100BB00000200146D1E7010510196941DDE908452A
:100BC00000196941BDE8F04DA0E72DE9F04D002383
:100BD0001A461B1A8A4103DB00200146BDE8F08D4E
:100BE000C1F30A52C1F3130141F480154FF0000B19
:100BF000D10702D100186D41521E0027044640F271
:100C0000FF11384601EB620A3E468046024600204C
:100C10004FF48011FFF7FEFBC2197141BB1846EB80
:100C20000100B4EB030C75EB000C04D3E41A65EB84
:100C3000000517460E46241908F101006D41804653
:100C40003428E3DDF91946EB0600091BA84103D25D
:100C50004FF0FF32134601E0002213461BEB070062
:100C600046EB0A51BDE8F04DFFF750BF2DE9FE4FAE
:100C7000C3F30A5701F000450024C1F30A56C3F339
:100C80001303C1F3130143F4801312EB020AA646C7
:100C900041F48011009543EB030CA7F1010B13E025
:100CA000B0EB0A0071EB0C0107D54FF00008D0EB58
:100CB000080085F0004568EB0101171A73EB010786
:100CC000EED3761E001849415E45F6DA50EA01027D
:100CD00004D10099204603B0BDE8F08FCDE900E5CE
:100CE000002213460296FFF71EFFF4E7C1F30A52F3
:100CF000C1F3130140F2FF3341F480119A4202DA4A
:100D000000200146704740F233439A42A2F2334238
:100D100002DC5242FFF77EBBFFF76DBB064C074D6E
:100D200006E0E06840F0010394E8070098471034BB
:100D3000AC42F6D3FFF73EFA288511084885110822
:100D40000EB540F2334102910021CDE900110A466F
:100D50000B46FFF7E8FE03B000BD70B501EB0204DF
:100D600010F8015B15F0070301D110F8013B2A11BF
:100D700006D110F8012B03E010F8016B01F8016BAC
:100D80005B1EF9D12B0705D40023521E0FD401F8A6
:100D9000013BFAE710F8013B02F10202A1EB030369
:100DA00003E013F8015B01F8015B521EF9D5A14283
:100DB000D6D3002070BD00000FF2060CDCF800C096
:100DC0006047AD10110800000FF2060CDCF800C0FF
:100DD00060476513110800000FF2060CDCF800C034
:100DE00060472137100800000FF2060CDCF800C045
:100DF0006047E93C100800000FF2060CDCF800C068
:100E00006047E93C100800000FF2060CDCF800C057
:100E10006047D538100800000FF2060CDCF800C05F
:100E20006047DB38100800000FF2060CDCF800C049
:100E30006047A739100800000FF2060CDCF800C06C
:100E40006047B139100800000FF2060CDCF800C052
:100E50006047B739100800000FF2060CDCF800C03C
:100E60006047BD39100800000FF2060CDCF800C026
:100E70006047C539100800000FF2060CDCF800C00E
:100E80006047CD39100800000FF2060CDCF800C0F6
:100E90006047E138100800000FF2060CDCF800C0D3
:100EA0006047A139100800000FF2060CDCF800C002
:100EB0006047853B100800000FF2060CDCF800C00C
:100EC00060471D39100800000FF2060CDCF800C066
:100ED00060474137100800000FF2060CDCF800C034
:100EE0006047C13A100800000FF2060CDCF800C0A1
:100EF0006047253B100800000FF2060CDCF800C02C
:100F00006047793B100800000FF2060CDCF800C0C7
:100F100060477B0E1108000001B400680FF2080C56
:100F20005CF820C001BC6047970E110869111108D8
:100F300001B400680FF2080C5CF820C001BC6047E7
:100F4000A70E11087911110801B400680FF2080CFE
:100F50005CF820C001BC6047B70E11088911110868
:100F600001B400680FF2080C5CF820C001BC6047B7
:100F7000BF0E11089111110801B400680FF2080C9E
:100F80005CF820C001BC6047C70E11089911110818
:100F900001B400680FF2080C5CF820C001BC604787
:100FA000CB0E11089D1111080FF2060CDCF800C0E1
:100FB0006047E10E110800000FF2060CDCF800C0DB
:100FC0006047FD0E110800000FF2060CDCF800C0AF
:100FD0006047450F110800000FF2060CDCF800C056
:100FE00060470D10110800000FF2060CDCF800C07D
:100FF00060473510110800000FF2060CDCF800C045
:1010000060474D10110800000FF2060CDCF800C01C
:1010100060477110110800000FF2060CDCF800C0E8
:1010200060478910110800000FF2060CDCF800C0C0
:101030006047CD10110800000FF2060CDCF800C06C
:101040006047ED10110800000FF2060CDCF800C03C
:1010500060471F11110800000FF2060CDCF800C0F9
:1010600060472911110800000FF2060CDCF800C0DF
:1010700060474D11110800000FF2060CDCF800C0AB
:101080006047B111110800000FF2060CDCF800C037
:101090006047BD11110800000FF2060CDCF800C01B
:1010A0006047D911110800000FF2060CDCF800C0EF
:1010B0006047EF11110800000FF2060CDCF800C0C9
:1010C00060470512110800000FF2060CDCF800C0A2
:1010D0006047B53B100800000FF2060CDCF800C0BA
:1010E0006047013C100800000FF2060CDCF800C05D
:1010F0006047D13B100800000FF2060CDCF800C07E
:1011000060471D3C100800000FF2060CDCF800C020
:101110006047413C100800000FF2060CDCF800C0EC
:101120006047453C100800000FF2060CDCF800C0D8
:101130006047693C100800000FF2060CDCF800C0A4
:1011400060477F3C100800000FF2060CDCF800C07E
:101150006047953C100800000FF2060CDCF800C058
:101160006047A712110800000FF2060CDCF800C05F
:101170006047AB12110800000FF2060CDCF800C04B
:1011800060472937100800000FF2060CDCF800C099
:1011900060473537100800000FF2060CDCF800C07D
:1011A0006047A53C100800000FF2060CDCF800C0F8
:1011B0006047BD3C100800000FF2060CDCF800C0D0
:1011C0006047F13C100800000FF2060CDCF800C08C
:1011D0006047093D100800000FF2060CDCF800C063
:1011E0006047153D100800000FF2060CDCF800C047
:1011F0006047B13D100800000FF2060CDCF800C09B
:101200006047B53D100800000FF2060CDCF800C086
:101210006047CD3D100800000FF2060CDCF800C05E
:101220006047C93C100800000FF2060CDCF800C053
:1012300060475D13110800000FF2060CDCF800C0D7
:1012400060476113110800000FF2060CDCF800C0C3
:1012500060476913110800000FF2060CDCF800C0AB
:1012600060476D13110800000FF2060CDCF800C097
:1012700060478913110800000FF2060CDCF800C06B
:1012800060478D13110800000FF2060CDCF800C057
:1012900060479113110800000FF2060CDCF800C043
:1012A0006047C513110800000FF2060CDCF800C0FF
:1012B0006047212A1108000001680029B4BF4A4292
:1012C0000A46026000F01DB8016850F8042C9142F3
:1012D000ACBF0B461346036000F013B8016850F82A
:1012E000042C9142B4BF0B461346036000F009B8CA
:1012F0002DE9F05F0746D7F80880D7F800A0D7F8A7
:1013000004B018F8014B034D2D6855F824F0BDE8E2
:10131000F05F70479C020020014900F0FBB900001B
:10132000D0540008C7F8088098F80B004FEA101056
:101330004FEAC0006C46ADEB000D384621464246F0
:1013400005F1DEFB002840F0058008F10D08264974
:1013500000F0E0B9054655F8040B55F8041B55F8A4
:10136000042B55F8043BAD46B8F80090B8F802C01D
:1013700049EA0C4CE047A546D7F814C0BCF1000F71
:1013800000F0068008F10D0800F0BCB900F02CB8A0
:1013900098F80CC00CF00F06002E00F02180062EED
:1013A00040F007800B460246384606F161FC00F02B
:1013B00017B8082E40F007800B460246384606F163
:1013C000B9FB00F00DB8092E40F006800146384602
:1013D00006F160FC00F004B80146384606F137FC1F
:1013E00008F10D08FFF78DBF00530008384606F1DD
:1013F000C5FC012840F00480FFF783BF00F002B86D
:10140000FFF779BFFFF7F2BF08F1FF38C7F8088090
:1014100005F120FBB84200F00880002840F002806F
:10142000FFF775BF0746FFF766BFFFF76ABF00000B
:1014300018F9010B18F9011B5AF821204FEA024252
:101440004FEA12424AF82020FFF75BBF18F9010B60
:1014500018F9011B5AF821204FEA02424FEA2242B2
:101460004AF82020FFF74DBF18F9010B18F9011BAE
:101470005AF821204FEA02624FEA22624AF82020FD
:10148000FFF73FBF4FF000004AF8040CFFF739BFE9
:101490004FF00000CAF80C00FFF733BF18F9010B3A
:1014A0004FF001014AF82010FFF72BBF18F9010B8C
:1014B0004FF000014AF82010FFF723BF5BF8080C3B
:1014C000CBF80000FFF71DBF5BF8040CCBF8000061
:1014D000FFF717BF18F9010B4FF000014BF8201070
:1014E000FFF70FBF38F8021B38F8022B18F9010B71
:1014F00041EA02414BF82010FFF703BF18F9010B36
:1015000038F8021B38F8022B41EA02414BF8201050
:10151000FFF7F7BE98F908000AEB800038F8021BC5
:1015200038F8022B41EA024140F8041B38F8021B4C
:1015300038F8032B41EA02410160FFF7E2BE0000E8
:1015400018F9010B0AEB800038F8021B38F8022B5F
:1015500041EA024140F8041B38F8021B38F8022B1C
:1015600041EA02410160FFF7CCBE000018F9010B0F
:1015700018F9011B4FEAE1720AEB8000016042603A
:10158000FFF7BFBE38F8021B38F8022B18F9010B21
:1015900041EA02414AF82010FFF7B3BE18F9010BE7
:1015A00038F8021B38F8022B41EA02414AF82010B1
:1015B000FFF7A7BE38F9021B18F9010B4AF82010F3
:1015C000FFF79FBE18F9010B38F9021B4AF82010EB
:1015D000FFF797BE18F9010B18F9011B4AF8201004
:1015E000FFF78FBE18F9010B18F9011B5BF82120DA
:1015F0004BF82020FFF785BE18F9011B4FEA211098
:101600004FEA01714FEA21715BF821204BF820204D
:10161000FFF777BE18F9010B18F9011B0AEB8000E0
:101620000AEB81010A684B6802604360FFF769BEFC
:1016300018F9010B18F9011B5AF821204AF820204B
:10164000FFF75FBE18F9011B4FEA21104FEA017145
:101650004FEA21715AF821204AF82020FFF751BEA5
:1016600018F8014BD7F8985055F824F0FFF7F8BF59
:1016700018F9013B18F9011B18F9012B5BF823003D
:1016800000F030BA18F9010B18F9011B0AEB8000C1
:101690005BF82110002940F003800D4900F03AB8B2
:1016A000C7F8088006F161FB012840F00380094972
:1016B00000F030B8032840F00380074900F02AB852
:1016C000022840F00380054900F024B8FFF713BE5C
:1016D00020520008805300080053000840530008BF
:1016E000C7F8088004F140FAFFF705BE18F9010BAE
:1016F0000AEB80013846C7F8088004F16BFAFFF75F
:10170000FABD0000C7F80880384605F1C3FDFFF7B1
:10171000F2BD0000C7F80880384606F1CEFAFFF7A0
:10172000F1BF000008F1010818F8014BD7F89850F4
:1017300055F824F008F1010818F8014BD7F8985033
:1017400055F824F05146B1F9002012F4005340F04E
:101750000E809244B1F902209344D1F80480C7F876
:1017600000A0C7F804B0C7F8088000F00BB8ABEBD6
:101770000001384605F1C2FDD7F800A0D7F804B043
:10178000D7F80880DAF8082092F90630002B40F3E9
:101790000480ABEB83042568FD6092F908200BEB15
:1017A00082014FF00002884280F2048040F8042B4E
:1017B000FFF7F9BFFFF7A5BD5846FFF7C3BF00000D
:1017C000ABF10800FFF7BEBFABF10400FFF7BABFF3
:1017D00018F9012B0BEB8200FFF7B4BF38F8020BAE
:1017E00038F8021B40EA01415A46D7F80C9053469C
:1017F000C2F80090C7F80880384606F115FBFFF7DD
:101800007ABD000018F8012B5B46F9685446CBF806
:101810000010C7F8088038464DF8044D06F178F9F5
:1018200001B0FFF768BD000018F9012B18F9011B82
:1018300038F8024B38F8025B0BEB81010AEB8202AD
:101840000B68002B40F003800749FFF763BFC7F820
:101850000880FB6038464DF8045D4DF8044D06F1F4
:101860001DF902B0FFF747BD2052000838F8020BFF
:1018700038F8021B40EA01414FF00009C7F80C900C
:101880005A465346C7F80880384606F1CDFAFFF7A6
:1018900032BD000018F9013B18F9012B38F8020B92
:1018A00038F8021B40EA01414FF00009C7F80C90DC
:1018B0000BEB82020AEB8303C7F80880384606F177
:1018C000B3FAFFF718BD000038F8020B38F8021B16
:1018D00040EA01415A465346D2F80090B9F1000F50
:1018E00040F003800549FFF715BFC7F80880C7F827
:1018F0000C90384606F198FAFFF7FDBC205200081C
:1019000018F9013B18F9012B38F8020B38F8021BC3
:1019100040EA01410BEB82020AEB8303D2F800900C
:10192000B9F1000F40F003800549FFF7F3BEC7F897
:101930000880C7F80C90384606F176FAFFF7DBBC52
:101940002052000818F9014B18F9013B38F9022B15
:101950000BEB83030AEB84041968002940F0038031
:101960000649FFF7D7BEC7F80880F96038464DF83A
:10197000044D06F1B5F801B0FFF7BDBC20520008D8
:1019800018F8012B5B4654461968002940F0038083
:101990000649FFF7BFBEC7F80880F96038464DF822
:1019A000044D06F1B5F801B0FFF7A5BC20520008C0
:1019B00018F9014B18F9013B38F9022B0BEB8303A3
:1019C0000AEB84041968002940F003800649FFF7F8
:1019D000A1BEC7F80880F96038464DF8044D06F1FD
:1019E00097F801B0FFF787BC2052000805F1DEF838
:1019F000002840F0018001B038F8021B38F8022BB3
:101A000041EA02413846C7F8088001F045BB0000B2
:101A100018F8010BA8EB0008FFF773BC38F8020BAD
:101A2000A8EB0008FFF76DBC002B40F003800B49CA
:101A3000FFF770BE5AF822100029C0F20C805C68D3
:101A400003F10803A14280F2068053F821204BF8ED
:101A50002020FFF756BC0249FFF75CBE2052000869
:101A60006052000818F9011B4FEA21104FEA01717A
:101A70004FEA21725BF8043CFFF7D6BF18F9010B5F
:101A800018F9011B18F9012B5BF82130FFF7CCBFC7
:101A900018F9010B18F9011B18F8012B01F018BBFC
:101AA00018F9010B18F9011B18F8012B18F8013B64
:101AB00042EA032201F00CBB034B53F821404BF8E0
:101AC0002040FFF71EBC00006840002018F9010B01
:101AD00018F8011BFFF7F0BF18F9010B38F8021BCB
:101AE000FFF7EABF5BF82260002840F003800F494F
:101AF000FFF710BE5AF82150002DC0F21380436842
:101B000000F108049D4280F20D80314604F13CFB57
:101B1000002840F003800649FFF7FCBD44F825602B
:101B2000FFF7EFBB0349FFF7F5BD000020520008A7
:101B3000A05200086052000818F9012B4FEA221148
:101B40004FEA02724FEA22725BF8080CFFF7CABF35
:101B500018F9010B18F9011B18F8012B01F0CABA8A
:101B600018F9010B18F9011B18F8012B18F8013BA3
:101B700042EA032201F0BEBA5BF82000024B43F8B0
:101B80002100FFF7BEBB00006840002018F9010BE0
:101B900018F8011BFFF7F0BF18F9010B38F8021B0A
:101BA000FFF7EABFF968C7F80880384606F176FC07
:101BB000FFF7A1BBF968C7F80880384606F1B8FC02
:101BC000FFF799BB18F9011B5BF82110002940F0C1
:101BD00003800549FFF79EBDC7F80880384606F127
:101BE0005DFCFFF788BB00002052000818F9011BBC
:101BF0005BF82110002940F003800549FFF78ABDFA
:101C0000C7F80880384606F193FCFFF774BB000064
:101C10002052000818F9010B18F9011B18F8012BC4
:101C200001F08ABA18F9010B18F9011B18F8012BF9
:101C300018F8013B42EA032201F07EBA5BF821105A
:101C4000002940F003800449FFF764BD5AF82030B2
:101C50008B50FFF756BB00002052000818F9010B0B
:101C600018F9011B18F8012BFFF7E8BF18F9010B51
:101C700018F9011B18F8012B18F8013B42EA03225E
:101C8000FFF7DCBF5BF82110002940F00380044916
:101C9000FFF740BD5AF820308B52FFF732BB0000EF
:101CA0002052000818F9010B18F9011B18F8012B34
:101CB000FFF7E8BF18F9010B18F9011B18F8012B01
:101CC00018F8013B42EA0322FFF7DCBF5BF8211062
:101CD000002940F003800449FFF71CBD5AF820306A
:101CE0008B54FFF70EBB00002052000818F9010BBF
:101CF00018F9011B18F8012BFFF7E8BF18F9010BC1
:101D000018F9011B18F8012B18F8013B42EA0322CD
:101D1000FFF7DCBF18F9011B4FEA211001F00F019A
:101D2000D7F80C905AF8202049F82120FFF7E9BA9B
:101D300018F9011B4FEA211001F00F014FEA410190
:101D4000D7F80C905AF8202029F80120FFF7D9BACB
:101D500018F9011B4FEA211001F00F01D7F80C9080
:101D60005AF8202009F80120FFF7CBBA18F9010B27
:101D700018F9011B18F8012B01F00ABA18F9010B28
:101D800018F9011B18F8012B18F8013B42EA03224D
:101D900001F0FEB95BF82110002940F003800449EE
:101DA000FFF7B8BC8B584AF82030FFF7AABA0000FA
:101DB0002052000818F9010B18F9011B18F8012B23
:101DC000FFF7E8BF18F9011B4FEA21104FEA017134
:101DD0004FEA21714FF00402FFF7DCBF18F9010B45
:101DE00018F9011B18F8012B18F8013B42EA0322ED
:101DF000FFF7D0BF5BF82110002940F003800449B1
:101E0000FFF788BC8B5A4AF82030FFF77ABA0000F7
:101E10002052000818F9010B18F9011B18F8012BC2
:101E2000FFF7E8BF18F9010B18F9011B18F8012B8F
:101E300018F8013B42EA0322FFF7DCBF5BF82110F0
:101E4000002940F003800449FFF764BC8B5E4AF828
:101E50002030FFF756BA00002052000818F9010B95
:101E600018F9011B18F8012BFFF7E8BF18F9010B4F
:101E700018F9011B18F8012B18F8013B42EA03225C
:101E8000FFF7DCBF5BF82110002940F00380044914
:101E9000FFF740BC8B564AF82030FFF732BA0000FB
:101EA0002052000818F9010B18F9011B18F8012B32
:101EB000FFF7E8BF18F9010B18F9011B18F8012BFF
:101EC00018F8013B42EA0322FFF7DCBF18F9011BB7
:101ED0004FEA211001F00F01D7F80C9059F821209A
:101EE0004AF82020FFF70DBA18F9011B4FEA21101C
:101EF00001F00F014FEA4101D7F80C9039F80120A9
:101F00004AF82020FFF7FDB918F9011B4FEA21100C
:101F100001F00F014FEA4101D7F80C9039F9012087
:101F20004AF82020FFF7EDB918F9011B4FEA2110FC
:101F300001F00F01D7F80C9019F901204AF8202080
:101F4000FFF7DFB918F9010B18F9011B5BF8212025
:101F5000002A40F003800449FFF7DCBB51684AF8CF
:101F60002010FFF7CEB90000205200085AF82220B6
:101F7000002B40F003800A49FFF7CCBB5AF8210040
:101F80000028C0F20A805C6803F10803A04280F2D6
:101F9000048043F82020FFF7B4B90249FFF7BABB29
:101FA000205200086052000818F9012B4FEA221154
:101FB0004FEA02724FEA22725BF8043CFFF7D6BF89
:101FC00018F9010B18F9011B18F9012B5BF82030E7
:101FD000FFF7CCBF18F9010B18F9011B18F9012BF9
:101FE0005AF822205BF82030002B40F003800B4988
:101FF000FFF790BB5AF821000028C0F20B805C6804
:1020000003F10803A04280F205804FEA40001A5213
:10201000FFF777B90249FFF77DBB000020520008A7
:102020006052000818F9010B18F9011B18F9012B6F
:102030005AF822205BF82030002B40F003800A4938
:10204000FFF768BB5AF821000028C0F209805C68DD
:1020500003F10803A04280F203801A54FFF751B93C
:102060000249FFF757BB00002052000860520008E9
:10207000002B40F003800B49FFF74CBB5AF82210AD
:102080000029C0F20C805C6803F10803A14280F2D1
:10209000068053F821204AF82020FFF732B9024980
:1020A000FFF738BB205200086052000818F9011BE6
:1020B0004FEA21104FEA01714FEA21725BF8043CAC
:1020C000FFF7D6BF18F9010B18F9011B18F9012BFE
:1020D0005BF82130FFF7CCBF18F9010B18F9011B91
:1020E00018F9012B5BF82130002B40F003800C49DC
:1020F000FFF710BB5AF822100029C0F20D805C686F
:1021000003F10803A14280F207804FEA41015A5AC5
:102110004AF82020FFF7F5B80249FFF7FBBA0000A4
:10212000205200086052000818F9010B18F9011B31
:1021300018F9012B5BF82130002B40F003800C498B
:10214000FFF7E8BA5AF822100029C0F20D805C6847
:1021500003F10803A14280F207804FEA41015A5E71
:102160004AF82020FFF7CDB80249FFF7D3BA0000A4
:1021700020520008E053000818F9010B18F9011B60
:1021800018F9012B5BF82130002B40F003800B493C
:10219000FFF7C0BA5AF822100029C0F20B805C6821
:1021A00003F10803A14280F205805A564AF8202024
:1021B000FFF7A7B80249FFF7ADBA000020520008A8
:1021C0006052000818F9016B18F9013B38F8024B0E
:1021D00038F8025B44EA05405BF82310002940F020
:1021E00004804FF0000000F002B803F1DBFF4AF872
:1021F0002600FFF786B8000018F9012B38F8023BDB
:1022000038F8024B43EA04405BF82210002900F042
:10221000088003F1C7FF002840F003800249FFF760
:1022200079BAFFF76EB80000E0530008002940F0CB
:1022300003800349FFF76EBA7961FFF763BA0000C4
:10224000205200085BF8041CFFF7F0BF18F9010BDF
:102250005BF82010FFF7EABF18F9015B18F9013BA2
:1022600018F8012B38F8020B38F8021B40EA01413C
:102270004DF8044D4DF8045D384604F153FF02B0AB
:10228000002840F00280FFF73DBAFFF73AB800009F
:1022900018F9014B18F9015B5AF82550002D80F20E
:1022A00003800649FFF736BA4FEAC50038F8021B2B
:1022B00038F8022B41EA024101F04AB88052000886
:1022C00018F9014B18F9015B5AF82550002D80F2DE
:1022D00003800649FFF71EBA4FEA850038F8021B53
:1022E00038F8022B41EA024101F032B8805200086E
:1022F00018F9014B18F9015B5AF82550002D80F2AE
:1023000003800649FFF706BA4FEA450038F8021B7A
:1023100038F8022B41EA024101F01AB88052000855
:1023200018F9014B18F9015B5AF82550002D80F27D
:1023300003800649FFF7EEB9284638F8021B38F843
:10234000022B41EA024101F003B80000805200086C
:1023500004F12CFC002840F0018001B018F9014B79
:1023600038F8020B38F8021B40EA014101F008B8C6
:10237000FFF7EEBF38F8024B38F8025B44EA05413C
:102380004FF0FF3400F0FCBF18F9010B18F8011BE7
:1023900001F008B818F9010B38F8021B01F002B877
:1023A0005AF82000024B43F82100FEF7AABF0000B4
:1023B0004440002018F9010B18F8011BFFF7F0BF8B
:1023C00018F9010B38F8021BFFF7EABF5AF8200092
:1023D000024B4FEA41015852FEF793BF44400020A0
:1023E00018F9010B18F8011BFFF7F0BF18F9010BE2
:1023F00038F8021BFFF7EABF5AF82000014B585487
:10240000FEF77FBF4040002018F9010B18F8011BB0
:10241000FFF7F2BF18F9010B38F8021BFFF7ECBF0A
:1024200018F9010B18F8011B00F0CCBF18F9010BCB
:1024300038F8021B00F0C6BF034B53F821404AF89E
:102440002040FEF75EBF00004440002018F9010B59
:1024500018F8011BFFF7F0BF18F9010B38F8021B41
:10246000FFF7EABF034B4FEA41015C5A4AF82040AC
:10247000FEF747BF4440002018F9010B18F8011B74
:10248000FFF7F0BF18F9010B38F8021BFFF7EABF9E
:10249000034A4FEA4101545E4AF82040FEF731BF3B
:1024A0004440002018F9010B18F8011BFFF7F0BF9A
:1024B00018F9010B38F8021BFFF7EABF024A54561D
:1024C0004AF82040FEF71DBF4040002018F9010BDC
:1024D00018F8011BFFF7F2BF18F9010B38F8021BBF
:1024E000FFF7ECBF18F9010B18F9011B18F9014BA4
:1024F0000AEB80050AEB810655F8040B55F8041B1E
:1025000056F8042B56F8043B80EA020081EA0301E6
:102510000AEB840444F8040B44F8041BFEF7F1BEF4
:1025200018F9010B18F9011B18F9012B5AF8203082
:102530005AF8214083EA04004AF82200FEF7E1BE7F
:1025400018F9010B18F9011B18F9014B0AEB80056A
:102550000AEB810655F8040B55F8041B56F8042BBA
:1025600056F8043B40EA020041EA03010AEB840406
:1025700044F8040B44F8041BFEF7C3BE18F9010B22
:1025800018F9011B18F9012B5AF820305AF821408C
:1025900043EA04004AF82200FEF7B3BE18F9010B23
:1025A00018F9011B18F9014B0AEB80050AEB8106AB
:1025B00055F8040B55F8041B56F8042B56F8043B49
:1025C00000EA020001EA03010AEB840444F8040B68
:1025D00044F8041BFEF795BE18F9010B18F9011B0E
:1025E00018F9012B5AF8203003EA01004AF82200BA
:1025F000FEF787BE18F9010B18F9011B18F9012B1A
:102600005AF820305AF8214003EA04004AF8220020
:10261000FEF777BE18F9010B18F9011B18F9014BE9
:102620005AF821200AEB800555F8040B55F8041BD5
:1026300003F1D6FB0AEB840444F8040B44F8041BB2
:10264000FEF75FBE18F9010B18F9011B18F9012BF1
:102650005AF820305AF8214004F01F0423FA04F0FD
:102660004AF82200FEF74DBE18F9010B18F9011BBC
:1026700018F9014B5AF821200AEB800555F8040B94
:1026800055F8041B03F1B0FB0AEB840444F8040B77
:1026900044F8041BFEF735BE18F9010B18F9011BAD
:1026A00018F9012B5AF8203043FA01F04AF82200B9
:1026B000FEF727BE18F9010B18F9011B18F9012BB9
:1026C0005AF820305AF8214004F01F0443FA04F06D
:1026D0004AF82200FEF715BE18F9010B18F9011B84
:1026E00018F9014B5AF821200AEB800555F8040B24
:1026F00055F8041B03F17CFB0AEB840444F8040B3B
:1027000044F8041BFEF7FDBD18F9010B18F9011B75
:1027100018F9012B5AF8203003FA01F04AF8220088
:10272000FEF7EFBD18F9010B18F9011B18F9012B81
:102730005AF820305AF8214004F01F0403FA04F03C
:102740004AF82200FEF7DDBD18F9014B18F9015BCC
:102750000AEB84044FF000004FF0000154F8042B02
:1027600054F8043B03F144FC0AEB850545F8040BDF
:1027700045F8041BFEF7C5BD18F9011B18F9014BFC
:102780004FF000005AF8211003F17CFC4AF82400B5
:10279000FEF7B7BD18F9010B18F9011B5AF82020F4
:1027A000C2F100004AF82100FEF7ABBD18F9010B99
:1027B00018F9011B18F9016B0AEB80040AEB81057B
:1027C00054F8040B54F8041B55F8042B55F8043B3B
:1027D00003F112FB0AEB860646F8040B46F8041BCD
:1027E000FEF78FBD18F9010B18F9011B18F9014B01
:1027F0005AF820005AF8211003F11EFB4AF8240071
:10280000FEF77FBD18F9010B18F9011B18F9016BD0
:102810000AEB80040AEB810554F8040B54F8041BFE
:1028200055F8042B55F8043B002A40F00680002B95
:1028300040F003800649FEF76DBF03F111FB0AEB80
:10284000860646F8040B46F8041BFEF75ABD000046
:10285000A053000818F9010B18F9011B18F9014BD6
:102860005AF820005AF82110002940F0038004494A
:10287000FEF750BF03F1FAFA4AF82400FEF741BD13
:10288000A053000818F9010B18F9011B18F9016B86
:102890000AEB80040AEB810554F8040B54F8041B7E
:1028A00055F8042B55F8043B03F1E6FA0AEB8606CB
:1028B00046F8040B46F8041BFEF723BD18F9010B7C
:1028C00018F9011B18F9014B5AF820005AF8211089
:1028D00003F12EFB4AF82400FEF713BD18F9010B93
:1028E00018F9011B18F9016B0AEB80040AEB81054A
:1028F00054F8040B54F8041B55F8042B55F8043B0A
:10290000002A40F00680002B40F003800649FEF7C5
:1029100001BF03F129FB0AEB860646F8040B46F8D3
:10292000041BFEF7EEBC0000A053000818F9010BD1
:1029300018F9011B18F9014B5AF82000002940F042
:1029400003800449FEF7E6BE03F112FB4AF82400B7
:10295000FEF7D7BCA053000818F9010B18F9011BAA
:1029600018F9014B5AF820005AF82110002940F0BC
:1029700003800449FEF7CEBE03F1FAFA4AF82400B8
:10298000FEF7BFBCA053000818F9010B18F9011B92
:1029900018F9016B0AEB80040AEB810554F8040B6B
:1029A00054F8041B55F8042B55F8043B03F1E4FAE2
:1029B0000AEB860646F8040B46F8041BFEF7A1BC9A
:1029C00018F9010B18F9011B18F9014B5AF82000EE
:1029D0005AF8211003F1F0FA4AF82400FEF791BCEE
:1029E00018F9010B18F9011B18F9012B0AEB8000EB
:1029F0000AEB810150F8043B50F8044B51F8045B9A
:102A000051F8046BA3FB050103FB061104FB051140
:102A10000AEB820242F8040B42F8041BFEF771BC79
:102A200018F9010B18F9011B18F9012B5AF820307D
:102A300003FB01F04AF82200FEF763BC18F9010B12
:102A400018F9011B18F9012B5AF820305AF82140C7
:102A500003FB04F04AF82200FEF753BC18F9010BFF
:102A600018F9011B18F9016B0AEB80040AEB8105C8
:102A700054F8040B54F8041B55F8042B55F8043B88
:102A800003F1B6FA0AEB860646F8040B46F8041B77
:102A9000FEF737BC18F9010B18F9011B18F9014BA7
:102AA0005AF820005AF8211003F1ECFA4AF82400F1
:102AB000FEF727BC18F9010B18F9011B18F9012BB7
:102AC0000AEB80000AEB810150F8043B50F8044BFC
:102AD00051F8045B51F8046B5B1B64EB06040AEBD2
:102AE000820242F8043B42F8044BFEF70ABC0000A5
:102AF00018F9010B18F9011B18F9012B5AF82030AD
:102B00005AF82140A3EB04034AF82230FEF7F9BB40
:102B100018F9010B18F9011B18F9016B0AEB800475
:102B20000AEB810554F8040B54F8041B55F8042BE8
:102B300055F8043B03F1C2FA0AEB860646F8040B8B
:102B400046F8041BFEF7DDBB18F9010B18F9011B51
:102B500018F9014B5AF820005AF8211003F1F8FA3D
:102B60004AF82400FEF7CDBB18F9010B18F9011B38
:102B700018F9012B0AEB80000AEB810150F8043BA5
:102B800050F8044B51F8045B51F8046B5B1944EBAB
:102B900006040AEB820242F8043B42F8044BFEF7BB
:102BA000B0BB000018F9010B18F9011B18F9012B33
:102BB0005AF8200008444AF82200FEF7A2BB0000A1
:102BC00018F9010B18F9011B18F9012B5AF820000C
:102BD0005AF8211008444AF82200FEF792BB000080
:102BE00018F9010B5AF8201001F1FF314AF82010B2
:102BF000FEF787BB18F9010B5AF8201001F101010B
:102C00004AF82010FEF77DBB18F9010B18F9011BDB
:102C10005AF8212002444AF82120FEF772BB000036
:102C200018F9014B18F9015B18F9016B0AEB8404E0
:102C30000AEB850554F8040B54F8041B55F8042BD3
:102C400055F8043B03F110F84AF82600FEF759BB8B
:102C500018F9014B18F9015B18F9016B0AEB8404B0
:102C60000AEB850554F8040B54F8041B55F8042BA3
:102C700055F8043B03F11EF84AF82600FEF741BB65
:102C800018F9012B18F9013B18F9014B5AF82200E9
:102C90005AF8231003F135F84AF82400FEF731BB47
:102CA00018F9012B18F9013B18F9014B5AF82200C9
:102CB0005AF8231003F149F84AF82400FEF721BB23
:102CC00018F9014B18F9012B4FEAE27318F9015B6F
:102CD0000AEB840454F8040B54F8041B03F15AF86B
:102CE0004AF82500FEF70DBB18F9014B18F9015BF6
:102CF00018F9016B0AEB84040AEB850554F8040B00
:102D000054F8041B55F8042B55F8043B03F142F822
:102D10004AF82600FEF7F5BA38F8020B8044FEF7B1
:102D2000F0BA000018F8010B8044FEF7EABA000080
:102D300018F9040B4FEA98084FEA880858F8042B52
:102D400058F8043B38F8021B5AF82000984200F368
:102D50000C809042C0F20980A0EB02004FEA4000D4
:102D600038F800008044FEF7CCBA8844FEF7C9BAB0
:102D700018F9082B4FEA98014FEA810131F8040C49
:102D80005AF8222002F152FF8046FEF7BABA00003C
:102D900018F9014B18F9013B0AEB830318685968CD
:102DA00003F170FA4AF82400FEF7ABBA18F9014BA8
:102DB00018F9013B5AF8230003F18DFA4AF8240070
:102DC000FEF79FBA18F9014B18F9013B0AEB830390
:102DD0001868596802F1EDFF4AF82400FEF791BA2D
:102DE00018F9014B18F9013B5AF8230002F1E3FFEF
:102DF0000AEB840420606160FEF783BA18F9014B86
:102E000018F9013B0AEB83031868596802F1D7FFF0
:102E10000AEB840420606160FEF773BA18F9014B75
:102E200018F9013B5AF8230002F1CDFF0AEB8404A4
:102E300020606160FEF765BA18F9014B18F9013B93
:102E40000AEB83031868596802F1C1FF4AF82400AD
:102E5000FEF757BA18F9014B18F9013B5AF823004D
:102E600002F1B7FF4AF82400FEF74BBA18F9014BFC
:102E700018F9013B0AEB83031868596803F116FA45
:102E80000AEB840420606160FEF73BBA18F9014B3D
:102E900018F9013B5AF8230003F129FA0AEB8404DC
:102EA00020606160FEF72DBA18F9010B18F9011BBB
:102EB0005AF821204FEAE2730AEB80000260436077
:102EC000FEF71FBA03F1A2FE18F9010B18F8011B57
:102ED0005BF82020002A18BFA8EB0108FEF711BA02
:102EE00018F9010B18F8011B5BF82020002A08BF15
:102EF000A8EB0108FEF705BA18F9010B18F9011B38
:102F000038F8022B5BF820305BF82140A34218BF51
:102F1000A8EB0208FEF7F5B918F9010B18F9011B27
:102F200038F8022B5BF820305BF82140A34208BF41
:102F3000A8EB0208FEF7E5B918F9011B4FEA2110CA
:102F40004FEA01714FEA217118F8012B5AF820302D
:102F50005AF82140A342D8BFA8EB0208FEF7D1B926
:102F600018F9010B18F9011B38F8022B5AF8203018
:102F70005AF82140A342D8BFA8EB0208FEF7C1B916
:102F800018F9011B4FEA21104FEA01714FEA217134
:102F900018F8012B5AF820305AF82140A342B8BF44
:102FA000A8EB0208FEF7ADB918F9010B18F9011BDF
:102FB00038F8022B5AF820305AF82140A342B8BF03
:102FC000A8EB0208FEF79DB918F9010B18F9011BCF
:102FD00038F8022B5AF820305AF82140A34218BF83
:102FE000A8EB0208FEF78DB918F9010B18F9011BBF
:102FF00038F8022B5AF820305AF82140A34208BF73
:10300000A8EB0208FEF77DB918F9010B18F8011BAF
:103010005AF82020002AC8BFA8EB0108FEF771B9B2
:1030200018F9010B18F8011B5AF82020002AA8BF34
:10303000A8EB0108FEF765B918F9010B18F8011B98
:103040005AF82020002AD8BFA8EB0108FEF759B98A
:1030500018F9010B18F8011B5AF82020002AB8BFF4
:10306000A8EB0108FEF74DB918F9010B18F8011B80
:103070005AF82020002A18BFA8EB0108FEF741B932
:1030800018F9010B18F8011B5AF82020002A08BF74
:10309000A8EB0108FEF735B988477869002840F0A9
:1030A0000480FEF728B900F002B8FEF72BBB000041
:1030B00018F9011B4FEA211001F00F01D7F80C900D
:1030C000C1F1000459F824204BF82020FEF719B96B
:1030D0005BF82130002B40F003800549FEF71ABB56
:1030E000C2F1000419594BF82010FEF70AB900008C
:1030F000205200085BF82110002940F003800549A8
:10310000FEF708BB5BF82030C2F100028B50FEF7DF
:10311000F8B800002052000818F9011B4FEA2110EE
:1031200001F00F01D7F80C905BF82020C1F10004EA
:1031300049F82420FEF7E5B85BF82110002940F09B
:1031400003800749FEF7E6BA0AEB800050F8043B1B
:1031500050F8044B53500A445460FEF7D2B80000B4
:103160002052000818F9011B4FEA211001F00F014D
:103170000AEB800050F8042B50F8043BD7F80C9071
:1031800049F8212009EB8109C9F80430FEF7B9B8E4
:103190005BF82110002940F003800749FEF7BABA16
:1031A0008B5811444C680AEB800040F8043B40F80F
:1031B000044BFEF7A6B800002052000818F9011BC6
:1031C0004FEA211001F00F01D7F80C9059F8212097
:1031D00009EB8109D9F804300AEB800040F8042B90
:1031E00040F8043BFEF78DB818F9011B4FEA211097
:1031F0004FEA01714FEA217118F8012B5BF820307A
:103200005BF82140A34218BF9044FEF77AB8000053
:1032100018F9010B18F9011B38F8022B5BF8203064
:103220005BF82140A34218BF9044FEF76AB8000043
:1032300018F9011B4FEA21104FEA01714FEA217181
:1032400018F8012B5BF820305BF82140A34208BF3F
:103250009044FEF756B8000018F9010B18F9011B4D
:1032600038F8022B5BF820305BF82140A34208BFFE
:103270009044FEF746B8000018F9010B18F9011B3D
:1032800018F9012B0AEB820252F8045B52F8046B26
:103290005BF82030002B40F003800C49FEF73ABA6F
:1032A0005AF821000028C0F20D805C6803F1080381
:1032B000A04280F2078043F8305003EBC0035E6009
:1032C000FEF71FB80249FEF725BA00002052000899
:1032D0006052000818F9010B18F9011B18F9012BAD
:1032E0005BF82130002B40F003800F49FEF712BA43
:1032F0005AF822100029C0F213805C6803F1080319
:10330000A14280F20D8053F8315003EBC1035E6897
:103310000AEB800040F8045B40F8046BFDF7F1BF56
:103320000249FEF7F7B90000205200086052000879
:1033300038F8022B38F8023B18F9010B18F9011B79
:103340000AEB80000BEB810142EA0344A746000030
:10335000D7F87C9002460948006833464DF8045D72
:10336000C84701B0002840F00480FEF7CBB900F058
:1033700004B84BF82400FDF7C4BF00007002002021
:10338000BB6F074800689847002840F00480FEF7AC
:10339000B9B900F004B84BF82400FDF7B2BF000043
:1033A000700200200AEB800050F8044B50F8043BF8
:1033B000034D45F8314005EBC1056B60FDF7A1BF3A
:1033C00068400020064B53F8314003EBC1035D68B1
:1033D0000AEB800040F8044B40F8045BFDF791BF16
:1033E0006840002018F9010B0AEB800050F8042B0C
:1033F00004680260234640F8043CFDF782BF0000E9
:1034000018F9010B18F9011B0AEB800050F8042B86
:1034100050F8043B544263EB43050AEB810141F849
:10342000044B41F8045BFDF76CBF000018F8010B7A
:103430005BF8041C002918BF8044FDF762BF000040
:1034400018F8010B5BF8041C002908BF8044FDF745
:1034500058BF000018F9010B18F8011B5BF8202079
:10346000002A18BF8844FDF74CBF000018F9010B73
:1034700018F8011B5BF82020002A08BF8844FDF7DC
:1034800040BF000018F9011B4FEA21104FEA0171FB
:103490004FEA217118F8012B5AF820305AF82140D0
:1034A000A342D8BF9044FDF72CBF000018F9010BD0
:1034B00018F9011B38F8022B5AF820305AF821402D
:1034C000A342D8BF9044FDF71CBF000018F9011BB0
:1034D0004FEA21104FEA01714FEA217118F8012BD0
:1034E0005AF820305AF82140A342B8BF9044FDF763
:1034F00008BF000018F9010B18F9011B38F8022B5E
:103500005AF820305AF82140A342B8BF9044FDF742
:10351000F8BE000018F9011B4FEA21104FEA0171B3
:103520004FEA217118F8012B5AF820305AF821403F
:10353000A34218BF9044FDF7E4BE000018F9010B48
:1035400018F9011B38F8022B5AF820305AF821409C
:10355000A34218BF9044FDF7D4BE000018F9011B28
:103560004FEA21104FEA01714FEA217118F8012B3F
:103570005AF820305AF82140A34208BF9044FDF782
:10358000C0BE000018F9010B18F9011B38F8022B16
:103590005AF820305AF82140A34208BF9044FDF762
:1035A000B0BE000018F9010B18F9011B18F8012B27
:1035B0005AF820308B42D8BF9044FDF7A2BE0000DD
:1035C00018F9010B18F9011B18F8012B5AF82030D3
:1035D0008B42A8BF9044FDF794BE000018F9010B80
:1035E00018F9011B18F8012B5AF820308B4218BF2C
:1035F0009044FDF786BE000018F9010B18F9011B75
:1036000018F8012B5AF820308B4208BF9044FDF780
:1036100078BE000018F9010B18F8011B5AF8202099
:10362000002AC8BF8844FDF76CBE000018F9010BE2
:1036300018F8011B5AF82020002AA8BF8844FDF77B
:1036400060BE000018F9010B18F8011B5AF8202081
:10365000002AD8BF8844FDF754BE000018F9010BBA
:1036600018F8011B5AF82020002AB8BF8844FDF73B
:1036700048BE000018F9010B18F8011B5AF8202069
:10368000002A18BF8844FDF73CBE000018F9010B62
:1036900018F8011B5AF82020002A08BF8844FDF7BB
:1036A00030BE00000000000000000000000000002C
:1036B000DB1A0281A877000820013400946F00080B
:1036C000000000005C5B000828000400000000000F
:1036D000DA1A0281B877000820013300946F0008DD
:1036E000000000005C5B00081800100000000000F3
:1036F000DC1A0281D877000820013500946F000899
:10370000000000005C5B00083000140000000000B6
:10371000DC1A0181E877000801012600403A000820
:10372000DA1A0181F877000801012400F037000857
:10373000D91A018108780008100423006464000885
:10374000B45A0008D05A000814000400485E01086A
:10375000D81A03812878000820024100B85E0008CA
:1037600000000000D06D00082400080000000000E8
:10377000DA1A038138780008010143005456000822
:10378000D91A03814878000801014200B0380008C6
:10379000D21A00815878000820050400CC70000877
:1037A00000000000245B0008240018000000000056
:1037B000DF1A018168780008300528008870000849
:1037C000000000009C7000081800100004A501080B
:1037D000DE1A01817878000820012700946F000824
:1037E00000000000C45B000804000000FCA4010805
:1037F000DB1A01818878000820012500946F0008F9
:1038000000000000C45B0008140004000000000079
:10381000DA1A0181987800082801F000946F0008F6
:1038200000000000B86C000804000000FCA40108BF
:10383000D81A0381A878000830017B00946F000833
:103840004C5B0008EC6D000818000000B4C00008D4
:10385000D91A0281B878000820023200B05F00084F
:10386000545B00085C5B000824000C0000000000B2
:10387000DB1A0081C878000830045100007000088D
:10388000000000009C7000081800100004A501084A
:10389000D51A0381D87800082001AF00946F000882
:1038A000845B0008C86C00081400080000000000D9
:1038B000DC1A0381E878000820014400946F0008B6
:1038C000000000008C5B00081C00000000000000ED
:1038D000D41A0081F8780008200207000C63000861
:1038E00000000000305F00080C0004000000000031
:1038F000D91A0381087900082001D900445D000825
:10390000985B0008A05B00081400040000000000A1
:10391000DC1A00811879000830015200946F000809
:10392000000000006870000804000000FCA401080A
:10393000D81A01812879000820012200946F00081C
:10394000BC5B0008C45B0008080004000000000025
:10395000DA1A03813879000801017D00204F000840
:10396000D71A00814879000820014D00946F0008A3
:103970000000000044670008240018000000000058
:10398000D31A03815879000820013C00946F000885
:10399000D45B0008DC5B00080800040000000000A5
:1039A000D21A03816879000820013B00946F000857
:1039B000EC5B0008F45B0008080004000000000055
:1039C000D11A03817879000820013A00946F000829
:1039D000045C00080C5C0008080004000000000003
:1039E000D31A0381887900082002AD000C63000817
:1039F000000000001C5C0008140000000000000033
:103A0000D31A0081A879000828020600EC63000898
:103A100000000000E470000844000800D0C6000860
:103A2000D41A0081C879000820014A00946F000868
:103A300000000000446700082400080000000000A7
:103A4000D31A0081D879000820014900946F00083A
:103A500000000000446700081C0004000000000093
:103A6000D91A0381E879000801017C005039000867
:103A7000DA1A0381F87900082006B300CC70000838
:103A800000000000A85C00082C00200000000000DE
:103A9000D51A0281087A00083004A00000700008DE
:103AA000000000009C7000081800100004A5010828
:103AB000D31A0081287A00080003E0005863000848
:103AC000CC5C0008E05C0008080004000000000076
:103AD000D61A0281387A00083001A100946F0008DC
:103AE000000000005869000804000000FCA4010860
:103AF000D81A0381787A00082002DA00445D0008B1
:103B00003C5D00084C5D0008180008000000000043
:103B1000D11A0281887A000820012A00946F0008D7
:103B2000685D0008705D00080800040000000000E7
:103B3000D01A0281987A000820012900946F0008A9
:103B4000805D0008885D0008080004000000000097
:103B5000D71A0181A87A000820012100946F00087B
:103B6000985D0008A05D0008080004000000000047
:103B7000D51A0081B87A000830014B00946F000814
:103B800000000000446700080C00000058DE000838
:103B9000D51A0281C87A000820012E00946F00080F
:103BA000B05D0008B85D00080800040000000000D7
:103BB000D41A0281D87A000820012D00946F0008E1
:103BC000C85D0008D05D0008080004000000000087
:103BD000D31A0281E87A000820012C00946F0008B3
:103BE000E05D0008E85D0008080004000000000037
:103BF000D21A0281F87A000820012B00946F000885
:103C0000F85D0008005E00080800040000000000E5
:103C1000D01A0381087B000820013900946F000846
:103C2000105E0008185E0008080004000000000094
:103C3000DF1A0281187B000820013800946F000809
:103C4000285E0008305E0008080004000000000044
:103C5000D61A0081287B000820014C00946F0008D0
:103C60000000000044670008180000000000000089
:103C7000D81A0281387B000820013100946F0008B7
:103C8000405E0008485E00080800040000000000D4
:103C9000D71A0281487B000820013000946F000889
:103CA000585E0008605E0008080004000000000084
:103CB000D61A0281587B000820012F00946F00085B
:103CC000705E0008785E0008080004000000000034
:103CD000DD1A0281687B00082002A800CC6300087E
:103CE000000000001461000808000400000000004B
:103CF000DF1A0381B87B000820014600946F00089A
:103D000000000000D06D000818000C00000000004A
:103D1000D71A0381C87B000820014000946F000877
:103D200000000000D06D0008180004000000000032
:103D3000DE1A0381087C00083004B7000070000818
:103D4000000000009C7000081800100004A5010885
:103D5000D21A0181187C00083002C100946F00085B
:103D6000E85E0008F05E000804000000FCA4010802
:103D7000D11A0181287C00082002C000946F00083D
:103D80000C5F0008145F00081C000C00000000001D
:103D9000DD1A0081487C000830015300946F000850
:103DA000000000006870000804000000FCA4010886
:103DB000D61A0081587C000830010800946F000872
:103DC00000000000305F000804000000FCA40108AF
:103DD000D31A0181687C000830051C008870000837
:103DE000000000009C7000081800100004A50108E5
:103DF000D21A0181787C0008000258000868000887
:103E0000485F0008585F00080C0000000000000038
:103E1000D71A0281A87C00082002A200B05F000827
:103E2000A85F0008B85F000824000C000000000034
:103E3000D21A0081B87C00082001B900946F0008F4
:103E400040600008D0640008080004000000000082
:103E5000D61A0181C87C00083004C3000070000835
:103E6000000000009C7000081800100004A5010864
:103E7000D81A0381D87C00082002B1000C63000826
:103E800000000000D06400081000080000000000DE
:103E9000D11A0381F87C00082801FB00946F000808
:103EA00000000000EC6C000804000000FCA4010805
:103EB000D41A0081087D00083001E100946F0008E9
:103EC00000000000B86C0008040000009403010822
:103ED000D61A0181187D0008300420000070000807
:103EE000000000009C7000081800100004A50108E4
:103EF000DB1A0281287D00082004A500007000085C
:103F0000000000009C7000081800100004A50108C3
:103F1000D21A0081387D0008200448003467000868
:103F200000000000446700083C0010000000000092
:103F3000DA1A0081487D000820015000946F0008C3
:103F4000000000006870000818000C00000000006D
:103F5000D91A0081587D000820014F00946F000895
:103F600000000000687000081C000C000000000049
:103F7000D71A0381887D00083004D800007000083B
:103F8000000000009C7000081800100004A5010843
:103F9000D61A0381987D00083004D700007000080D
:103FA000000000009C7000081800100004A5010823
:103FB000DF1A0381C87D00080002B50060680008B0
:103FC0008C6000086C6800080C0004000000000011
:103FD000DB1A0381D87D00083001DB00946F0008F4
:103FE000B4600008E867000804000000FCA40108B1
:103FF000D41A0381E87D00083005D5000070000860
:10400000000000009C7000081800100004A50108C2
:10401000D21A0381087E00083001FC00946F00086A
:1040200000000000EC6C000804000000FCA4010883
:10403000D21A0381287E00082002AC00EC6300083D
:10404000000000001461000848000C00000000009F
:10405000DD1A0081387E000820018F00946F00086F
:104060004C610008546100080800040000000000D2
:10407000DC1A0081487E000820018E00946F000841
:10408000646100086C610008080004000000000082
:10409000DB1A0081587E000820018D00946F000813
:1040A0007C61000884610008080004000000000032
:1040B000D41A0081687E000820018600946F0008F1
:1040C0009C610008A46100080800040000000000D2
:1040D000D31A0081787E000820018500946F0008C3
:1040E000B4610008BC610008080004000000000082
:1040F000D21A0081887E000820018400946F000895
:10410000CC610008D4610008080004000000000031
:10411000D11A0081987E000820018300946F000866
:10412000E4610008EC6100080800040000000000E1
:10413000D41A0381A87E000820017800946F00083B
:104140000C6200081462000808000400000000006F
:10415000D31A0381B87E000820017700946F00080D
:10416000246200082C62000808000400000000001F
:10417000DB1A0281C87E000820017000946F0008DD
:104180004C620008546200080800040000000000AF
:10419000DA1A0281D87E000820016F00946F0008AF
:1041A000646200086C62000808000400000000005F
:1041B000D91A0281E87E000820016E00946F000881
:1041C0007C6200088462000808000400000000000F
:1041D000D61A0281F87E000820016B00946F000857
:1041E0009C620008A46200080800040000000000AF
:1041F000D51A0281087F000820016A00946F000828
:10420000B4620008BC62000808000400000000005E
:10421000DE1A0081187F0008200390003467000830
:1042200000000000CC62000838001400000000000C
:10423000D91A0281287F00083001A300946F00087A
:10424000EC620008FC6200081000080054440108F9
:10425000DA1A0081387F00083001BB00946F000833
:1042600000000000D064000804000000FCA4010865
:10427000D91A0081487F00082801BA00946F00080D
:1042800000000000D0640008100004003C26010873
:10429000DC1A0281587F00082801A600946F0008EC
:1042A00000000000FC62000804000000FCA40108FB
:1042B000D41A0381787F00082002AE000C63000846
:1042C00000000000C86C0008140008000000000096
:1042D000DD1A0081B87F00083001E600946F000805
:1042E00000000000B86C000810000C00604D0108D0
:1042F000D51A0081C87F00080003E2005863000857
:1043000044630008646300080C000400000000001F
:10431000D11A0181D87F00083001EA00946F0008AB
:1043200000000000B86C000804000000FCA40108B4
:10433000D41A0381E87F000820013D00946F000833
:1043400074630008B86D0008080004000000000055
:10435000D61A0381F87F000820013F00946F0008FF
:104360007C630008D06D0008080004000000000015
:10437000D51A03810880000820017900946F000895
:1043800084630008EC6D00080800040000000000D1
:10439000DB1A0381288000083004B400AC700008E8
:1043A000000000009C7000081800100004A501081F
:1043B000D31A0281388000083001A700CC630008BE
:1043C00000000000D463000808000400345601080F
:1043D000DA1A01814880000820010500EC6300081A
:1043E00000000000E4700008440008005037010895
:1043F000D41A0181588000082003C200386D0008DB
:10440000F4630008E86A00083C0020000000000097
:10441000D11A00817880000830010100946F0008F3
:104420000C640008E470000804000000FCA401080B
:10443000D11A01819880000820029200D4680008F7
:1044400000000000146400080800040000000000E0
:10445000DD1A0381A88000082801DD00946F0008A0
:1044600000000000E867000804000000FCA4010848
:10447000D31A0381B88000080002FD000868000814
:104480002C6400083C6400080800000000000000E4
:10449000D71A0181D88000081004EE006464000877
:1044A000486400087464000814000400485E0108B1
:1044B000DB1A0081E88000080101BC00E04400082C
:1044C000DD1A0081F88000082001BD00C8640008E2
:1044D00000000000D06400081C0004000000000080
:1044E000DC1A0081088100082002BE00C8640008B0
:1044F00000000000D0640008340004000000000048
:10450000DE1A01811881000820029D00346700082E
:1045100000000000286E00082C000C0000000000C5
:10452000D91A01812881000820019900946F0008A0
:10453000FC64000804650008080004000000000096
:10454000D81A01813881000820019800946F000872
:10455000146500081C650008080004000000000045
:10456000D71A01814881000820019700946F000844
:104570002C650008346500080800040000000000F5
:10458000D61A01815881000820019600946F000816
:10459000446500084C6500080800040000000000A5
:1045A000D41A01816881000820049400346700084F
:1045B00000000000446700084000140000000000F4
:1045C000DA1A00817881000820018C00946F0008BD
:1045D00078650008806500080800040000000000FD
:1045E000D91A00818881000820048B0034670008F4
:1045F00000000000446700084800200000000000A0
:10460000DF1A03819881000820018200946F00085E
:10461000906500089865000808000400000000008C
:10462000D01A0181A8810008200491003467000895
:1046300000000000A86500085C00280000000000E1
:10464000DE1A0381B881000820018100946F000800
:10465000C8650008D06500080800040000000000DC
:10466000D71A0381C881000820047A003467000843
:104670000000000044670008400014000000000033
:10468000D21A0381D881000820017600946F0008B7
:10469000FC65000804660008080004000000000033
:1046A000DC1A0381E881000820047F0034670008D9
:1046B000000000001466000850001C00000000000C
:1046C000D11A0381F881000820017500946F000859
:1046D000346600083C660008080004000000000082
:1046E000DD1A028108820008200471003467000886
:1046F00000000000446700084000140000000000B3
:10470000D81A02811882000820016D00946F0008F9
:10471000846600088C6600080800040000000000A1
:10472000D71A02812882000820046C003467000830
:104730000000000044670008400014000000000072
:10474000D41A02813882000820016900946F0008A1
:104750009C660008A4660008080004000000000031
:10476000DE1A0281488200082004720034670008C3
:1047700000000000B4660008840030000000000063
:10478000D31A02815882000820016800946F000843
:10479000D4660008DC660008080004000000000081
:1047A000DD1A01816882000820039C00346700083C
:1047B000000000000867000834001000000000003E
:1047C000D31A018178820008200293003467000820
:1047D0000000000020670008340010000000000006
:1047E000D01A02818882000820034700346700083D
:1047F00000000000446700083800100000000000BE
:10480000D11A0281988200083002F5002870000851
:1048100064670008EC6C000804000000FCA40108B8
:10482000D81A0081B882000820040B00446D0008EB
:1048300000000000946700086000180000000000FD
:10484000DE1A0281C882000830020900446D0008A7
:1048500000000000B067000820001400944C01081C
:10486000D31A0181D88200083001EC00946F00084F
:1048700000000000B86C000804000000FCA401085F
:10488000DF1A0081E88200083001E800946F000818
:1048900000000000B86C000804000000FCA401083F
:1048A000DE1A0081F88200083001E700946F0008EA
:1048B00000000000B86C000808000400BC73010888
:1048C000D91A0081088300083001E300946F0008C2
:1048D00000000000B86C000804000000FCA40108FF
:1048E000D71A0181188300080101C400A04B0008F9
:1048F000DC1A0381788300082801DC00946F00082B
:1049000000000000E867000804000000FCA40108A3
:10491000DF1A0181888300080002C90008680008C6
:10492000F867000810680008080000000000000098
:10493000DC1A0381A88300080003B6006068000841
:10494000506800086C6800081000080000000000B3
:10495000DE1A0381B88300083001DE00946F00087E
:1049600094680008B86C000804000000FCA401086A
:10497000DB1A0081C883000820021000446D000883
:1049800000000000F468000810000400F492010820
:10499000D31A0381488400083003D300E06F000875
:1049A000000000009C7000081800100004A5010819
:1049B000D81A00818884000820024E00D4680008BC
:1049C00000000000687000081C00080000000000E3
:1049D000D21A0381988400083001D200946F000835
:1049E000DC680008E468000804000000FCA401087A
:1049F000DF1A0081A884000830010401946F0008C8
:104A000000000000EC6C0008080004006881010848
:104A1000D61A0181B88400080101ED008051000818
:104A2000DF1A0281C884000830020E00986B00086B
:104A300000000000F468000810000400F49201086F
:104A4000DB1A0281D884000820030A00446D0008A4
:104A5000000000000C690008600018000000000061
:104A6000DE1A0081E88400082002BF00E06D000823
:104A700028690008306900082400100000000000C8
:104A8000D31A0281F884000820039F00E06D00081B
:104A90005069000858690008440024000000000024
:104AA000D51A01810885000820039500E06D0008F3
:104AB0007C690008846900084800200000000000AC
:104AC000DD1A03811885000820038000E06D0008CE
:104AD000A8690008B069000838001C000000000048
:104AE000D01A03812885000820037400E06D0008B7
:104AF000D4690008DC6900083400140000000000DC
:104B0000DF1A02813885000820037300E06D000879
:104B1000006A0008086A0008400020000000000049
:104B2000D21A02814885000820036700E06D000862
:104B30002C6A0008346A00082C00100000000000F5
:104B4000DD1A0181588500082002F200846A0008FD
:104B5000706A00088C6A000810000C000000000059
:104B6000DB1A0081688500080101E500CC590008C6
:104B7000D51A0281788500080101CB00804E00081B
:104B8000DA1A0081888500083002E400106C000801
:104B9000A46A0008B86A00080C0004002491010807
:104BA000D81A0181988500082802C500E06A00082B
:104BB00000000000E86A000810000000E47401082A
:104BC000D81A0281A88500080101CC00E05900082C
:104BD000DC1A0181E88500080101C700004C0008CB
:104BE000DB1A0181F88500082001C600946F0008D7
:104BF000506B0008586B0008180008000000000007
:104C0000DD1A0181088600080001C800946F0008C1
:104C10006C6B0008846B0008180010000000000096
:104C2000DE1A00811886000820031300586D000862
:104C300000000000646D000838001800000000004B
:104C4000DD1A00812886000830021100386D000846
:104C5000906B0008646D00080C000400C49101080A
:104C6000DA1A00813886000830030F00986B0008BC
:104C700000000000A46B000810000400F49201087A
:104C8000D91A00814886000830030D00446D0008E1
:104C900000000000BC6B000820001400B07A01087E
:104CA000D71A00815886000820050C00446D0008C2
:104CB00000000000D86B00086C002000000000001D
:104CC000DC1A0381C886000830020101106C00085C
:104CD000FC6B0008186C00080C000400249101080B
:104CE000D01A0281D88600082002F300287000083C
:104CF000406C0008546C000808000400000000002C
:104D0000DE1A01810887000830035B007870000814
:104D1000000000009C7000081800100004A50108A5
:104D2000D71A03811887000830021E00E06F0008C0
:104D3000000000009C7000081800100004A5010885
:104D4000DB1A01812887000830041B0088700008E6
:104D5000000000009C7000081800100004A5010865
:104D6000DC1A01813887000830031A0088700008B7
:104D7000000000009C7000081800100004A5010845
:104D8000D81A02815887000830021900AC70000858
:104D9000000000009C7000081800100004A5010825
:104DA000D41A00816887000801010301205100081E
:104DB000D41A0081788700082005B200CC70000862
:104DC00000000000946C000824001800000000009F
:104DD000DB1A0181B88700082002F100B06C0008DE
:104DE00000000000B86C000808000400000000008B
:104DF000D71A0381C88700082801B000946F000803
:104E000000000000C86C000804000000FCA40108B9
:104E1000D81A0381D88700082801FF00946F000882
:104E2000D86C0008EC6C000804000000FCA4010829
:104E3000DF1A0281E88700082801FA00946F000851
:104E400000000000EC6C000804000000FCA4010855
:104E5000DD1A0281F88700080101F80040540008BB
:104E6000DF1A0181088800082003F4002870000878
:104E7000046D0008186D0008100008000000000014
:104E8000D61A02814888000828021200586D0008CE
:104E900000000000646D000838001800608D0108F3
:104EA000D41A01815888000828011400CC6E00082B
:104EB000000000008C6D000808000000FCA4010840
:104EC000DE1A02817888000830013700946F0008EC
:104ED00000000000AC6D000808000400F48E01081A
:104EE000D51A03818888000820013E00946F0008CD
:104EF00000000000B86D0008140010000000000061
:104F0000DD1A03819888000820024500C86D00085A
:104F100000000000D06D00081C0018000000000018
:104F2000DB1A0381D888000820017E00946F0008F6
:104F300000000000EC6D00082000000000000000F0
:104F4000D61A0081E888000800028800986E0008E0
:104F5000FC6D00080C6E0008200008000000000036
:104F6000D51A0081F888000801018700404F000829
:104F7000D81A00810889000800028A00986E00088B
:104F8000186E0008A06E0008100008000000000065
:104F9000D71A00811889000801018900704F0008A4
:104FA000DF1A01813889000830019E00946F0008E3
:104FB00000000000286E000818000400E09E0108B0
:104FC000DB1A01815889000820019B00946F0008BA
:104FD0003C6E0008446E000804000000FCA40108B8
:104FE000DA1A01816889000820019A00946F00088C
:104FF000546E00085C6E000804000000FCA4010868
:10500000DE1A0281788900080001A900946F000867
:105010006C6E00087C6E00080800000000000000B4
:10502000D01A0381888900080002AB00986E00083E
:10503000886E0008A06E0008100004000000000048
:10504000DF1A0281988900080101AA002050000897
:10505000D91A0281A88900083003CD00AC6E00087F
:1050600000000000B86E000810000400F49201086F
:10507000DF1A0081888A000830031500CC6E000812
:1050800000000000D86E00082000180048930108B6
:10509000DC1A0281C88900080101CE00040000006A
:1050A000D11A0181D8890008010116000900000009
:1050B000DD1A0281E88900080101CF000B00000021
:1050C000DD1A0281F889000801013600060000009F
:1050D000D21A0181088A00080101170007000000A8
:1050E000D41A0181488A000830041D008870000825
:1050F000000000009C7000081800100004A50108C2
:10510000D61A0381588A000830031F000070000877
:10511000000000009C7000081800100004A50108A1
:10512000D51A0081688A000830011800AC700008A8
:10513000000000009C7000081800100004A5010881
:10514000D01A0181788A000830010501946F0008A7
:10515000386F0008406F000808000400DC97010861
:10516000D21A0181988A000830000000946F00086C
:1051700000000000E470000804000000FCA4010826
:10518000D91A0281A88A00082801F700946F000844
:10519000606F0008746F000804000000FCA40108A0
:1051A000DA1A0381B88A000810010001946F000820
:1051B000806F00089C6F000814000400C4A201085E
:1051C000DE1A0081C88A000820025500C86F000856
:1051D000A86F0008B06F00081C000C00DCA20108DA
:1051E000D21A0081D88A000830015400C86F000824
:1051F000C06F0008D06F00081C000C00DCA2010882
:10520000D11A0381E88A00083004D100AC7000088C
:10521000000000009C7000081800100004A50108A0
:10522000D21A0081F88A00083004DF0000700008FC
:10523000000000009C7000081800100004A5010880
:10524000D01A0381088B00083004D40000700008D5
:10525000000000009C7000081800100004A5010860
:10526000D51A0381188B00083005D600007000089D
:10527000000000009C7000081800100004A5010840
:10528000D51A0381288B00083004FE000070000846
:10529000000000009C7000081800100004A5010820
:1052A000DF1A0181388B00083004640000700008A8
:1052B000000000009C7000081800100004A5010800
:1052C000DD1A0181488B0008300463007870000803
:1052D000000000009C7000081800100004A50108E0
:1052E000DA1A0181588B00083005620088700008C6
:1052F000000000009C7000081800100004A50108C0
:10530000D91A0181688B000830045D00EC6F000839
:10531000000000009C7000081800100004A501089F
:10532000D91A0181788B0008300461007870000878
:10533000000000009C7000081800100004A501087F
:10534000D81A0181888B00083004600000700008C2
:10535000000000009C7000081800100004A501085F
:10536000D01A0381988B00083005D000EC6F00083C
:10537000000000009C7000081800100004A501083F
:10538000DA1A0281A88B00083003A400E06F00083D
:10539000000000009C7000081800100004A501081F
:1053A000D71A0181B88B000830045F000070000834
:1053B000000000009C7000081800100004A50108FF
:1053C000D61A0181C88B000830055E00EC6F00081A
:1053D000000000009C7000081800100004A50108DF
:1053E000D11A0081D88B00083004B8000070000882
:1053F000000000009C7000081800100004A50108BF
:10540000D21A0181E88B00080101EB0008000000BE
:10541000D01A0181F88B00080101E9000A000000A0
:10542000DD1A0381088C000801010201050000005B
:10543000D11A0281188C000801016600205400086E
:10544000DE1A0281288C00080101F900A051000831
:10545000D01A0281388C000801016500E051000873
:10546000D81A0181488C00080101EF006051000842
:10547000D11A0181588C00083002570028700008AA
:10548000147000083470000804000000FCA4010837
:10549000DF1A0081688C0008200256006070000846
:1054A0004C70000868700008140000000000000044
:1054B000D51A0181788C000830045C0078700008EF
:1054C000000000009C7000081800100004A50108EE
:1054D000D61A0281888C00082004F600AC700008FF
:1054E000000000009C700008180010000000000080
:1054F000D41A0181988C000830045A008870000882
:10550000000000009C7000081800100004A50108AD
:10551000D31A0181A88C000830045900AC7000082F
:1055200000000000BC7000081800100004A501086D
:10553000D71A0081B88C000820020200CC70000845
:1055400000000000E47000081800100000000000D7
:10555000D61A0081C88C000820030300CC70000814
:1055600000000000E47000081800100000000000B7
:10557000D01A0281D88C00081002CA0010710008ED
:10558000F8700008187100081800040068AE0108DF
:10559000D61A0381C8770008060100000000000049
:1055A000DB1A03811878000834010000205B000832
:1055B00000000000D31A008198790008060100005D
:1055C00000000000D81A0281B87900082401000008
:1055D000B05F0008405C0008D81A0081187A000803
:1055E0000601000000000000D51A0081487A00087A
:1055F0000601000000000000D71A0081587A000858
:105600000601050000000000DB1A0081687A00082E
:1056100006010200305D0008D91A0381787B00087A
:10562000340100000C63000800000000D71A00815C
:10563000887B00080401000058630008905E0008A1
:10564000D61A0081987B0008040200005863000805
:10565000A45E0008DE1A0381A87B00082401000074
:10566000B85E000800000000DE1A0081D87B000848
:105670000601000000000000DD1A0381E87B00083D
:1056800006010200C45E0008DD1A0081F87B0008F4
:1056900006010100E05E0008D11A0081387C000894
:1056A0000601000000000000DF1A0381887C00086A
:1056B0000601010000000000DA1A0081987C000851
:1056C0000402000064640008645F0008D11A0281CB
:1056D000E87C000824020000346700080000000095
:1056E000D41A0381687D00083401000008680008AE
:1056F00078600008DA1A0381787D0008060100004E
:1057000000000000DE1A0181A87D000806010000EB
:1057100000000000DC1A0081B87D000824010000B0
:105720006464000880600008D21A0181F87D0008D6
:1057300034010000D468000800000000D61A00817F
:10574000187E00081403000064640008F860000874
:10575000DF1A0081687F00080601000000000000D9
:10576000D91A0381887F00080601000000000000AC
:10577000DF1A0381987F0008060101000000000085
:10578000DE1A0181A87F000824010000846A000855
:1057900020630008D21A028118800008240100004A
:1057A0003467000800000000DC1A008168800008EF
:1057B00034010000946F000800000000D41A028138
:1057C0008880000834010000946F00080000000089
:1057D000D11A0181C8800008060100000000000005
:1057E000D51A0181A882000834020000386D000833
:1057F00088670008D91A0181288300082401000065
:10580000E06A000800000000D11A00813883000817
:1058100024010000C86D000800000000D01A0181BA
:105820004883000824010000E06D0008000000002B
:10583000D11A03815883000804010000986E000803
:10584000D8670008DA1A0281688300083402000071
:10585000AC6E000800000000DE1A03819883000887
:1058600034010000106C00081C680008D01A018187
:10587000D883000834020000CC6E0008000000004D
:10588000DC1A0281E8830008060100000000000025
:10589000DB1A0281F8830008060101000000000005
:1058A000DA1A0281088400080601020000000000E4
:1058B000D11A0081188400080601000000000000D1
:1058C000DB1A0381288400080601010000000000A3
:1058D000D31A00813884000806010100000000008E
:1058E000D41A02815884000806010200000000005A
:1058F000D51A02816884000806010000000000003B
:10590000D31A02817884000806010300C4680008E5
:10591000D11A0281B88500080601000000000000CD
:10592000D91A0081C88500080601030000000000A4
:10593000D81A0081D8850008060104000000000084
:10594000D31A0181B886000834010000946F000862
:10595000F46B0008D21A0281E886000834010000C6
:10596000287000086C6C0008D01A0181F8860008C5
:105970003401000060700008806C0008D71A0281B2
:105980004887000834030000AC70000800000000E5
:10599000D51A00818887000824040000CC70000814
:1059A00000000000D81A0081988700082401000038
:1059B000CC70000800000000DC1A0181A8870008F4
:1059C00024010000B06C000800000000DC1A008117
:1059D0001888000834010000386D0008306D000898
:1059E000D51A01812888000834010000446D0008A0
:1059F00000000000D71A0281388800083401000036
:105A0000586D000800000000DD1A01816888000858
:105A10000601000000000000D41A0281A8880008D6
:105A200024020000E06D000800000000DC1A028182
:105A3000B88800080601000000000000D61A0381A3
:105A4000C88800080601000000000000DF1A00817D
:105A5000288900080601000000000000DC1A01810E
:105A6000488900080601000000000000D21A0281E7
:105A7000B88900083401000010710008000000001F
:105A8000685600088856000868AA00083CAA000862
:105A90000856000818AB0008ECAA000894AA0008F1
:105AA00068AA00083CAA00082059000830590008DC
:105AB000F855000800000500805A0008845A0008C4
:105AC000905A0008A85A0008AC5A0008B05A0008BA
:105AD000B8A90008E4A9000810AA00083CAA000818
