:020000040800F2
:1000000050080020C1010008D7260008AD110008E3
:10001000D5260008E90700084D360008000000005A
:100020000000000000000000000000006532000831
:10003000010A000800000000412C000809340008F3
:10004000DB010008DB010008DB010008DB01000820
:10005000DB010008DB010008DB010008DB01000810
:10006000DB010008DB010008DB010008DB01000800
:10007000DB010008ED070008DB010008310800087B
:10008000DB010008DB010008DB010008DB010008E0
:10009000DB010008DB010008DB010008DB010008D0
:1000A000DB010008DB010008DB010008DB010008C0
:1000B000DB010008DB010008DB010008DB010008B0
:1000C000DB010008DB010008DB010008DB010008A0
:1000D000DB010008DB010008DB010008DB01000890
:1000E000DB010008DB010008DB010008DB01000880
:1000F000DB010008DB010008DB010008DB01000870
:10010000DB010008DB010008DB010008DB0100085F
:10011000DB010008DB010008DB010008DB0100084F
:10012000DB010008DB010008DB010008DB0100083F
:10013000DB010008DB010008DB010008DB0100082F
:10014000DB010008DB010008DB010008DB0100081F
:10015000DB010008DB010008DB010008DB0100080F
:10016000DB010008DB010008DB010008DB010008FF
:10017000DB010008DB010008DB010008DB010008EF
:10018000DB010008DB010008DB010008DB010008DF
:10019000DB010008DB010008DB010008DB010008CF
:1001A000DB010008DB010008DB010008DFF80CD0F0
:1001B00000F008FB004800475149000850080020A3
:1001C0000648804706480047FEE7FEE7FEE7FEE7F1
:1001D000FEE7FEE7FEE7FEE7FEE7FEE7593400082C
:1001E000AD0100082DE9FE4F804681EA0300C00FF3
:1001F0000C46009021F0004123F00045B8EB0200CE
:10020000A94105D24046214690461C460B4602466F
:1002100023F00040104304D14046214603B0BDE81E
:10022000F08F270DC7F30A00C3F30A510290401A5A
:100230000190402866DAC3F3130040F4801B009855
:10024000924620B10023D2EB030A63EB0B0B01981B
:100250005946C0F14002504600F0C2F906460D462C
:1002600050465946019A00F0DAF910EB0800614156
:10027000002487EA115284EAE7731A433BD0009ABC
:100280003AB3019A012A4FEA075210DC001B61EBD6
:1002900002014FF0004202EA0752CDE90042001C81
:1002A00041F5801132462B4600F00EFAB6E7001BEE
:1002B00061EB0201001C41F5801300185B4120181E
:1002C000A2F5001747EB030140EAD570B6196D415E
:1002D00011E06D084FEA360645EAC0754FEA07524D
:1002E000001B61EB0201001C41F5801149084FEA37
:1002F00030000019514132462B4603B0BDE8F04FA3
:1003000000F0D5B90098012240000023D0EB020292
:1003100063EBE073009821464FEAE074B8EB00000D
:1003200061EB0401E9E783F000435BE781F0004102
:1003300058E72DE9FE4F81EA030404F0004421F060
:10034000004100944FF0000B23F0004350EA0104F9
:1003500002D052EA030404D10020014603B0BDE8F4
:10036000F08FC3F30A54C1F30A552C44A4F2F334BA
:100370000194A0FB0254C1F3130141F48011C3F3B3
:10038000130343F4801301FB024400FB034E840A71
:10039000970A44EA815447EA8357A4FB0768029509
:1003A0008D0A05FB07854FEA932C04FB0C542705A7
:1003B000029D4FEA065847EA1637B5EB08056EEB83
:1003C000070C870E920E47EA811742EA8312A7FBB9
:1003D0000201B6EB0B0164EB00042B0D43EA0C3376
:1003E0005E1844EB1C50DA465146E7FB0201C5F3A8
:1003F00013044FEA0B3343EA14534FEA0432019CCF
:1004000043EA0603A4F10C040294009CCDE900B475
:1004100000F05AF9A2E72DE9F04D81EA030404F057
:10042000004B21F0004514464FF0000A23F0004134
:1004300050EA050220D054EA01021DD0C5F30A5744
:100440000246C5F31303C1F31300C1F30A5640F487
:10045000801543F48013A7EB0608101BD64608F25C
:10046000FD3873EB050002D308F1010801E0921892
:100470005B41B8F1000F03DA00200146BDE8F08DC2
:1004800000204FF48011064684460EE0171B73EBE4
:10049000050705D3121B63EB050306434CEA010C69
:1004A00049084FEA300092185B4150EA0107EDD14C
:1004B00052EA030012D082EA040083EA05010843ED
:1004C00003D100224FF0004308E0101BAB4102D2E1
:1004D0000122002302E06FF0010253101AEB060024
:1004E0004CEB085110EB0A0041EB0B01BDE8F04D5D
:1004F00000F0DDB800F0004230F000400AD0C10D3D
:1005000001F56071C0F3160042EA0151C2084007CC
:100510001143704700200146704701F0004330B49A
:1005200021F0004150EA010206D00A0DA2F56072E6
:10053000C1F31301002A02DC30BC00207047440FD5
:1005400044EAC104C100E01830BC00EBC25000F026
:1005500078B830B50B46014600202022012409E07E
:1005600021FA02F59D4205D303FA02F5491B04FA6C
:1005700002F52844151EA2F10102F1DC30BD2DE97F
:10058000F05F0546002092469B4688460646814617
:1005900040241BE0284641464746224600F02FF8FB
:1005A00053465A46C01A914110D311461846224666
:1005B00000F016F82D1A67EB01084F46224601207D
:1005C000002100F00DF817EB00094E41201EA4F1A8
:1005D0000104DFDC484631462A464346BDE8F09F29
:1005E000202A04DB203A00FA02F1002070479140F3
:1005F000C2F1200320FA03F3194390407047202AE8
:1006000004DB203A21FA02F00021704721FA02F3BC
:10061000D040C2F120029140084319467047202A79
:1006200006DBCB17203A41FA02F043EAE07306E01A
:1006300041FA02F3D040C2F120029140084319462A
:1006400070470029A8BF7047401C490008BF20F030
:100650000100704710B4B0FA80FC00FA0CF050EAC8
:10066000010404BF10BC704749B1CCF1200421FA49
:1006700004F411FA0CF118BF012121430843A3EB44
:100680000C01CB1D0106000A002BBEBF002010BCD0
:10069000704700EBC35010440029A4BF10BC704742
:1006A000401C490008BF20F0010010BC704710B585
:1006B000002B08DA401C41F1000192185B411A43FB
:1006C00001D120F0010010BD2DE9F04D92469B466E
:1006D00011B1B1FA81F202E0B0FA80F22032904614
:1006E000FFF77EFF04460F4640EA0A0041EA0B018D
:1006F00053465A46084303D120463946BDE8F08D9B
:10070000114653EA010015D0C8F140025046FFF7E8
:1007100076FF05460E46504659464246FFF760FFB3
:10072000084301D0012000E00020054346EAE076BE
:100730002C4337430A984FEA4453A0EB08004FEA92
:10074000D4240A304FF0000244EA47544FEAD72538
:1007500002D500200146D1E7010510196941DDE904
:10076000084500196941BDE8F04DA0E7C1F30A5200
:10077000C1F3130140F2FF3341F480119A4202DACF
:1007800000200146704740F233439A42A2F23342BE
:1007900002DC5242FFF733BFFFF722BF30B500291A
:1007A00004DB4FF00044404264EB0101002B04DB0A
:1007B0004FF00044524264EB0303994208BF904259
:1007C00030BD0000064C074D06E0E06840F0010334
:1007D00094E8070098471034AC42F6D3FFF7EAFCE0
:1007E000B4190408D4190408FEE7000070B50D4CD4
:1007F0004FF081552946204600F0E8F800280FD038
:100800000121094800F014FD0021204600F0D4F831
:100810002946204600F0BAF804490020896808807B
:1008200070BD000040600240005C004010000020ED
:1008300070B5154D154C2946204600F0C7F8002824
:100840001FD00021204600F0B7F82946204600F0CE
:100850009DF80F4C4FF4204060600E4D0E4E03E0AB
:100860006268501E60606AB13146284600F0EAFCBA
:100870000028F5D00121284600F0DAFCE1680020CC
:10088000087070BDFEE7000020000020706002408C
:1008900010000020005C00400400001010B5012191
:1008A000CC05204602F0DAF92046BDE810400021D0
:1008B00002F0D4B9034A0146002052680A4200D02F
:1008C0000120704700B0024030B52A4900240A6870
:1008D000294B1A400A600A6803681A430A604A6B87
:1008E00022F007024A634A6B43681A434A6342682C
:1008F00042B3012A2DD0022A30D0032AC26832D056
:1009000013010269446912022403856822431D43CE
:1009100015438A6B15438D638269CA630A6C6FF352
:100920000D020A640A6CC3691A430A64828C4B6C18
:1009300003F040434B644B6C006A034343EA0243B9
:100940004B6430BDC268047D1302028A120424067F
:10095000DBE7C2681302028A1204D6E7C2685301B9
:100960000269D202D1E75301026944699202E403A9
:10097000CBE7000000B00240FCE0FCFF0248016849
:1009800041F001010160704700B00240074A904207
:1009900001D2074801E005481038064A8B0001EAF9
:1009A000020101D5C1607047816070471064024048
:1009B000006002407D0F7D0F0029016802D041F0E8
:1009C000010101E021F00101016070470246094B7D
:1009D00000209A4201D2084A01E0064A103A8B00F0
:1009E00001D5526800E01268044B1A400A4200D058
:1009F0000120704710640240006002407D0F7D0FAF
:100A00007047000003494A6810444A688242FCD398
:100A100070470000800000202DE9F04F594CF0EEA7
:100A2000000A2DED028B83B0B4F90C00B4F9081064
:100A3000401A00EE100AB8EEC00A02F031FEB4F916
:100A40000E00B4F90A10B0EE408A401A00EE100A07
:100A5000F0EE000AB8EEC00A02F022FE38EE000AFC
:100A600003F038F9BCEEC00AB4F808A0B4F80A9054
:100A700010EE100A002682B204F13400554241887B
:100A80004B1C9FB2C3881944491E1FFA81F8818804
:100A90004B1C9BB2019300890844401E80B2009019
:100AA000022000EB450401F043FD00BFAAEB050165
:100AB0008B4609EB0602B9420FDB41450DDC019B79
:100AC0009A420ADB009B9A4207DC2E4BC2EB021CC7
:100AD0000BEB0C115B8820F811300AEB0501B942D1
:100AE0000FDB41450DDC019B9A420ADB009B9A42D9
:100AF00007DC244BC2EB021201EB02125B8820F8E8
:100B00001230A9EB0602B9420FDB41450DDC019B17
:100B10009A420ADB009B9A4207DC1A4BC2EB021C8A
:100B200001EB0C115B8820F811305946BB450FDBF7
:100B300041450DDC019B9A420ADB009B9A4207DC8F
:100B4000104BC2EB02120BEB02115B8820F8113044
:100B50002146B44208DC761C01EB4604641CF542D5
:100B600002D1A94200DC0021A94203DD6D1C04EB87
:100B70004504641C002D99DD03B0BDEC028BBDE87B
:100B8000F08F00008C0000202DE9F04F5D4DF0EE5D
:100B9000000A2DED028B83B0B5F90C00B5F90810F1
:100BA000401A00EE100AB8EEC00A02F079FDB5F95D
:100BB0000E10B5F90A00B0EE408A081A00EE100ACD
:100BC000F0EE000AB8EEC00A02F06AFD38EE000A44
:100BD00003F080F8BCEEC00AB5F808906F8910EEFB
:100BE000100A84B205F1340041884A1C1FFA82F8C9
:100BF000C2881144491E89B20091818800894A1C2B
:100C00000844401E1FFA80FA03201FFA82FBA0EB63
:100C1000440600256FE084B3381B5946834500D84D
:100C20000146401A00EB4400CDE901013919514554
:100C300005D3AAEB0700211A0198401A0190A9EBED
:100C4000050040450AD30099884207D8019980B22F
:100C50008AB20299012389B201F048F909EB050033
:100C600040450AD30099884207D8019980B28AB2D8
:100C70000299012389B201F039F985B3781B5946ED
:100C8000834500D80146401A00EB4500CDE901013B
:100C90007919514505D3AAEB0700291A0198401A82
:100CA0000190A9EB040040450AD30099884207D877
:100CB000019980B28AB20299012389B201F016F932
:100CC00009EB040040450AD30099884207D80199EE
:100CD00080B28AB20299012389B201F007F9002E8D
:100CE00003DA06EB8506B61D04E0281B06EB80063A
:100CF0000A36641E6D1CA5428DD903B0BDEC028B73
:100D0000BDE8F08F8C000020114930B4B1F9082003
:100D1000B1F90C309A4201DA104600E0184680B270
:100D200000DC1A46B1F90A30B1F90E4092B2A34282
:100D300001DA194600E0214689B200DC2346A2EB25
:100D40000002A3EB010330BC92B29BB201F08EB85B
:100D50008C0000202DE9F0472148B0F90820B0F9B7
:100D60000C108A4201DA134600E00B461FFA83F8A2
:100D700000DD11468EB2B0F90A20B0F90E108A4299
:100D800001DA134600E00B469FB200DD11468DB23A
:100D90000FFA88F481460DE0B9F80020A0B2394678
:100DA00001F018F8B9F80020A0B2294601F012F8B5
:100DB000641C24B2B442EFDD3CB24F460BE03A88EB
:100DC000A1B2404601F006F83A88A1B2304601F0DF
:100DD00001F8641C24B2AC42F1DDBDE8F0870000EC
:100DE0008C0000202DE9FC5F304800270489B0F812
:100DF0000C804389B0F80EC0A8EB0400002801DC89
:100E0000A4EB080001B2ACEB0300002801DCA3EB6B
:100E10000C0000B226B21DB24FF0FF32A04503D342
:100E20000124A246009401E0924600929C4503D31F
:100E30004FF0010BD94601E09346D94681424FF06D
:100E4000000208DB9146009201EBD17242F34F049D
:100E50008846019025E0924600EBD0724FF0000BDF
:100E600042F34F04804601911BE01048A9B202886A
:100E7000B0B200F0AFFF0198204404B2444508DB53
:100E8000A4EB080004B20098304406B205EB0B0056
:100E900005B206EB0A0006B205EB09007F1C05B29D
:100EA0003FB24745E1DDBDE8FC9F00008C0000201B
:100EB00000234FF0204210280AD0B0F5807F09D0DF
:100EC000B0F5805F09D0D2F85801814309D107E01D
:100ED000506EFAE7D2F88400F7E7D2F8A400F4E7FE
:100EE0000123184670470000D0E9001211438268C0
:100EF0006FF01F03C06803EB421242EA4020014337
:100F00000148016070470000500100A0F0B5D0E931
:100F100001210A43D0E9031319430A434169C36914
:100F20000A438169046A0A431A43456A22430668F0
:100F30002A434FF0204186B323432B43C1F840316D
:100F4000036801EB8303C3F8402100BF6FF00F0675
:100F500035012C02026823011AB3876A3A68D7F870
:100F600004C0521E06EB0C163243BE6805EB062584
:100F70002A433D8A04EB05442243FC68BD8A2403CE
:100F8000A4F5805403EB05531C43C1F848410068A5
:100F900001EB8000C0F84821F0BDFFE7C1F8402117
:100FA000D4E7806A02684768521E06EB0716324390
:100FB000866805EB06252A430A4EC56806EB05350B
:100FC0002A43058A04EB05442243848A007E03EB0E
:100FD00004531A43330303EB00600243C1F8482172
:100FE000DAE7000000F0FFFF02490A6842EA400029
:100FF00008607047540100A0F0B5002301240327C6
:101000000D6804FA03F21540954242D1D0F800C0B1
:101010005E0007FA06F52CEA050CC0F800C091F84E
:1010200004C0D0F800E00CFA06FC4CEA0E0CC0F844
:1010300000C091F804C0BCF1010F02D0BCF1020F56
:101040001FD1D0F808C02CEA050CC0F808C091F8F0
:1010500005C0D0F808E00CFA06FC4CEA0E0CC0F80B
:1010600008C0D0F804C02CEA020CC0F804C04268E2
:1010700091F806C00CFA03FC1FFA8CFC42EA0C0241
:101080004260C268AA43C260CA79C568B2402A43B6
:10109000C2605B1C102BB3D3F0BD4B07DB0E9A4034
:1010A000C90810B500EB8100016A0F249C40A143E0
:1010B0000162016A1143016210BD418370470183DF
:1010C00070470AB1018370474183704710B500F043
:1010D0006FFF00F0CFFF012001F030FA012001F096
:1010E000C9F94FF6FF74204600F094FD00F040FB74
:1010F00010B34FF4784000F08DFD002001F0CCF9E2
:1011000000F050FFC08818A100EB400004EA400046
:1011100000F0C0FD00F046FFC08818A1C0EBC00081
:1011200080B200F0B7FD00F03DFFC08818A104EACE
:10113000C00000F0AFFD09E01A484FF47A71006872
:10114000B0FBF1F0401EB0F1807F01D3002010BD54
:101150004FF0E0214861144AF020107000208861AF
:1011600007200861012010BD202020494F45204E56
:101170004F54204F4B2020202020200052657365C3
:10118000742074686520626F617264202020000002
:10119000616E642074727920616761696E2020201D
:1011A000202000006400002023ED00E0FEE700297D
:1011B000018802D041F4806101E021F48061018066
:1011C00070470029018802D041F0010101E021F0BF
:1011D00001010180704700000D4910B5884202D11D
:1011E00001214C050AE00B49884202D101218C05FE
:1011F00004E0094988420AD10121CC05204601F0CA
:1012000051FD2046BDE81040002101F04BBD10BD4E
:101210000054004000580040005C00400029018854
:1012200002D041F4807101E021F4807101807047A7
:101230000029018802D041F4007101E021F400711D
:10124000018070470CB50246002000920A0F21F081
:101250007F41019202D0009A143202E0009A090CF8
:101260001832009212680A4200D001200CBD000022
:101270007FB5044680880D4620F03F06684601F0A1
:1012800035FD26490298B0FBF1F189B20E43A680E4
:10129000228822F001022280214B2A689A421BD820
:1012A0005200B0FBF2F080B2042800D20420491CA6
:1012B0002184A083208840F00100208021884FF6FF
:1012C000F5300140A8886A89104308432080A88926
:1012D0002989084320817FBDEB88A3F53F46FF3E67
:1012E00005D102EB4202B0FBF2F080B208E002EB63
:1012F000C20303EB0212B0FBF2F080B240F4804074
:10130000020501D140F001004FF4967251434FF4B1
:101310007A72B1FBF2F140F40040C8E740420F009E
:10132000A0860100B1F5006F018803D021F40061AF
:101330000180704741F40061FAE700002DE9F05F99
:10134000DFF86C818346002401214046FFF766FFE9
:10135000584D4FF44057584E2F6004E02868401E07
:101360002860401C77D031464046FFF76BFF0028CD
:10137000F4D000228221C246404600F05CF9B94612
:101380002F604D4FA8467F1C554606E0D8F8001048
:10139000491EC8F80010491C5DD039462846FFF7A1
:1013A00051FF0028F2D0DFF808A10AF1180ABAF8B4
:1013B0000000C8F8009006E0D8F80010491EC8F8F0
:1013C0000010491C6FD03C4928467F31FFF73AFF97
:1013D0000028F1D00BF0FF01284600F034F901217C
:1013E0002846FFF71BFFC8F8009006E0D8F8000079
:1013F000401EC8F80000401C55D031462846FFF773
:1014000021FF0028F2D0012282212E46284600F03A
:1014100012F94D46C8F8009007E000BFD8F8000068
:10142000401EC8F80000401C3DD039463046FFF74A
:1014300009FF0028F2D000213046FFF7B8FE4FF434
:1014400000613046FFF76EFFBAF80000C8F80050A0
:10145000194DED1C07E026E0D8F80000401EC8F842
:101460000000401C1FD029463046FFF7EBFE002845
:10147000F2D001213046FFF7DBFE304600F0D8F80D
:1014800060F30F24304600F0D3F860F30704012125
:101490003046FFF78CFE4FF2FF713046FFF742FFF8
:1014A0002046BDE8F09FBDE8F05F00F0BBBA000049
:1014B000005C004020000020010000102DE9F14FE9
:1014C000584D01212846FFF7A9FE574C4FF44057CD
:1014D000564E276004E02068401E2060401C70D0FB
:1014E00031462846FFF7AEFE0028F4D000212846FA
:1014F000FFF75DFE00228221284600F09CF8B846E6
:1015000027604A4F7F1C04E02068401E2060401C7A
:1015100057D039462846FFF795FE0028F4D0DFF86B
:10152000049109F11809B9F80000DFF800A1AB46F1
:101530000AF17F0AC4F8008004E02068401E2060A1
:10154000401C6AD0554651465846FFF77BFE00289E
:10155000F3D05846009900F076F8AA465D46C4F8E4
:10156000008004E02068401E2060401C55D0514699
:101570002846FFF767FE0028F4D02C492846C91CEE
:10158000FFF760FE0028EDD00121AA462846FFF7AC
:1015900045FE4546C4F80080B046564604E0206843
:1015A000401E2060401C38D041463046FFF74AFEBE
:1015B0000028F4D001228221304600F03CF825605A
:1015C00005E02AE02068401E2060401C25D03946F6
:1015D0003046FFF737FE0028F4D0B9F80000256048
:1015E000124D3F3504E02068401E2060401C14D09E
:1015F00029463046FFF726FE0028F4D00121304668
:10160000FFF716FE304600F013F80446012130467D
:10161000FFF7CDFD2046BDE8F88FBDE8F84F00F09C
:1016200001BA0000005C0040200000200100001012
:10163000008AC0B2704712B141F0010101E001F02F
:10164000FE0101827047018270470029018802D0A3
:1016500041F4004101E0C1F30E0101807047000038
:101660002DE9F05F3F4E8B46824600270121304630
:10167000FFF7D4FD3C4C4FF44055DFF8F080256077
:1016800004E02068401E2060401C66D04146304681
:10169000FFF7D8FD0028F4D0002282213046FFF762
:1016A000CAFFDFF8C880256008F1010804E020685F
:1016B000401E2060401C50D041463046FFF7C2FD1E
:1016C0000028F4D0274818300088DFF8A080B14601
:1016D00008F17F08256004E02068401E2060401C5F
:1016E0003BD0464641464846FFF7ACFD0028F3D0C4
:1016F00051464846FFF7A7FFC846256004E020682A
:10170000401E2060401C28D031464046FFF79AFD1D
:101710000028F4D059464046FFF795FF256045461E
:10172000DFF8488008F1030804E02068401E2060CC
:10173000401C12D031462846FFF784FD0028F4D023
:1017400041462846FFF77EFD0028EED001212846BD
:10175000FFF76EFD3846BDE8F09FBDE8F05F00F092
:1017600061B90000005C0040200000200100001072
:101770001FB500F03FF80020ADF80400ADF80800F8
:101780004FF48060ADF80A000001ADF80C004BF694
:10179000FF710E480E4CADF80610009069462046C9
:1017A000FFF766FD01212046FFF70BFD00F072F800
:1017B00010B1042004B010BD00F08DF801210846DE
:1017C00000F008F800F096F80020F3E7A08601008A
:1017D000005C004070B504460D460420FFF76EFE25
:1017E0000DB1A04300E0204301460420FFF738FF7D
:1017F000002070BD7CB50121CC05204601F046FAE1
:10180000012140F2051001F01DFA0121880301F0C9
:1018100055FA0121204601F045FA0021204601F049
:1018200041FA124C042208212046FFF736FC104DE5
:10183000042209212846FFF730FC0221A0158DF86B
:10184000041000908DF8051001208DF8060000208E
:101850008DF8070069462046FFF7CEFB6015009023
:1018600069462846FFF7C8FB7CBD00000000024027
:101870000008024070B504460D461720FFF71EFE13
:101880000DB1204300E0A04301461720FFF7E8FE1A
:10189000002070BD10B500F011F8A0F500611139FD
:1018A00008D00548006808B1012010BDBDE810400F
:1018B00000F0B8B8002010BD2000002010B50020B6
:1018C000FFF7FCFD4FF6FF7101EA00240120FFF74E
:1018D000F5FD204310BD10B502210320FFF7C0FE27
:1018E000022002F0A9FE00210320FFF7B9FE00202C
:1018F00010BD000010B501210220FFF76BFF492148
:101900002020FFF7ADFE022002F096FE01212120EB
:10191000FFF7A6FE00211E20FFF7ACFF9A21412011
:10192000FFF79EFE01214A20FFF79AFE01214B207E
:10193000FFF796FE00214B20FFF792FE0121562073
:10194000FFF78EFE01215820FFF78AFE0321402079
:10195000FFF786FEFF210B20FFF782FE03480021E0
:10196000C180818041800180084610BD2C0000208C
:1019700070B54020FFF7A2FD294D10F08000A5F1C1
:101980000C0428803AD04D20FFF7D8FC40F6B8313F
:10199000884202DCA0F61E7001E0A0F6D86040424A
:1019A0000F2190FBF1F0002801DC002002E0F0287C
:1019B00000DDEF2086B24F20FFF7C0FCA0F5B47029
:1019C0000B2190FBF1F0002801DC002004E0B0F5D1
:1019D000A07F01DD40F23F10616880B28E4201D9E4
:1019E000721A00E08A1BA168884201D9411A00E0FE
:1019F000091A1144052901D9C4E90160A088688049
:101A00002089A8805120FFF799FCE88001214B2014
:101A1000FFF726FE00214B20FFF722FE004870BD95
:101A20002C0000201FB5174C01212046FFF700FCB9
:101A300001212046FFF709FE00212046FFF705FEA1
:101A4000FFF7D8FE2046FFF7C7FB0020ADF80400E3
:101A50004BF6FF70ADF806003320ADF808002015F6
:101A6000ADF80A000001ADF80C0007480090012114
:101A70002046FFF7A6FB69462046FFF7F9FB04B0B6
:101A8000002010BD005C0040A08601001CB50121B3
:101A90006F2001F0D7F8534C0E2203212046FFF7A8
:101AA000FCFA0E2204212046FFF7F7FA0E22062147
:101AB0002046FFF7F2FA0E220B212046FFF7EDFA3F
:101AC0000E220C212046FFF7E8FA02218DF80510BE
:101AD0008DF80410002141F658008DF80610009092
:101AE0008DF8071069462046FFF786FA3E4C09221A
:101AF00000212046FFF7D1FA092201212046FFF7F5
:101B0000CCFA0E2208212046FFF7C7FA0E2209213F
:101B10002046FFF7C2FA0E220A212046FFF7BDFA3F
:101B20000E220B212046FFF7B8FA40F60370009012
:101B300069462046FFF760FA2C4C0E22062120460B
:101B4000FFF7ABFA0E2207212046FFF7A6FA0E2276
:101B50000A212046FFF7A1FA4FF4986000906946E9
:101B60002046FFF749FA224C0E2203212046FFF7B8
:101B700094FA0E2206212046FFF78FFA48200090A3
:101B800069462046FFF738FA1A4C0E220A212046F1
:101B9000FFF783FA2015009069462046FFF72CFADC
:101BA000154C0E2206212046FFF777FA0E22072158
:101BB0002046FFF772FA09220A212046FFF76DFA44
:101BC0000E220B212046FFF768FA09220C2120463D
:101BD000FFF763FA4FF4E650009069462046FFF79E
:101BE0000BFA1CBD00000240000402400008024045
:101BF000000C02400014024000180240044A002871
:101C00004FF00401104601D0FFF759BAFFF755BA5B
:101C100000080240054A00214FF4A023526800BF8B
:101C200022F81100491C9942FAD370473400002071
:101C30001CB50121042001F005F8042000900220C9
:101C40008DF8050001208DF8040000208DF80600B5
:101C5000064C8DF8070069462046FFF7CDF90122B2
:101C60000421204600F004F81CBD000000080240DA
:101C7000FFF727BA064B10B4DB68203AD2B21C68D3
:101C8000DB88534304EB430210BC00F021B8000092
:101C900034000020F0B50E46074600240B4D0AE044
:101CA00021463846FFF7E6FFE868761C8088204426
:101CB00084B2F02C08D23278002A05D0E8688088F7
:101CC000011989B28142EBD2F0BD0000340000203E
:101CD0002DE9F04792460022C0EB001045011E4856
:101CE0000788B0F802904668C3682FE0002025E01E
:101CF0004FF00C0CB4FBFCFC4FEACC084FF0800C0E
:101D00000CFA08FC3AF812804CFA00FC1CEA080FA6
:101D100001D10C2C08D94FF0010C0CFA00FC18EA88
:101D20000C0F06D10C2C04D906EB410C2CF80590B5
:101D300002E006EB41046753491C401C9C88844226
:101D4000D6D8A0B2C0F1F0000144521CD88890420D
:101D5000CCD8BDE8F087000034000020F0B51C4D61
:101D6000534200242E880222D5F8045002EB43028D
:101D70000F19A0EB030EC7EB07170EEB071C25F896
:101D80001C6000EB030C0CEB071725F817600F1B0A
:101D9000C7EB07170CEB071C25F81C600EEB0717A9
:101DA00025F817601746A24208DC641C07EB4402C2
:101DB000521CE34202D19F4200DC00279F4203DD18
:101DC0005B1C02EB4302521C002BD1DDF0BD000076
:101DD000340000202DE9F84F8B460321904607463A
:101DE000A1EB4806002415464FF6FF7935E09DB17A
:101DF000ABEB050081B2009009EA4502381B924620
:101E000080B2012300F072F80098524681B238196E
:101E100080B2012300F06AF89CB1ABEB040081B200
:101E2000009009EA4402781B924680B2012300F038
:101E30005DF80098524681B2781980B2012300F013
:101E400055F8002E03DA06EB8406B61D04E0601B8D
:101E500006EB80060A366D1E641CAC42C7D94246AA
:101E600059463846BDE8F84FFFF778BF2DE9F047EF
:101E7000DFF874901446C1EB0111B9F8002000EBB3
:101E80000110D9F804108CB09A464FEAD22802F01B
:101E90001F05C2F3451601EB4007FEF7FFFC4FF4A8
:101EA0004030009001AA0220A2E861010F20CDE994
:101EB0000507C4F1F0000994CDE9070A6846FEF76A
:101EC00003FDFEF75BFD0220FEF7F4FC0028FAD0CC
:101ED000B9F80010ADF82810BDF82810A9F80010C6
:101EE0000CB0BDE8F0870000340000202DE9F0437D
:101EF000C1EB011100EB0110194914468BB04A687F
:101F0000994602EB40080888C60A00F01F05C0F396
:101F10004517FEF7C3FC4FF44030009001AA0220A1
:101F2000A1C20F20CDE904600120CDF81880B9F1DD
:101F3000000F10D0CDE90840EF2107916846FEF769
:101F4000C3FCFEF71BFD0220FEF7B4FC0028FAD00C
:101F50000BB0BDE8F08300210994CDE90710EDE74F
:101F6000340000202DE9F0411C4615460E46074678
:101F700000232246FFF7BAFF701981B200232246E0
:101F80003846FFF7B3FF01232A4631463846FFF7AC
:101F9000ADFF38192A463146BDE8F04180B2012331
:101FA000FFF7A4BF0148C06870470000340000205C
:101FB00030B591B00121082000F044FE4FF40050EC
:101FC0000F9002208DF8410001258DF8405000242B
:101FD0008DF842408DF843400FA92548FFF70CF8D3
:101FE000FFF726FE0020FFF709FE0120FFF706FE9F
:101FF00000F0DCF900F092F80121880600F05EFEA6
:102000000121C80500F01EFEFFF740FD00F0F2FFC1
:1020100002940394009401940C940D9404220721DB
:10202000C0200E9400F0D4FE680400F0C1FE012030
:1020300000F0C8FE3D2000F0A1FE0028FAD00920E3
:10204000CDE904051D2006900320079040F20D10F5
:10205000089040F24310099040F217100A9040F2A5
:1020600047100B90684600F085FA11B030BD0000B3
:10207000000C024030B591B01E20009040F20D10CF
:1020800001900420029040F243100390022004903B
:10209000FF200590002006900790089009904FF4CB
:1020A00080600A9005200B9040F2E3100D90C01E56
:1020B0000E904FF4A0700F904FF05040144C0C90C5
:1020C0006946204600F0B4FA12480C904FF4C06004
:1020D0000A900F4D072080350B906946284600F086
:1020E000A7FA012000F0F0FA0121204600F096FA4C
:1020F0000121284600F092FA012000F0E5FA064896
:10210000A0F11001C860012000F026FA11B030BD26
:1021100084680140000005D04400002010B5CA20AA
:1021200000F0C2F9C32000F0E1F9082000F0DEF968
:10213000502000F0DBF9CF2000F0B6F9002000F0CD
:10214000D5F9C12000F0D2F9302000F0CFF9ED2010
:1021500000F0AAF9642000F0C9F9032000F0C6F9E4
:10216000122000F0C3F9812000F0C0F9E82000F04F
:102170009BF9852000F0BAF9002000F0B7F978202B
:1021800000F0B4F9CB2000F08FF9392000F0AEF95F
:102190002C2000F0ABF9002000F0A8F9342000F06A
:1021A000A5F9022000F0A2F9F72000F07DF9202027
:1021B00000F09CF9EA2000F077F9002000F096F991
:1021C000002000F093F9B12000F06EF9002000F03B
:1021D0008DF91B2000F08AF9B62000F065F90A207D
:1021E00000F084F9A22000F081F9C02000F05CF931
:1021F000102000F07BF9C12000F056F9102000F00B
:1022000075F9C52000F050F9452000F06FF9152050
:1022100000F06CF9C72000F047F9902000F066F953
:10222000362000F041F9C82000F060F9F22000F0FB
:102230003BF9002000F05AF9B02000F035F9C22037
:1022400000F054F9B62000F02FF90A2000F04EF902
:10225000A72000F04BF9272000F048F9042000F0F7
:1022600045F92A2000F020F9002000F03FF9002075
:1022700000F03CF9002000F039F9EF2000F036F9C9
:102280002B2000F011F9002000F030F9002000F0C0
:102290002DF9012000F02AF93F2000F027F9F6205F
:1022A00000F002F9012000F021F9002000F01EF9F1
:1022B000062000F01BF92C2000F0F6F8C82002F0F0
:1022C000C9F9262000F0F0F8012000F00FF9E02015
:1022D00000F0EAF80F2000F009F9292000F006F9D3
:1022E000242000F003F90C2000F000F90E2000F08B
:1022F000FDF8092000F0FAF84E2000F0F7F87820F9
:1023000000F0F4F83C2000F0F1F8092000F0EEF8BD
:10231000132000F0EBF8052000F0E8F8172000F09B
:10232000E5F8112000F0E2F8002000F0DFF8E120ED
:1023300000F0BAF8002000F0D9F8162000F0D6F826
:102340001B2000F0D3F8042000F0D0F8112000F09A
:10235000CDF8072000F0CAF8312000F0C7F833208C
:1023600000F0C4F8422000F0C1F8052000F0BEF8EB
:102370000C2000F0BBF80A2000F0B8F8282000F08C
:10238000B5F82F2000F0B2F80F2000F0AFF81120C0
:1023900000F08AF8C82002F05DF9292000F084F8E6
:1023A000BDE810402C2000F07FB8000070B588B068
:1023B0000121202000F046FC0121080500F07EFCF0
:1023C0008020059002208DF819008DF81800002457
:1023D000234E8DF81A408DF81B4005A93046FEF7B4
:1023E0000BFEB015059005A93046FEF705FE7515E4
:1023F00005A930460595FEF7FFFD05220721304669
:10240000FEF74BFE052208213046FEF746FE052268
:1024100009213046FEF741FE124E304600F07CFEA8
:10242000ADF800404FF48270ADF802000820ADF81E
:102430000C000720ADF80440ADF80840ADF81000DE
:10244000ADF80640ADF80A50ADF80E40694630468A
:1024500000F0ADFE0121304600F054FE08B070BD22
:1024600000140240005001400149C860704700005C
:102470003400002001B50648009921B105494160AA
:102480000121816008BD4FF0504141600021F8E713
:1024900034000020000005D001B5BDF8000001495E
:1024A000088008BD3400002010B5044600224FF417
:1024B00000510C48FFF7DCFB0020FFF79FFB214693
:1024C000094C204600F071FE8021204600F066FE97
:1024D0000028F9D10A2002F0BDF8BDE81040012023
:1024E000FFF78CBB000C02400050014010B50446C1
:1024F000012251030C48FFF7BBFB0020FFF77EFBD6
:1025000021460A4C204600F050FE8021204600F073
:1025100045FE0028F9D10A2002F09CF8BDE81040E1
:102520000120FFF76BBB0000000C0240005001408F
:102530000148406870470000340000200549002829
:10254000086802D040F0010001E020F001000860BE
:10255000704700001868014005490028086802D04B
:1025600040F4803001E020F48030086070470000C3
:102570001868014030B526490B68264A13400B60A5
:10258000038A1C040B6845692B4323430B60091D18
:102590000B6813400B60038B0C68C5692C4344EA3D
:1025A00003440C60091D0B6813400B60038C0C681E
:1025B000456A2C4344EA03440C60091D0B68134030
:1025C0000B60028D13040A68C46A22431A430A602E
:1025D000091D0A68104B1A400A60D0E900231A430B
:1025E000D0E9023423431A430B681A430A60416B53
:1025F0000B02018E0A04064924310C6804F07F4462
:102600000C600C68806B1A43044314430C6030BDAB
:102610000868014000F800F08F88FE0F002901686B
:1026200002D041F0010101E021F001010160704799
:1026300070B58A88436803F4704343600B6843EACB
:10264000024343608A89836803F4704383608B6824
:1026500043EA02438360026922F0070202610A69C9
:102660000261CA6991F8243016020A8C8469120446
:10267000002585618C6942EA036234431443846116
:10268000426922F0FF0242614A694261C26940F236
:1026900007739A43C261D1E90A231A43C261826A6D
:1026A00085620A6B82620A8FC36A03F0E023C36209
:1026B0004B6B43EA0243C362026B6FF30A0202638D
:1026C000C96B016370BD00000149086070470000DC
:1026D00024680140FEE770472DE9FE4FFE4800F0F8
:1026E000B1FFC82000210090CDE90101FA48522332
:1026F0001F22FA49283000F021FFF748F849283016
:1027000000F0F4FEF449F448283100F032FFF248BA
:10271000103800F097FF40F20D10D421CDE90010E1
:10272000ED480125302319220295EE49103000F0C2
:1027300013FFE9491031A1F1200000F01AFF022235
:102740001424E548164600943346E7496030CDE945
:10275000014500F0F3FEE048E449603000F0C6FEB9
:10276000DD496031A1F1700000F003FFDA4819275C
:10277000009433463A46DE497C30CDE9014500F00D
:10278000DDFED548DB497C3000F0B0FED2497C311B
:10279000A1F18C0000F0EDFECF484FF0300800941E
:1027A00033464246D4499830CDE9014500F0C6FE93
:1027B000C948D249983000F099FEC7499831A1F133
:1027C000A80000F0D6FEC4484FF0470900943346F5
:1027D0004A46CB49B430CDE9014500F0AFFEBE48D2
:1027E000C849B43000F082FEBB49B431A1F1C40045
:1027F00000F0BFFEB8484FF05E0A009433465246E0
:10280000C149D030CDE9014500F098FEB248BF493A
:10281000D03000F06BFEB049D031A1F1E00000F003
:10282000A8FEAD484FF0750B009433465A46B849A0
:10283000EC30CDE9014500F081FEA748B549EC3008
:1028400000F054FEA449EC31A1F1FC0000F091FE2F
:10285000009433468C22B049B048CDE9014500F0E0
:102860006DFEAF49AD4800F041FEAC49A1F58C705A
:1028700000F07FFE984800940223D922A9494430F1
:10288000CDE9014500F05AFE9348A749443000F0D5
:102890002DFE91494431A1F1540000F06AFE9F4899
:1028A0003B4600941A46A1491C30CDE9014500F091
:1028B00045FE9A489E491C3000F018FE97491C318D
:1028C000A1F59A7000F055FE944800943B464246AC
:1028D00098493830CDE9014500F030FE8F489649DF
:1028E000383000F003FE8D493831A1F5A87000F0B2
:1028F00040FE8A4800943B464A4690495430CDE910
:10290000014500F01BFE85488D49543000F0EEFD76
:1029100082495431A1F5B67000F02BFE7F48009437
:102920003B46524687497030CDE9014500F006FE2E
:102930007A488549703000F0D9FD78497031A1F5A9
:10294000C47000F016FE754800943B465A467F4915
:102950008C30CDE9014500F0F1FD70487C498C30A8
:1029600000F0C4FD6D498C31A1F5D27000F001FE7C
:102970006A4800943B468C227649A830CDE901454F
:1029800000F0DCFD65487449A83000F0AFFD6349F4
:10299000A831A1F5E07000F0ECFD6048022600943B
:1029A000A327434632466D49C430CDE9014500F0C6
:1029B000C5FD5A484FF6FF71C43000F09BFD5749E2
:1029C000C431A1F5EE7000F0D4FD544800944B469C
:1029D00032466349E030CDE9014500F0AFFD4F4894
:1029E0000021E03000F086FD4C49E031A1F5FC709B
:1029F00000F0BFFD49480094534632465949FC3027
:102A0000CDE9014500F09AFD44484EF61561FC30D1
:102A100000F070FD4149FC31A1F5057000F0A9FD01
:102A200000945B46324650495048CDE9014500F0DC
:102A300085FD1F214D4800F05DFD4C49A1F50C704E
:102A400000F097FD494800948C23324648491C30D9
:102A5000CDE9014500F072FD44484FF478411C3047
:102A600000F048FD41491C31A1F5137000F081FDD3
:102A70003E4800943B4632463E493830CDE9014558
:102A800000F05CFD39484FF61F01383000F032FD90
:102A900036493831A1F51A7000F06BFD33480094C7
:102AA000BA23324634495430CDE9014500F046FDA1
:102AB0002E484FF4FC61543000F01CFD2B4954317A
:102AC000A1F5217000F055FD2848D12332462B494D
:102AD0007030009454E00000B00000202D46000843
:102AE00058C00208AD4900085D490008D8F803083D
:102AF000F94500081AFB0308A14800085CFD03081B
:102B0000E54C00089EFF0308B94C0008E0010408EA
:102B10008D4C000822040408C9480008B8010020B0
:102B200064060408BD480008A608040861480008B7
:102B3000E80A0408014800082A0D04088148000832
:102B40006C0F040841480008AE110408E147000872
:102B5000F013040821480008321604084D4C000800
:102B60002D4B00086D4B00084D4B0008D002002093
:102B70000D4C0008CD4B0008AD4B00088D4B0008F4
:102B8000CDE9014500F0DAFC47F6FF71274800F077
:102B9000B1FC2649A1F5287000F0EBFC2348009415
:102BA000E823324622491C30CDE9014500F0C6FC3D
:102BB0001E484FF6E0711C3000F09CFC1B491C3194
:102BC000A1F52F7000F0D5FC18480094FF23324681
:102BD00018493830CDE9014500F0B0FC134845F202
:102BE0004901383000F086FC10493831A1F53670C3
:102BF00000F0BFFC0D4800944FF48B7332460E4931
:102C00005430CDE9014500F099FC08484EF24341AB
:102C1000543000F06FFC05495431A1F53D7000F0CF
:102C2000A8FCBDE8FE4F0548FFF71EBC400300208E
:102C30006D4C00082D4C0008ED4B00084C000020A6
:102C400070470000044A0029116801D0014300E0E8
:102C5000814311607047000030380240044A002967
:102C6000116801D0014300E081431160704700000A
:102C700010380240044A0029116801D0014300E0E5
:102C8000814311607047000038380240044A00292F
:102C9000116801D0014300E08143116070470000DA
:102CA00040380240044A0029116801D0014300E085
:102CB000814311607047000020380240044A002917
:102CC000116801D0014300E08143116070470000AA
:102CD00044380240044A0029116801D0014300E051
:102CE00081431160704700002438024070B5204ACB
:102CF0001168204C11F00C0104D06610042903D097
:102D0000082903D004601BE0066019E01849091F78
:102D10000B68C3F380550B6803F03F0315B1B6FB96
:102D2000F3F301E0B4FBF3F30C680968C4F388140F
:102D30006343C1F30141491C4900B3FBF1F1016058
:102D400011680F2303EA11110B4B5C5C0168E14031
:102D500041601468072505EA94241C5D21FA04F4F7
:102D60008460126805EA52329A5CD140C16070BD3D
:102D7000083802400024F4005400002002460020DD
:102D8000510901290BD002290CD00849096802F029
:102D90001F02012393400B4200D0012070470349DA
:102DA0007439F3E70149091FF0E700007438024065
:102DB000034A116821F4403101431160704700005B
:102DC0008C38024001490867704700000000474204
:102DD000800140EA0160024940EA027008607047E1
:102DE000883802401CB501217E20FFF72BFF02200E
:102DF0008DF804008DF8050000208DF80600774C52
:102E00008DF807000C2205212046FEF746F90C221A
:102E100006212046FEF741F96020009069462046D1
:102E2000FEF7EAF86E4C0C2200212046FEF735F939
:102E30000120009069462046FEF7DEF8694C0C221E
:102E400000212046FEF729F90C2201212046FEF739
:102E500024F90C2208212046FEF71FF90C22092133
:102E60002046FEF71AF90C220A212046FEF715F932
:102E70000C220E212046FEF710F90C220F212046CD
:102E8000FEF70BF94CF20370009069462046FEF7FE
:102E9000B3F8554C0C2200212046FEF7FEF80C2218
:102EA00001212046FEF7F9F80C2207212046FEF703
:102EB000F4F80C2208212046FEF7EFF80C22092135
:102EC0002046FEF7EAF80C220A212046FEF7E5F834
:102ED0000C220B212046FEF7E0F80C22114620467A
:102EE000FEF7DBF80C220D212046FEF7D6F80C2267
:102EF0000E212046FEF7D1F80C220F212046FEF7C6
:102F0000CCF84FF68370009069462046FEF774F8BF
:102F1000364C0C2200212046FEF7BFF80C2201217E
:102F20002046FEF7BAF80C2202212046FEF7B5F83B
:102F30000C2203212046FEF7B0F80C220421204683
:102F4000FEF7ABF80C2205212046FEF7A6F80C226E
:102F50000B212046FEF7A1F80C2211462046FEF771
:102F60009CF80C220D212046FEF797F80C220E212A
:102F70002046FEF792F80C220F212046FEF78DF82E
:102F80004FF63F00009069462046FEF735F8184C92
:102F90000C2200212046FEF780F80C220121204659
:102FA000FEF77BF80C2204212046FEF776F80C226F
:102FB00005212046FEF771F80C2208212046FEF775
:102FC0006CF80C220F212046FEF767F848F2331008
:102FD000009069462046FEF70FF81CBD0004024031
:102FE00000080240000C02400010024000140240A1
:102FF0000018024000B593B0FFF7F4FE0121084627
:10300000FFF738FE0421022007220D91CDE90B02C3
:10301000CDE90E2010901190012000900020CDE904
:10302000010110210391402104914FF4C071CDE9B9
:1030300005104FF40061CDE90710880009900BA836
:103040000A906846FDF762FF00F002F813B000BD79
:10305000F0B585B0012608240025CDE90064CDE94E
:10306000026520210120FDF723FF0028F9D16846E1
:10307000FDF73AFF0A2022480490401E0490FCD13C
:10308000022003958DE8510020210120FDF710FF5B
:103090000028F9D16846FDF727FF03200427039590
:1030A0008DE8910020210120FDF702FF0028F9D1D1
:1030B0006846FDF719FF20210120FDF7F9FE0028E1
:1030C000F9D16846FDF710FF40F23120CDE90260EA
:1030D000CDE9007420210120FDF7EAFE0028F9D196
:1030E0006846FDF701FF40F2AB20FDF77DFF202190
:1030F0000120FDF7DDFE0028F9D105B0F0BD00008C
:1031000040420F000029018802D041F0400101E057
:1031100021F04001018070471A4910B5884202D160
:103120000121841424E01849884202D101210414A9
:1031300004E0164988420AD10121C4132046FFF752
:10314000B1FD2046BDE810400021FFF7ABBD10499E
:10315000884202D1012144140AE00E49884202D17A
:1031600001210C0504E00C4988420AD101214C05DB
:103170002046FFF7AFFD2046BDE810400021FFF7D5
:10318000A9BD10BD0030014000380040003C0040A7
:10319000003401400050014000540140024600202C
:1031A00012890A4200D0012070478181704730B5F2
:1031B00002884C8802F441530A88CD8822438C88C7
:1031C0002C4322430C8922434C8922438C8922437D
:1031D000CC8922431A430280828B22F400628283CC
:1031E000098A018230BD00001CB504460E48012149
:1031F00050F82400FFF726FD0B480021083830F86E
:103200001400009001208DF804008DF806108DF850
:10321000070002208DF805000448694650F8240094
:10322000FDF7EAFE1CBD00007C4D000808000020F0
:103230000349044A31F8101052F8200041837047C6
:10324000744D000808000020044951F820104A6914
:10325000034B33F8100042404A61704708000020D9
:10326000744D0008704700000CB500202E490190F5
:1032700000900A6842F480320A604FF4A0430A6862
:1032800002F400320092019A521C0192009A12B983
:10329000019A9A42F3D10A68920306D50120224A84
:1032A0000090121D2148106000E000901E48403040
:1032B000026842F0805202601D48026842F44042B7
:1032C0000260194A083213681360136843F400431C
:1032D0001360136843F4A05313600B6843F08073CA
:1032E0000B600B689B01FCD5016841F480310160E3
:1032F0004168C903FCD5016841F4003101604168AF
:103300008903FCD50B4940F205700860106820F075
:1033100003001060106840F0020010601068C0F3F5
:1033200081000228FAD10CBD00380240085A40073B
:1033300000700040003C024038B52E48002100904B
:103340004FF4A073F022084601F022FA40F2DC505C
:10335000FDF758FB0020FFF747FF0120FFF744FF70
:1033600001226421244801F0C9FB4FF4FA740122C0
:103370002146224801F0C2FBFFF7AEF901212048A7
:1033800000F0FFF81E480021103000F0FAF81C4849
:10339000103001F0BDFC0121194800F0F2F8204680
:1033A000FDF730FB1648002114384FF6FF7281718B
:1033B0004180828003220280C17100F5037000F019
:1033C00079F80F48E03000F075F80E4800F072F818
:1033D0000B4801F09DFC084801F092FA074801F003
:1033E0008FFA0020FFF724FFBDE838400120FFF7E7
:1033F0001FBF000058680008614D0008674D0008B5
:10340000A0000020F00100202DE9F041104E70686E
:10341000401C706000240F4F15E000BF07EB04153F
:103420007168E86888420CD1286880476968E86854
:103430000844E860287A20B9286801F061FA641E1F
:10344000E4B2641CE4B230788442E7D3BDE8F08192
:1034500080000020B0030020124810B5016841F43C
:10346000700101601048016841F0010101600E4ADD
:1034700000210832116002680C4B1A400260031DE3
:103480000B4A1A60026822F48022026006480C305F
:103490000160FFF7E9FE03494FF0006080390860E2
:1034A00010BD000088ED00E000380240FFFFF6FE8E
:1034B0001030002410B504464EF6E630FEF7ECFF5F
:1034C000E3882289A1886088FEF74CFDE088801C93
:1034D00083B22089801C82B2A088401E81B260889D
:1034E000BDE81040401E80B2FEF73CBD012242758F
:1034F0008161704700224275C182704710B5044651
:103500004AF65550FEF7C8FFE3882289A1886088F3
:10351000FEF728FD4FF6FF70FEF7BEFFE088801C27
:1035200083B22089801C82B2A088401E81B260884C
:10353000BDE81040401E80B2FEF714BDF0B505AFE7
:1035400070CF01270770016142808380C4800581AC
:1035500006750021C160F0BDF0B505ACE0CC0024DB
:103560000470016142808380C58006810775C46054
:10357000F0BD02681AB14268D160416070470160D5
:10358000FBE738B504684AF65555002957D04FF681
:10359000FF70FEF73FFB52E0207810B101284DD1BB
:1035A0000BE0207D88B32846FEF776FFE38822896A
:1035B000A1886088FEF7D6FC40E0207D40B1284617
:1035C000FEF76AFFE3882289A1886088FEF7CAFCBB
:1035D000607D10B1012819D030E0E08AFEF75CFF71
:1035E000207D60B1E088C01E83B22089C01E82B2F7
:1035F000A088801C81B26088801C80B203E0E388D0
:103600002289A1886088FEF731FC17E0207D002820
:10361000A06900900CD02089C01E83B2E088C01E33
:1036200082B26088801C81B2A088801C80B203E0D6
:103630002389E2886188A08801F0AAF8E468002C58
:10364000AAD138BD0021016041607047FEE700004B
:103650000FB4084B10B504A902AA039800F024FC8B
:10366000044602A9002000F0C2FF204610BC5DF80D
:1036700014FB0000EF4500084100080218BF0420B9
:103680000A0E18BF40F001004FF07F4232EA0101FC
:1036900008BF40F00200012808BF05207047000065
:1036A00010B500222DED068BB0EE409A19EE100AEF
:1036B000F0EE608A18EE901AF7EE009AA0F5000C72
:1036C0004FF00073BCF1FE4FB0EE698A4FF07F44BB
:1036D00003EB410C04D2BCF1804F80F0058147E040
:1036E000BCF1804F44D300BF00F1FF43B3F1FE4F64
:1036F00024D200BFB0EEC99A19EE100AC1F3C75325
:103700007F2B0CDB972B74DAC3F196034FF0010C7F
:103710000CFA03F3A3F1010C1CEA010F09D00120FC
:1037200000F00EFBDFEDFE0ABDEC068B80EEA00A7A
:1037300010BD0B4218BF9FEDFB8AD5E04300002B64
:103740001CBF4FF08073B3EB400F0BD99FEDF60A0F
:103750006FF01A0229EE009A19EE100A10F0004FCD
:10376000C8D1C1E0A0F50003B3F1FE4F22D2BBE007
:1037700003EB4103B3F1007F12D3F5EEC08AF1EE03
:1037800010FA06D14300002B18BFB4EB400F76D8D7
:10379000AAE701F0004141F0FC5108EE901AA3E7BE
:1037A000B3F1807F06D218EE903AA3F5000308EE3D
:1037B000903A99E720F000446FF0FF43DFF86CC3C4
:1037C000E218624510D321F00042134463450BD345
:1037D000B0F17E5F18BF5FEA410350D0B4F1FF4FF4
:1037E00098BFB2F1FF4F05D939EE280ABDEC068B20
:1037F00010BD79E0B0F1FF4F0FD0C1F3C7527F2A5F
:1038000009DB972A11DAC2F19602012303FA02F2C8
:10381000531E0B4205D0002208E011F0004F54D196
:1038200028E00A4218BF012200D1022210F5000F41
:1038300013D028B3B0F1004F26D010F1814F4ED0F5
:103840004FF0FE42B2EB400F94BF01200020012256
:1038500002EBE171884238D10CE011F0004F02D048
:10386000012A37D031E0012A02BF9FEDB10ABDEC39
:10387000068B10BD9FEDAF0ABDEC068B10BD2EE090
:1038800011F0004F0CD120E0B1F1FF4F1DD011F528
:10389000000F05D011F0004F14D00AB1012A09D051
:1038A000022000F04DFADFED9E0A89EEA00ABDEC81
:1038B000068B10BD022000F043FA89EE890ABDECA8
:1038C000068B10BD0AB1012A04D09FED950ABDEC0C
:1038D000068B10BD9FED980ABDEC068B10BDBDECAC
:1038E000068BB7EE000A10BD944901449FED94AADF
:1038F000B1F5005F34D819EE100AFCF7FBFD9FED1F
:10390000921B53EC112BFCF70EFDFCF706FE00EEAC
:10391000100AF5EE000A00EE60AAF6EE000A20EEAC
:10392000001A40EE4A0A61EE601ADFED890A20EEC5
:10393000201ADFED880A60EE200A9FED870A41EE2B
:10394000800A31EE200A10EE100A00F500606FF3D5
:103950000B0000EE100A31EE401A71EE201A99E0C9
:1039600000F58021CB0C03F00F0100EE901AC3F399
:1039700007137F3BA0EBC350F8EEE00A00EE100AFD
:103980001A449FED761AB0EE692A40EE819A30EE25
:10399000291A70EE690A11EE100A00F500606FF343
:1039A0000B0001EE900A79EEE12A32EE803AC2EE87
:1039B000012A20EEA20A10EE100A00F500606FF353
:1039C0000B0000EE100A40EE610A40EE430A20EEC2
:1039D000A21A70EE010A60EEA00ADFED611A00EE95
:1039E000A1AA60EE021A30EE010A6AEE202A61EE08
:1039F000020A42EE800A31EEA00A10EE100A00F52B
:103A000000606FF30B0000EE100A31EEC01A71EE89
:103A1000200A9FED541A20EE011ADFED531A20EE12
:103A2000210ADFED521A00EEA10A71EE000A10EE33
:103A3000900A00F500606FF30B0000EE900A4C480E
:103A400031EE601A71EE001A784400EBC100D0ED3F
:103A5000002A90ED011A100100EE100AB8EEC02AFB
:103A600031EE810A30EE200A30EE220A30EE020AF0
:103A700010EE100A00F500606FF30B0000EE100A64
:103A800030EE422A32EE622A72EE600A70EEC10A0D
:103A900071EEE01A18EE900A00F500606FF30B006B
:103AA00000EE900A78EEE02A20EE202A20EE221A7C
:103AB00030EEA20A01EE801A32EE010A10EE100A70
:103AC00000F500606FF30B0000EE100A72EE400A82
:103AD00070EE811A70EE210AF5EEC00AF1EE10FACE
:103AE00034BF9FED241A9FED241A71EE200ABDEE1B
:103AF000E01A11EE100A01EE100A011100EE901A00
:103B0000B8EEC11AF8EEE00A30EE410A9FED1C1A39
:103B100030EE210ADFED191A00EE211A32E0000022
:103B200000000000000080BF0000004DFFFF3F00CC
:103B3000000080FF0000807F00000080001080C037
:103B4000ABAAAA3E00000000000000000000F03F09
:103B500000B0B841D49A38BB3BAAB8410000803DC0
:103B60007EE24C3E00B03842D49AB8BB3BAA384201
:103B700028DE0300000000BF0000003FFC5963374F
:103B8000C9FF753ADFED4A1A4A4900F00F0040EECE
:103B9000011A21EE800A794401EB800191ED001AAF
:103BA0004549794401EB8001D1ED001A434901EE0A
:103BB000801A794401EB800090ED000A31EE001A82
:103BC000B0EEE00ADFED3E1AB4EEE10AF1EE10FAD3
:103BD00010D29FED3C0A30EE800ADFED3B0A20EE6A
:103BE000200A68EE010ABDEC068BBCEEC00A20EE8E
:103BF000200A10BDDFED351A9FED359AB4EEE10ACB
:103C0000F1EE10FA2ED2BDEEE00A68EE010A10EED7
:103C1000100A00EBD0725110C90501F17E5100EE7F
:103C2000101AA0EB6200C00560EE200A00F17E5081
:103C300000EE100A60EE808A18EE900AB4EB400F96
:103C400025D018EE900A400011D018EE900AFFF728
:103C500013FD042808BF00F05BF8B0EE680ABDEC65
:103C6000068B10BDF5EEC00AF1EE10FA0FD202205D
:103C700000F066F800F04CF810EE101A18EE100A7A
:103C8000BDEC068B61F31E0000EE100A10BD022091
:103C900000F056F829EE090A18EE100ABDEC068B62
:103CA00010EE101A61F31E0000EE100A10BD0000A5
:103CB0001872313D9ADD0300CEDD03003EDD0300C6
:103CC0000000FC420000FE420000004B00004043A8
:103CD0000000007010B52DED028BB1EEC08A18EE19
:103CE000100A20F00040C0F1FF40C00F0AD010EED3
:103CF000100A20F00040C0F1FF40C00F04BF0120B7
:103D000000F01EF8B0EE480ABDEC028B10BD0000BA
:103D10009FED020A20EE000A70470000000000102C
:103D200002E008C8121F08C1002AFAD17047704784
:103D3000002001E001C1121F002AFBD170470000E2
:103D40000149086070470000880000202DE9FF5FEE
:103D5000DDE90220010DDDF838B0024310D10F98E3
:103D600001244CA2012808D0002100980F9BC0E933
:103D70000021C0E90243BDE8FF9F6FEA0B01F4E7B1
:103D8000A1F2FF3144F6105041430D140F98012861
:103D90000ED0A5EB0B00401C4FF000043E4EDFF8A8
:103DA000FC90B0F1000AA04605DACAF1000717E05E
:103DB000CBF10000F0E7074612E0F80707D02246F3
:103DC000334640464946FCF7B4FA804689462246C7
:103DD000334610461946FCF7ACFA04460E467F10EF
:103DE000002FEAD1DDE90201BAF1000F42464B464D
:103DF00002DAFCF79EFA01E0FCF70DFB04460E46E2
:103E00000022274BFCF7CAFC03D84FF0FF300146D5
:103E100007E00022234B20463146FCF7E3F9FCF78C
:103E2000A5FC102409E0002C0ADB0A220023FCF781
:103E3000A6FB019B30321A55641E50EA0102F2D1F2
:103E4000641C019AC4F1110314440F9A012A09D089
:103E50000122084301D15B450FDD4FF0000205F15F
:103E600001050DE0084303D1A3EB0B056D1E09E02E
:103E700000204FF0110B0F9088E701DA00226D1E31
:103E8000002A83D000980F99C0E90231C0E90045AB
:103E900071E7000030000000000024400000F03F07
:103EA0000000F0430000E03F2DE9FF4F95B09B4636
:103EB00089460646002512E2252878D10024761C82
:103EC000F94A2746012105943378203B01FA03F093
:103ED000104202D00443761CF6E730782A2811D02D
:103EE0006FF02F033078A0F13002092A16D8059A16
:103EF00044F0020402EB820203EB42021044761CFF
:103F00000590EFE759F8042B0592002A03DA504296
:103F100044F40054059044F00204761C30782E28B6
:103F200016D116F8010F44F004042A280DD06FF0C2
:103F30002F023078A0F13003092B09D807EB870353
:103F400002EB4303C718761CF3E759F8047B761C91
:103F500030786C280FD006DC4C2817D068280DD09C
:103F60006A2814D104E0742810D07A280FD10DE00B
:103F700044F400140AE044F4801401E044F44014D2
:103F80007278824202D1761C04F58014761C307857
:103F900066280BD013DC582877D009DC002875D0B0
:103FA0004528F6D04628F4D047281AD19FE118E0DA
:103FB000632835D0642879D0652812D197E170281C
:103FC00073D008DC6728F1D069286FD06E280DD037
:103FD0006F2806D1B5E073282CD0752875D07828C5
:103FE00074D05A46179990476D1C76E1C4F302507D
:103FF000022809D003280DD0D9F8001004280DD0CC
:104000000D6009F1040968E1D9F80010EA17C1E967
:104010000052F6E7D9F800100D80F2E70D70F0E7D6
:1040200019F8041B8DF8001000208DF80100EA46F5
:10403000012003E059F804AB4FF0FF3061074FF067
:10404000000102D40DE008F101018846B9420FDAFF
:104050008045F8DB1AF808100029F4D108E008F1CF
:10406000010188468142FADB1AF808100029F6D1CE
:1040700005985B46A0EB080721463846179A00F0E2
:104080009EFA284400EB080507E04DE02BE10DE027
:104090001AF8010B5A4617999047B8F10108F7D260
:1040A0005B4621463846179A14E142E00A22009204
:1040B000C4F302524FF0000A022A08D059F804CB88
:1040C000032A4FEAEC710AD00DE029E02AE009F159
:1040D000070121F00702F2E802C1914609E00FFA58
:1040E0008CFC4FEAEC71042A03D14FFA8CFC4FEAA6
:1040F000EC71002907DA0A460021DCF1000C61EBC3
:1041000002012D2202E0220504D52B228DF8042085
:10411000012203E0E20701D02022F7E7904653E0B6
:104120000A2102E010220DE010214FF0000A009158
:104130000BE010224FF0000A44F00404082700921C
:1041400003E008224FF0000A0092C4F30252022A50
:1041500005D059F804CB0021032A08D009E009F161
:10416000070121F00702F2E802C1914605E01FFABB
:104170008CFC042A01D10CF0FF0C4FF00008220740
:1041800022D5702827D0009B83F0100353EA0A033E
:1041900009D15CEA010206D030228DF804208DF8A6
:1041A000050002229046009B83F0080353EA0A03AD
:1041B0000AD15CEA010201D1620705D530228DF8EF
:1041C00004204FF001087F1E582809D037A0039023
:1041D0000EA8029013E040228DF804200122E1E7AE
:1041E00037A0F4E753466046009AFCF7C8F98446C6
:1041F0000398825C0298A0F10100029002705CEAD0
:104200000100EFD1029806A9A1EB000000F1200AFD
:10421000600702D524F4803400E00127574502DD11
:10422000A7EB0A0000E0002000EB0A0100900598CF
:104230004144A0EB01000590E00306D45B46214613
:10424000179A059800F0BBF90544002706E001A87D
:104250005A46C05D179990476D1C7F1C4745F6DB99
:10426000E0030CD55B462146179A059800F0A7F9A4
:10427000054404E030205A46179990476D1C009978
:10428000481E00900029F5DC08E0029802995A4681
:104290000078491C0291179990476D1CBAF10001F2
:1042A000AAF1010AF1DC6BE1092801003031323357
:1042B0003435363738396162636465660000000062
:1042C000303132333435363738394142434445464C
:1042D0000000000000F060F9054406F101063078A6
:1042E00000287FF4E9AD19B02846BDE8F08F6207D9
:1042F00000D4062709F1070222F0070CFCE802238C
:10430000E14603F000485FEA080C02D00FF27C2C73
:104310000DE05FEA045C02D50FF2742C07E05FEA5F
:10432000C47C02D00FF26C2C01E0AFF2700C4FF0A5
:10433000FF3823F00043CDF850C065280CD006DCD0
:10434000452809D046281DD047283ED13EE06628A2
:1043500018D0672839D139E00021112F01DB112055
:1043600000E0781CCDE9000106A90EA8FFF7EEFCDD
:10437000DDE90F010E9A03910021009207F1010A75
:1043800004914EE04FF000400097CDE9011006A9DE
:104390000EA8FFF7DBFCDDE90F0203920E9B1199DB
:1043A0000022DDF80CA00093049219B907F1010175
:1043B00000EB010AB7EB0A0004D4C0F1FF3007F1AB
:1043C000010A0490AAEB0700019046E0012F00DAF1
:1043D00001270021112F01DD112000E03846CDE931
:1043E000000106A90EA8FFF7B1FCDDE90F010E9A46
:1043F0000391002104910092BA4621070CD403993D
:10440000514500DA8A46BAF1010F05DD009AAAF19A
:104410000101515C302908D0B84202DA10F1040FD2
:1044200006DA0121CDE9011017E0AAF10101E9E75F
:10443000002805DC049901440491AAEB000102E084
:10444000411C514500DD8A460499A0EB010000F1B2
:10445000010001904FF000400290200704D4019821
:10446000504501DBCDF8048000208DF84F00029804
:104470000DF14F07B0F1004F25D02B200E90029880
:104480004FF0020800280CDA404202902D200E90D6
:1044900007E00A210298FCF75CF83031029007F837
:1044A000011DB8F10001A8F10108F2DC0298002812
:1044B000EFD1791E0E980870307800F0200040F09F
:1044C000450007F8020D12A8A0EB070000F107084D
:1044D0001498007800B1012000EB0A01019801EB6B
:1044E000E07105984144A0EB0100A0F101000590A6
:1044F000E00306D45B462146179A059800F05FF862
:1045000005441498007820B15A461799904705F150
:104510000105E00323D55B462146179A059800F074
:104520004EF805441BE00498002807DBDDE9030191
:10453000884203DD0098405C179901E0179930200C
:104540005A46904704986D1C401C04900198401EE8
:10455000019004D12E205A46179990476D1CBAF14C
:104560000001AAF1010ADEDC05E017F8010B5A464A
:10457000179990476D1CB8F10001A8F10108F4DC0F
:104580005B462146179A0598A4E600002D0000001E
:104590002B000000200000002DE9F041044600251A
:1045A0001E461746880405D406E039462020B04749
:1045B00005F10105641EF8D52846BDE8F0812DE916
:1045C000F041044600251E469046C80301D5302719
:1045D00000E02027880405D506E041463846B0476C
:1045E00005F10105641EF8D52846BDE8F0810A688A
:1045F000531C0B60107070470B4910B548888880B9
:10460000FDF74AFF084834300189491E8BB2C18842
:10461000491E8AB281884088491C401CBDE8104070
:1046200089B280B2FDF722BC8C0000200149002035
:1046300008737047B000002001B581B004490198AB
:1046400048430090002801D0401EFAE70CBD00004E
:10465000A086010001B581B001980090002801D02A
:10466000401EFAE70CBD0000124810B51049026860
:104670008A600068C86001F1BC00FEF73FFF0E4889
:10468000FEF73CFF0C481C30FEF738FF0A48383074
:10469000FEF734FF08485430FEF730FF064870300C
:1046A000FEF72CFF0448BDE810408C30FEF726BF13
:1046B0008C00002054680008D401002010B5164872
:1046C000FEF71CFF14481C30FEF718FF1248383064
:1046D000FEF714FF10485430FEF710FF0E487030FC
:1046E000FEF70CFF0C488C30FEF708FF0A48A83094
:1046F000FEF704FF0848C430FEF700FF0648E0302C
:10470000FEF7FCFE0448FC30FEF7F8FEBDE8104062
:104710000248FEF7F3BE00007C0200209403002054
:1047200070B517488079F0B10020FDF7B5FE144848
:104730001430816820308A88838849884088D31A59
:104740000A1A10A11148FEF783FF104D0024C4EB94
:10475000C4012A5DA5310520FDF78CFA641CE4B282
:10476000072CF4D370BD0024C4EBC401A531202272
:104770000520FDF77FFA641CE4B2072CF4D370BD6A
:104780008C0000202533642C253364007800002041
:104790002DE9F0471F4616460C4680460025DDF8F9
:1047A0002090FDF7C5FEC8EB081100EB4112C6F1E1
:1047B000F00311E0781B401E704309EB400100201C
:1047C00006E000BF31F810C022F814C0641C401C81
:1047D000B042F7D31C446D1CBD42EBD3BDE8F0875B
:1047E000054910B50520C871FFF73EFFBDE8104030
:1047F0000248FEF75FBE00008C000020440200204B
:10480000054910B50020C871FFF72EFFBDE8104024
:104810000248FEF74FBE00008C000020F00100208F
:10482000054910B50620C871FFF71EFFBDE810400E
:104830000248FEF73FBE00008C000020600200200E
:10484000054910B50420C871FFF70EFFBDE8104000
:104850000248FEF72FBE00008C0000202802002036
:10486000054910B50120C871FFF7FEFEBDE81040F4
:104870000248FEF71FBE00008C000020D40100207B
:10488000054910B50320C871FFF7EEFEBDE81040E2
:104890000248FEF70FBE00008C0000200C02002032
:1048A000054910B50220C871FFF7DEFE0248BDE8D9
:1048B0001040BC30FEF7FEBD8C00002001490020F6
:1048C00008737047A00000200B4910B5887938B1F3
:1048D000002088710028094804D0FEF7EBFD05E0B0
:1048E0000120F6E7FEF70AFEFFF71AFFBDE81040C9
:1048F0004FF4FA70FCF786B88C000020B801002055
:10490000F0B5114C0021114B227806E003EB0115A4
:104910002D68854203D0491CC9B29142F6D3914219
:1049200001D10020F0BD521ED0B2207008E000BFBF
:1049300003EB011202F11004491CF0CCF0C2C9B221
:104940008142F5D30120F0BD80000020B00300209B
:10495000FCF7BCFB08B1FEF7EFFCFEE7114810B511
:104960000F4902688A600068C8600F4A4FF6FF70FE
:10497000888012680A61FDF78FFD0948343001898B
:10498000491E8BB2C188491E8AB281884088491C61
:10499000401CBDE8104089B280B2FDF767BA000044
:1049A0008C00002054680008840000202DE9F041AC
:1049B0005048A0F12004A0F13407A5684388398845
:1049C0006A885E18964244D2C68833445B1A934282
:1049D0003FDD8388AA885E1896423AD2008918443F
:1049E000401A904235DDB87908B1FFF799FEF879A1
:1049F000414D4FF4FA7607282BD2DFE800F0042C63
:104A0000044C4C4C4C00022815D07888FDF744FD2E
:104A100038692968081A32280FD2B7F90800B0425D
:104A20000BD0A0684188B9818088F881FCF7DAF959
:104A3000F868B8600BE0B888E8E7A0684188398179
:104A40008188798181883A884088FDF7C3F9286890
:104A50003861BDE8F08138692968081A6428F8D9F6
:104A6000286838617888FDF717FDB7F90800B0426B
:104A7000A068418809D139818188798181883A8803
:104A80004088BDE8F041FDF7A5B9B9818088F8817B
:104A9000FCF7A8F92BE038692968081AB042D8D980
:104AA000286838617888FDF7F7FCB7F90800B0424C
:104AB000A068418803D1398180887881C9E7B981AC
:104AC0008088F881F879032806D0042807D00528C3
:104AD00008D006280BD108E0FCF73CF907E0FCF70A
:104AE00013F904E0FBF798FF01E0FCF74DF8F868D4
:104AF000B860AEE7C00000208400002030B5094C4B
:104B000023780A2B01D3002030BD074D05EB031598
:104B1000C5E900012A7260685B1C0844E8602370E4
:104B2000012030BD80000020B0030020054910B5F1
:104B300000204880FFF7C2FDBDE810400248FEF7A4
:104B4000B9BC00008C00002098020020054910B577
:104B50001F204880FFF7B2FDBDE810400248FEF775
:104B6000A9BC00008C000020D0020020054910B52F
:104B70004EF615604880FFF7A1FDBDE810400248E1
:104B8000FEF798BC8C000020B4020020054910B547
:104B900047F6FF704880FFF791FDBDE810400248DE
:104BA000FEF788BC8C00002040030020054910B5AA
:104BB0004FF4FC604880FFF781FDBDE810400248DB
:104BC000FEF778BC8C00002024030020054910B5B6
:104BD0004FF61F004880FFF771FDBDE81040024806
:104BE000FEF768BC8C00002008030020054910B5C2
:104BF0004EF243404880FFF761FDBDE81040024897
:104C0000FEF758BC8C00002094030020054910B525
:104C10004FF478404880FFF751FDBDE8104002484E
:104C2000FEF748BC8C000020EC020020054910B5BE
:104C300045F249004880FFF741FDBDE810400248B9
:104C4000FEF738BC8C00002078030020054910B521
:104C50004FF6FF704880FFF731FDBDE81040024875
:104C6000FEF728BC8C0000207C020020054910B50E
:104C70004FF6E0704880FFF721FDBDE81040024884
:104C8000FEF718BC8C0000205C030020084910B51A
:104C90000520088001F1D800FEF730FC0448F4300C
:104CA000FEF72CFCBDE810400248FEF703BC0000F4
:104CB0008C0000209C010020084910B503200880CA
:104CC00001F1D800FEF71AFC0448F430FEF7F2FBBD
:104CD000BDE810400248FEF711BC00008C00002027
:104CE0009C010020084910B50220088001F1D8007D
:104CF000FEF7E0FB0448F430FEF700FCBDE810408E
:104D00000248FEF7FBBB00008C0000209C01002045
:104D100070B5054601202873FCF72AFEA8600088BC
:104D2000D0B100262C6814E0A96860884A888242C5
:104D30000ED3E388184490420AD38888A188884219
:104D400006D322891144814202D32069012680477B
:104D5000E4680CB1002EE7D0287B0028DCD170BDC0
:104D60000020FEF771BA0120FEF76EBA00000600BF
:104D70000100010000200040010000004000000090
:104D800040000000000000000000000000000000E3
:104D90000000000000000000000000000000000013
:104DA0000000000000000000000000000000000003
:104DB000000000000000800180018001800180016E
:104DC00080018001800180018001800180018001DB
:104DD00000000000800180010000000000000000D1
:104DE0000000000000000000CC00CC00CC00CC0093
:104DF000CC00CC000000000000000000000000001B
:104E000000000000000000000000000000000000A2
:104E10000000000000000000000000000000000092
:104E2000600C600C600C30063006FE1FFE1F300662
:104E300038071803FE1FFE1F180318038C018C018E
:104E40008C01000000008000E003F80F9C0E8C1C19
:104E50008C188C009800F801E007800E801C8C18DC
:104E60008C189C18B80CF00FE00380008000000044
:104E7000000000000000000000000E181B0C110CC8
:104E800011061106110311039B018E01C038C06C7D
:104E900060446044304430441844186C0C380000BE
:104EA000000000000000E001F003380718061806B3
:104EB0003003F001F000F8009C310E33061E061C92
:104EC000061C063FFC73F0210000000000000000FB
:104ED00000000000000000000C000C000C000C00A2
:104EE0000C000C00000000000000000000000000AA
:104EF00000000000000000000000000000000000B2
:104F0000000000000000000200038001C000C0009B
:104F100060006000300030003000300030003000B1
:104F20003000300060006000C000C000800100035D
:104F300000020000000020006000C000800180012D
:104F40000003000300060006000600060006000637
:104F5000000600060003000380018001C00060001D
:104F60002000000000000000000000000000000021
:104F7000C000C000D806F807E00130033807000081
:104F80000000000000000000000000000000000021
:104F90000000000000000000000000000000000011
:104FA00080018001800180018001FC3FFC3F800185
:104FB00080018001800180010000000000000000ED
:104FC00000000000000000000000000000000000E1
:104FD00000000000000000000000000000000000D1
:104FE000000000000000800180010001000180003D
:104FF00000000000000000000000000000000000B1
:10500000000000000000000000000000E007E007D2
:105010000000000000000000000000000000000090
:105020000000000000000000000000000000000080
:105030000000000000000000000000000000000070
:10504000000000000000C000C000000000000000E0
:10505000000000000000000C000C00060006000626
:105060000003000300038003800180018001C00071
:10507000C000C000600060000000000000000000F0
:10508000000000000000E003F007380E180C0C18B8
:105090000C180C180C180C180C180C180C180C18F0
:1050A000180C380EF007E0030000000000000000BC
:1050B00000000000000000018001C001F001980123
:1050C00088018001800180018001800180018001D0
:1050D00080018001800180010000000000000000CC
:1050E000000000000000E003F80F180C0C180C186A
:1050F00000180018000C000600038001C0006000CA
:1051000030001800FC1FFC1F000000000000000021
:10511000000000000000E001F807180E0C0C0C0C59
:10512000000C0006C003C007000C001800180C1883
:105130000C18180CF807E003000000000000000045
:10514000000000000000000C000E000F000F800D9A
:10515000C00C600C600C300C180C0C0CFC3FFC3FBD
:10516000000C000C000C000C00000000000000000F
:10517000000000000000F80FF80F180018000C00E5
:10518000EC03FC071C0E001C0018001800180C187B
:105190001C0C180EF807E0030000000000000000DF
:1051A000000000000000C007F00F381C181818009D
:1051B0000C00CC03EC0F3C0E1C1C0C180C180C182B
:1051C000181C380EF007E00300000000000000008B
:1051D000000000000000FC1FFC1F000C0006000681
:1051E000000380038001C001C000E0006000600097
:1051F00070003000300030000000000000000000AF
:10520000000000000000E003F007380E180C180C36
:10521000180C3806F007F007180C0C180C180C18AE
:105220000C18380CF80FE00300000000000000002C
:10523000000000000000E003F007380E1C0C0C1802
:105240000C180C181C1C381EF81BE0190018000C58
:10525000000C1C0EF807F001000000000000000028
:10526000000000000000000000000000000000003E
:10527000800180010000000000000000000000002C
:10528000000000008001800100000000000000001C
:10529000000000000000000000000000000000000E
:1052A00080018001000000000000000000000000FC
:1052B000000000008001800100010001800000006A
:1052C00000000000000000000000000000000000DE
:1052D000000000000010001C800FE003F800180020
:1052E000F800E003800F001C001000000000000028
:1052F00000000000000000000000000000000000AE
:1053000000000000F81F000000000000F81F00006F
:10531000000000000000000000000000000000008D
:10532000000000000000000000000000000000007D
:105330000000000008003800F001C007001F00183E
:10534000001FC007F0013800080000000000000046
:10535000000000000000E003F80F180C0C180C18F7
:105360000018000C000600038001C000C000C0004F
:1053700000000000C000C0000000000000000000AD
:105380000000000000000000E00718180420C229F7
:10539000224A114409440944094409221113E20C28
:1053A000024004201818E007000000000000000080
:1053B00000000000000080038003C006C006C00695
:1053C000600C600C301830183018F83FF83F1C7033
:1053D0000C600C6006C006C0000000000000000069
:1053E000000000000000FC03FC0F0C0C0C180C1853
:1053F0000C180C0CFC07FC0F0C180C300C300C308B
:105400000C300C18FC1FFC0700000000000000001E
:10541000000000000000C007F01F38381C300C707E
:10542000066006000600060006000600060006608C
:105430000C701C30F01FE0070000000000000000AE
:10544000000000000000FE03FE0F060E06180618FE
:1054500006300630063006300630063006300618B4
:105460000618060EFE0FFE030000000000000000FC
:10547000000000000000FC3FFC3F0C000C000C0092
:105480000C000C00FC1FFC1F0C000C000C000C009E
:105490000C000C00FC3FFC3F00000000000000007E
:1054A000000000000000F83FF83F18001800180046
:1054B00018001800F81FF81F18001800180018002E
:1054C000180018001800180000000000000000007C
:1054D000000000000000E00FF83F3C780E6006E09E
:1054E00007C00300030003FE03FE03C007C006C09D
:1054F0000EC03CF0F83FE00F00000000000000008C
:105500000000000000000C300C300C300C300C306F
:105510000C300C30FC3FFC3F0C300C300C300C30AD
:105520000C300C300C300C3000000000000000008B
:1055300000000000000080018001800180018001E6
:105540008001800180018001800180018001800153
:105550008001800180018001000000000000000047
:10556000000000000000000600060006000600061D
:1055700000060006000600060006000600061806E3
:1055800018063807F003E0010000000000000000EA
:1055900000000000000006300618060C0606060390
:1055A0008601C60066007600DE008E010603060650
:1055B000060C06180630066000000000000000001F
:1055C0000000000000001800180018001800180063
:1055D000180018001800180018001800180018000B
:1055E00018001800F81FF81F00000000000000005D
:1055F0000000000000000EE01EF01EF01EF036D885
:1056000036D836D836D866CC66CC66CCC6C6C6C6C2
:10561000C6C6C6C686C386C30000000000000000E0
:105620000000000000000C301C303C303C306C307E
:105630006C30CC30CC308C310C330C330C360C3617
:105640000C3C0C3C0C380C3000000000000000004A
:10565000000000000000E007F81F1C380E70066014
:1056600003C003C003C003C003C003C003C006607F
:105670000E701C38F81FE00700000000000000005A
:10568000000000000000FC0FFC1F0C380C300C3038
:105690000C300C300C18FC1FFC070C000C000C002C
:1056A0000C000C000C000C000000000000000000CA
:1056B000000000000000E007F81F1C380E700660B4
:1056C00003E003C003C003C003C003C007E00663D8
:1056D0000E3F1C3CF83FE0F700C000000000000057
:1056E000000000000000FE0FFE1F063806300630E6
:1056F00006300638FE1FFE0706030606060C0618CF
:1057000006180630063006600000000000000000A9
:10571000000000000000E003F80F1C0C0C180C182F
:105720000C001C00F803E00F001E003806300630A5
:105730000E301C1CF80FE007000000000000000005
:10574000000000000000FE7FFE7F800180018001DC
:105750008001800180018001800180018001800141
:105760008001800180018001000000000000000035
:105770000000000000000C300C300C300C300C30FD
:105780000C300C300C300C300C300C300C300C3039
:105790000C301818F81FE00700000000000000009F
:1057A00000000000000003600630063006300C18D0
:1057B0000C180C18180C180C380E30063006700730
:1057C00060036003C001C001000000000000000091
:1057D0000000000000000360C361C361C361663361
:1057E000663366336633663366336C1B6C1B6C1B27
:1057F0002C1A3C1E380E380E00000000000000007D
:105800000000000000000FE00C7018303018700C21
:10581000600EC00780038003C003E006700C301CDC
:1058200018180C300E6007E00000000000000000B7
:1058300000000000000003C006600C301C3838185F
:10584000300C6006E007C003800180018001800108
:105850008001800180018001000000000000000044
:10586000000000000000FC7FFC7F0060003000189A
:10587000000C000600038001C0006000300018002A
:105880000C000600FE7FFE7F00000000000000000C
:10589000000000000000E003E00360006000600022
:1058A00060006000600060006000600060006000F8
:1058B0006000600060006000600060006000E00365
:1058C000E003000000003000300060006000600075
:1058D000C000C000C000C001800180018001000341
:1058E00000030003000600060000000000000000A6
:1058F000000000000000E003E003000300030003D9
:10590000000300030003000300030003000300037F
:105910000003000300030003000300030003E0038F
:10592000E003000000000000C001C001600360034C
:10593000600330063006180C180C00000000000050
:105940000000000000000000000000000000000057
:105950000000000000000000000000000000000047
:105960000000000000000000000000000000000037
:10597000000000000000FFFFFFFF0000000000002B
:105980000000000000000C000C000C000C000C00DB
:105990000C000000000000000000000000000000FB
:1059A00000000000000000000000000000000000F7
:1059B00000000000000000000000000000000000E7
:1059C000F003F8071C0C0C0C000FF00FF80C0C0C7B
:1059D0000C0C1C0FF80FF018000000000000000075
:1059E000000000000000180018001800180018003F
:1059F000D803F80F380C1818181818181818181891
:105A00001818380CF80FD803000000000000000040
:105A10000000000000000000000000000000000086
:105A2000C003F007300E180C1800180018001800FA
:105A3000180C300EF007C00300000000000000004A
:105A400000000000000000180018001800180018DE
:105A5000C01BF01F301C1818181818181818181820
:105A60001818301CF01FC01B0000000000000000D0
:105A70000000000000000000000000000000000026
:105A8000C003F00F300C1818F81FF81F180018008A
:105A90003818301CF00FC0070000000000000000A4
:105AA000000000000000800FC00FC000C000C00058
:105AB000F007F007C000C000C000C000C000C00078
:105AC000C000C000C000C0000000000000000000D6
:105AD00000000000000000000000000000000000C6
