:020000040800F2
:1000000000F102209D910F08AD880F08AF880F08FE
:10001000B1880F08B3880F08B5880F0800000000EA
:1000200000000000000000000000000023990C0800
:10003000B7880F0800000000C5980C08BD880F089D
:1000400001920F0805920F0809920F080D920F08F0
:1000500011920F0815920F08CD880F081D920F08F6
:1000600021920F0825920F0829920F082D920F0850
:1000700031920F0835920F0839920F083D920F0800
:1000800041920F0845920F0849920F084D920F08B0
:1000900051920F0855920F0859920F085D920F0860
:1000A00061920F0865920F0869920F086D920F0810
:1000B000D9880F0875920F0879920F087D920F0862
:1000C00081920F0885920F0889920F088D920F0870
:1000D00091920F0895920F0899920F089D920F0820
:1000E000A1920F085BCB0C08A9920F08AD920F08E4
:1000F000B1920F08B5920F08B9920F08BD920F0880
:10010000C1920F08C5920F08F1880F08CD920F0811
:10011000D1920F08D5920F08D9920F08DD920F08DF
:10012000E1920F0855890F08E9920F08ED920F0828
:10013000F1920F08F5920F08F9920F08FD920F083F
:1001400001930F0805930F0809930F080D930F08EB
:1001500011930F0815930F0819930F081D930F089B
:1001600021930F0825930F0829930F082D930F084B
:1001700031930F08DD880F0839930F083D930F085E
:1001800041930F0845930F0849930F084D930F08AB
:1001900051930F0855930F0859930F085D930F085B
:1001A00057890F0865930F085B890F08000000FF4F
:1001B000000000FF000000FF000000FF000000FF43
:1001C000000000FF000000FF000000FF000000FF33
:1001D000000000FF000000FF000000FF000000FF23
:1001E000000000FF000000FF000000FF000000FF13
:1001F000000000FF000000FF000000FF000000FF03
:10020000000000FF000000FF000000FF000000FFF2
:10021000000000FF000000FF000000FF000000FFE2
:10022000000000FF000000FF000000FF000000FFD2
:10023000000000FF000000FF000000FF000000FFC2
:10024000000000FF000000FF000000FF000000FFB2
:10025000000000FF000000FF000000FF000000FFA2
:10026000000000FF000000FF000000FF030002FD8F
:10027000260016E449002BB96A003E9383004D71B5
:100280009B005B53AF00673AC4007325D2007B1418
:10029000D2007B08D2007B00D2007B00D2007B0022
:1002A000D2007B00D2007B08D2007B14C4007325EF
:1002B000AF00673A9B005B53890050706A003E9222
:1002C00049002BB8260016E3030002FD000000FFE2
:1002D000000000FF000000FF000000FF000000FF22
:1002E000000000FF000000FF000000FF000000FF12
:1002F000000000FF000000FF000000FF000000FF02
:10030000000000FF000000FF000000FF000000FFF1
:10031000000000FF000000FF000000FF000000FFE1
:10032000000000FF000000FF000000FF000000FFD1
:10033000000000FF000000FF000000FF000000FFC1
:10034000000000FF000000FF000000FF000000FFB1
:10035000000000FF000000FF000000FF000000FFA1
:10036000000000FF000000FF000000FF000000FF91
:10037000000000FF000000FF000000FF000000FF81
:10038000000000FF000000FF000000FF000000FF71
:10039000000000FF000000FF000000FF000000FF61
:1003A000000000FF000000FF000000FF000000FF51
:1003B000000000FF000000FF000000FF000000FF41
:1003C000000000FF000000FF000000FF000000FF31
:1003D000000000FF000000FF000000FF000000FF21
:1003E000000000FF000000FF000000FF000000FF11
:1003F000000000FF000000FF000000FF000000FF01
:10040000000000FF000000FF000000FF000000FFF0
:10041000000000FF000000FF000000FF000000FFE0
:10042000000000FF000000FF000000FF000000FFD0
:10043000000000FF000000FF000000FF15000CF5A9
:1004400048002ABC78004680A7006248CD00781694
:10045000D2007B00D2007B00D2007B00D2007B0068
:10046000D2007B00D2007B00D2007B00D2007B0058
:10047000D2007B00D2007B00D2007B00D2007B0048
:10048000D2007B00D2007B00D2007B00D2007B0038
:10049000D2007B00D2007B00D2007B00D2007B0028
:1004A000D2007B00D2007B00CD007814A700624709
:1004B0007800468048002ABC15000CF4000000FFBC
:1004C000000000FF000000FF000000FF000000FF30
:1004D000000000FF000000FF000000FF000000FF20
:1004E000000000FF000000FF000000FF000000FF10
:1004F000000000FF000000FF000000FF000000FF00
:10050000000000FF000000FF000000FF000000FFEF
:10051000000000FF000000FF000000FF000000FFDF
:10052000000000FF000000FF000000FF000000FFCF
:10053000000000FF000000FF000000FF000000FFBF
:10054000000000FF000000FF000000FF000000FFAF
:10055000000000FF000000FF000000FF000000FF9F
:10056000000000FF000000FF000000FF000000FF8F
:10057000000000FF000000FF000000FF000000FF7F
:10058000000000FF000000FF000000FF000000FF6F
:10059000000000FF000000FF000000FF000000FF5F
:1005A000000000FF000000FF000000FF000000FF4F
:1005B000000000FF000000FF000000FF000000FF3F
:1005C000000000FF000000FF000000FF000000FF2F
:1005D000000000FF000000FF000000FF000000FF1F
:1005E000000000FF000000FF000000FF000000FF0F
:1005F000000000FF000000FF000000FF000000FFFF
:10060000000000FF000000FF000000FF020001FEEC
:100610002B0019DF6B003F90A8006246D0007A0AD9
:10062000D2007B00D2007B00D2007B00D2007B0096
:10063000D2007B00D2007B00D2007B00D2007B0086
:10064000D2007B00D2007B00D2007B00D2007B0076
:10065000D2007B00D2007B00D2007B00D2007B0066
:10066000D2007B00D2007B00D2007B00D2007B0056
:10067000D2007B00D2007B00D2007B00D2007B0046
:10068000D2007B00D2007B00D2007B00D2007B0036
:10069000D2007B00D2007B00D0007A09A80062461D
:1006A0006B003F902B0019DE020001FE000000FFEE
:1006B000000000FF000000FF000000FF000000FF3E
:1006C000000000FF000000FF000000FF000000FF2E
:1006D000000000FF000000FF000000FF000000FF1E
:1006E000000000FF161616F3737373A4ABABAB6375
:1006F000D6D6D645B8B8B8557B7B7B98121212F582
:10070000000000FF000000FF000000FF000000FFED
:10071000000000FF000000FF000000FF000000FFDD
:10072000000000FF000000FF000000FF000000FFCD
:10073000000000FF000000FF000000FF000000FFBD
:10074000000000FF000000FF000000FF000000FFAD
:10075000000000FF000000FF000000FF000000FF9D
:10076000000000FF000000FF000000FF000000FF8D
:10077000000000FF000000FF000000FF000000FF7D
:10078000000000FF000000FF000000FF000000FF6D
:10079000000000FF000000FF000000FF000000FF5D
:1007A000000000FF000000FF000000FF000000FF4D
:1007B000000000FF000000FF000000FF000000FF3D
:1007C000000000FF000000FF000000FF000000FF2D
:1007D000000000FF000000FF000000FF000000FF1D
:1007E000000000FF1F0012E871004291B5006A3757
:1007F000D2007B02D2007B00D2007B00D2007B00C3
:10080000D2007B00D2007B00D2007B00D2007B00B4
:10081000D2007B00D2007B00D2007B00D2007B00A4
:10082000D2007B00D2007B00D2007B00D2007B0094
:10083000D2007B00D2007B00D2007B00D2007B0084
:10084000D2007B00D2007B00D2007B00D2007B0074
:10085000D2007B00D2007B00D2007B00D2007B0064
:10086000D2007B00D2007B00D2007B00D2007B0054
:10087000D2007B00D2007B00D2007B00D2007B0044
:10088000D2007B00D2007B02B5006A377100429033
:100890001F0012E8000000FF000000FF000000FF42
:1008A000000000FF000000FF000000FF000000FF4C
:1008B000000000FF000000FF000000FF121212F70E
:1008C00094949487F9F9F914FFFFFF00FFFFFF00EC
:1008D000FFFFFF00FFFFFF00FFFFFF00E6E6E62946
:1008E000404040D9000000FF000000FF000000FF72
:1008F000000000FF000000FF000000FF000000FFFC
:10090000000000FF000000FF000000FF000000FFEB
:10091000000000FF000000FF000000FF000000FFDB
:10092000000000FF000000FF000000FF000000FFCB
:10093000000000FF000000FF000000FF000000FFBB
:10094000000000FF000000FF000000FF000000FFAB
:10095000000000FF000000FF000000FF000000FF9B
:10096000000000FF000000FF000000FF000000FF8B
:10097000000000FF000000FF000000FF000000FF7B
:10098000000000FF000000FF000000FF000000FF6B
:10099000000000FF000000FF000000FF000000FF5B
:1009A000000000FF000000FF000000FF000000FF4B
:1009B000000000FF000000FF050003FD48002ABF03
:1009C000A0005E55D2007B08D2007B00D2007B00E5
:1009D000D2007B00D2007B00D2007B00D2007B00E3
:1009E000D2007B00D2007B00D2007B00D2007B00D3
:1009F000D2007B00D2007B00D2007B00D2007B00C3
:100A0000D2007B00D2007B00D2007B00D2007B00B2
:100A1000D2007B00D2007B00D2007B00D2007B00A2
:100A2000D2007B00D2007B00D2007B00D2007B0092
:100A3000D2007B00D2007B00D2007B00D2007B0082
:100A4000D2007B00D2007B00D2007B00D2007B0072
:100A5000D2007B00D2007B00D2007B00D2007B0062
:100A6000D2007B00D2007B00D2007B00D2007B0052
:100A7000D2007B08A0005E5448002ABE050003FD9A
:100A8000000000FF000000FF000000FF000000FF6A
:100A9000000000FF000000FF4E4E4EC8E4E4E42AD0
:100AA000FFFFFF00FFFFFF00FFFFFF00FFFFFF0052
:100AB000FFFFFF00FFFFFF00FFFFFF00FFFFFF0042
:100AC000F1F1F11F262626E8000000FF000000FFDC
:100AD000000000FF000000FF000000FF000000FF1A
:100AE000000000FF000000FF000000FF000000FF0A
:100AF000000000FF000000FF000000FF000000FFFA
:100B0000000000FF000000FF000000FF000000FFE9
:100B1000000000FF000000FF000000FF000000FFD9
:100B2000000000FF000000FF000000FF000000FFC9
:100B3000000000FF000000FF000000FF000000FFB9
:100B4000000000FF000000FF000000FF000000FFA9
:100B5000000000FF000000FF000000FF000000FF99
:100B6000000000FF000000FF000000FF000000FF89
:100B7000000000FF000000FF000000FF000000FF79
:100B8000000000FF000000FF000000FF000000FF69
:100B90000D0007F9600038A5B8006C31D2007B0069
:100BA000D2007B00D2007B00D2007B00D2007B0011
:100BB000D2007B00D2007B00D2007B00D2007B0001
:100BC000D2007B00D2007B00D2007B00D2007B00F1
:100BD000D2007B00D2007B00D2007B00D2007B00E1
:100BE000D2007B00D2007B00D2007B00D2007B00D1
:100BF000D2007B00D2007B00D2007B00D2007B00C1
:100C0000D2007B00D2007B00D2007B00D2007B00B0
:100C1000D2007B00D2007B00D2007B00D2007B00A0
:100C2000D2007B00D2007B00D2007B00D2007B0090
:100C3000D2007B00D2007B00D2007B00D2007B0080
:100C4000D2007B00D2007B00D2007B00D2007B0070
:100C5000D2007B00D2007B00D2007B00B8006C3059
:100C6000600038A40D0007F9000000FF000000FF3D
:100C7000020202FE82828294FDFDFD08FFFFFF005A
:100C8000FFFFFF00FFFFFF00FFFFFF00FFFFFF0070
:100C9000FFFFFF00FFFFFF00FFFFFF00FFFFFF0060
:100CA000FFFFFF00C1C1C157010101FF000000FFAC
:100CB000000000FF000000FF000000FF000000FF38
:100CC000000000FF000000FF000000FF000000FF28
:100CD000000000FF000000FF000000FF000000FF18
:100CE000000000FF000000FF000000FF000000FF08
:100CF000000000FF000000FF000000FF000000FFF8
:100D0000000000FF000000FF000000FF000000FFE7
:100D1000000000FF000000FF000000FF000000FFD7
:100D2000000000FF000000FF000000FF000000FFC7
:100D3000000000FF000000FF000000FF000000FFB7
:100D4000000000FF000000FF000000FF000000FFA7
:100D5000000000FF000000FF000000FF000000FF97
:100D6000000000FF000000FF0D0007FA66003BA135
:100D7000C2007125D2007B00D2007B00D2007B0034
:100D8000D2007B00D2007B00D2007B00D2007B002F
:100D9000D2007B00D2007B00D2007B00D2007B001F
:100DA000D2007B00D2007B00D2007B00D2007B000F
:100DB000D2007B00D2007B00D2007B00D2007B00FF
:100DC000D2007B00D2007B00D2007B00D2007B00EF
:100DD000D2007B00D2007B00D2007B00D2007B00DF
:100DE000D2007B00D2007B00D2007B00D2007B00CF
:100DF000D2007B00D2007B00D2007B00D2007B00BF
:100E0000D2007B00D2007B00D2007B00D2007B00AE
:100E1000D2007B00D2007B00D2007B00D2007B009E
:100E2000D2007B00D2007B00D2007B00D2007B008E
:100E3000D2007B00D2007B00D2007B00D2007B007E
:100E4000D2007B00C200712566003BA0150810F699
:100E5000B3B3B36EFFFFFF01FFFFFF00FFFFFF0013
:100E6000FFFFFF00FFFFFF00FFFFFF00FFFFFF008E
:100E7000FFFFFF00FFFFFF00FFFFFF00FFFFFF007E
:100E8000FFFFFF00FFFFFF02474747C8000000FFCA
:100E9000000000FF000000FF000000FF000000FF56
:100EA000000000FF000000FF000000FF000000FF46
:100EB000000000FF000000FF000000FF000000FF36
:100EC000000000FF000000FF000000FF000000FF26
:100ED000000000FF000000FF000000FF000000FF16
:100EE000000000FF000000FF000000FF000000FF06
:100EF000000000FF000000FF000000FF000000FFF6
:100F0000000000FF000000FF000000FF000000FFE5
:100F1000000000FF000000FF000000FF000000FFD5
:100F2000000000FF000000FF000000FF000000FFC5
:100F3000000000FF000000FF000000FF000000FFB5
:100F4000020001FE540031B4BA006D2DD2007B00C6
:100F5000D2007B00D2007B00D2007B00D2007B005D
:100F6000D2007B00D2007B00D2007B00D2007B004D
:100F7000D2007B00D2007B00D2007B00D2007B003D
:100F8000D2007B00D2007B00D2007B00D2007B002D
:100F9000D2007B00D2007B00D2007B00D2007B001D
:100FA000D2007B00D2007B00D2007B00D2007B000D
:100FB000D2007B00D2007B00D2007B00D2007B00FD
:100FC000D2007B00D2007B00D2007B00D2007B00ED
:100FD000D2007B00D2007B00D2007B00D2007B00DD
:100FE000D2007B00D2007B00D2007B00D2007B00CD
:100FF000D2007B00D2007B00D2007B00D2007B00BD
:10100000D2007B00D2007B00D2007B00D2007B00AC
:10101000D2007B00D2007B00D2007B00D2007B009C
:10102000D2007B00D2007B00D3067E00ECABD11552
:10103000FFFFFF00FFFFFF00FFFFFF00FFFFFF00BC
:10104000FFFFFF00FFFFFF00FFFFFF00FFFFFF00AC
:10105000FFFFFF00FFFFFF00FFFFFF00FFFFFF009C
:10106000FFFFFF00FFFFFF00BBBBBB5C000000FFFA
:10107000000000FF000000FF000000FF000000FF74
:10108000000000FF000000FF000000FF000000FF64
:10109000000000FF000000FF000000FF000000FF54
:1010A000000000FF000000FF000000FF000000FF44
:1010B000000000FF000000FF000000FF000000FF34
:1010C000000000FF000000FF000000FF000000FF24
:1010D000000000FF000000FF000000FF000000FF14
:1010E000000000FF000000FF000000FF000000FF04
:1010F000000000FF000000FF000000FF000000FFF4
:10110000000000FF000000FF000000FF000000FFE3
:10111000000000FF000000FF000000FF2E001BDAAF
:10112000A700624BD2007B01D2007B00D2007B0083
:10113000D2007B00D2007B00D2007B00D2007B007B
:10114000D2007B00D2007B00D2007B00D2007B006B
:10115000D2007B00D2007B00D2007B00D2007B005B
:10116000D2007B00D2007B00D2007B00D2007B004B
:10117000D2007B00D2007B00D2007B00D2007B003B
:10118000D2007B00D2007B00D2007B00D2007B002B
:10119000D2007B00D2007B00D2007B00D2007B001B
:1011A000D2007B00D2007B00D2007B00D2007B000B
:1011B000D2007B00D2007B00D2007B00D2007B00FB
:1011C000D2007B00D2007B00D2007B00D2007B00EB
:1011D000D2007B00D2007B00D2007B00D2007B00DB
:1011E000D2007B00D2007B00D2007B00D2007B00CB
:1011F000D2007B00D2007B00D2007B00D2007B00BB
:10120000D2007B00D3067E00F0A9D300FFFFFF00D1
:10121000FFFFFF00FFFFFF00FFFFFF00FFFFFF00DA
:10122000FFFFFF00FFFFFF00FFFFFF00FFFFFF00CA
:10123000FFFFFF00FFFFFF00FFFFFF00FFFFFF00BA
:10124000FFFFFF00FFFFFF00F9F9F90E171717F472
:10125000000000FF000000FF000000FF000000FF92
:10126000000000FF000000FF000000FF000000FF82
:10127000000000FF000000FF000000FF000000FF72
:10128000000000FF000000FF000000FF000000FF62
:10129000000000FF000000FF000000FF000000FF52
:1012A000000000FF000000FF000000FF000000FF42
:1012B000000000FF000000FF000000FF000000FF32
:1012C000000000FF000000FF000000FF000000FF22
:1012D000000000FF000000FF000000FF000000FF12
:1012E000000000FF000000FF000000FF000000FF02
:1012F000000000FF0C0007F97A004786D0007A0A48
:10130000D2007B00D2007B00D2007B00D2007B00A9
:10131000D2007B00D2007B00D2007B00D2007B0099
:10132000D2007B00D2007B00D2007B00D2007B0089
:10133000D2007B00D2007B00D2007B00D2007B0079
:10134000D2007B00D2007B00D2007B00D2007B0069
:10135000D2007B00D2007B00D2007B00D2007B0059
:10136000D2007B00D2007B00D2007B00D2007B0049
:10137000D2007B00D2007B00D2007B00D2007B0039
:10138000D2007B00D2007B00D2007B00D2007B0029
:10139000D2007B00D2007B00D2007B00D2007B0019
:1013A000D2007B00D2007B00D2007B00D2007B0009
:1013B000D2007B00D2007B00D2007B00D2007B00F9
:1013C000D2007B00D2007B00D2007B00D2007B00E9
:1013D000D2007B00D2007B00D2007B00D2007B00D9
:1013E000D2027C00EFA2CF00FFFFFF00FFFFFF0053
:1013F000FFFFFF00FFFFFF00FFFFFF00FFFFFF00F9
:10140000FFFFFF00FFFFFF00FFFFFF00FFFFFF00E8
:10141000FFFFFF00FFFFFF00FFFFFF00FFFFFF00D8
:10142000FFFFFF00FFFFFF00FFFFFF00525252BD12
:10143000000000FF000000FF000000FF000000FFB0
:10144000000000FF000000FF000000FF000000FFA0
:10145000000000FF000000FF000000FF000000FF90
:10146000000000FF000000FF000000FF000000FF80
:10147000000000FF000000FF000000FF000000FF70
:10148000000000FF000000FF000000FF000000FF60
:10149000000000FF000000FF000000FF000000FF50
:1014A000000000FF000000FF000000FF000000FF40
:1014B000000000FF000000FF000000FF000000FF30
:1014C000000000FF000000FF000000FF000000FF20
:1014D0002F001CD5BA006D34D2007B00D2007B00F7
:1014E000D2007B00D2007B00D2007B00D2007B00C8
:1014F000D2007B00D2007B00D2007B00D2007B00B8
:10150000D2007B00D2007B00D2007B00D2007B00A7
:10151000D2007B00D2007B00D2007B00D2007B0097
:10152000D2007B00D2007B00D2007B00D2007B0087
:10153000D2007B00D2007B00D2007B00D2007B0077
:10154000D2007B00D2007B00D2007B00D2007B0067
:10155000D2007B00D2007B00D2007B00D2007B0057
:10156000D2007B00D2007B00D2007B00D2007B0047
:10157000D2007B00D2007B00D2007B00D2007B0037
:10158000D2007B00D2007B00D2007B00D2007B0027
:10159000D2007B00D2007B00D2007B00D2007B0017
:1015A000D2007B00D2007B00D2007B00D2007B0007
:1015B000D2007B00D2007B00D2007B00D2007B00F7
:1015C000EB8FC500FFFFFF00FFFFFF00FFFFFF00E5
:1015D000FFFFFF00FFFFFF00FFFFFF00FFFFFF0017
:1015E000FFFFFF00FFFFFF00FFFFFF00FFFFFF0007
:1015F000FFFFFF00FFFFFF00FFFFFF00FFFFFF00F7
:10160000FFFFFF00FFFFFF00FFFFFF008B8B8B88BA
:10161000000000FF000000FF000000FF000000FFCE
:10162000000000FF000000FF000000FF000000FFBE
:10163000000000FF000000FF000000FF000000FFAE
:10164000000000FF000000FF000000FF000000FF9E
:10165000000000FF000000FF000000FF000000FF8E
:10166000000000FF000000FF000000FF000000FF7E
:10167000000000FF000000FF000000FF000000FF6E
:10168000000000FF000000FF000000FF000000FF5E
:10169000000000FF000000FF000000FF000000FF4E
:1016A000000000FF000000FF060003FF69003E97F6
:1016B000D1007A0AD2007B00D2007B00D2007B00EE
:1016C000D2007B00D2007B00D2007B00D2007B00E6
:1016D000D2007B00D2007B00D2007B00D2007B00D6
:1016E000D2007B00D2007B00D2007B00D2007B00C6
:1016F000D2007B00D2007B00D2007B00D2007B00B6
:10170000D2007B00D2007B00D2007B00D2007B00A5
:10171000D2007B00D2007B00D2007B00D2007B0095
:10172000D2007B00D2007B00D2007B00D2007B0085
:10173000D2007B00D2007B00D2007B00D2007B0075
:10174000D2007B00D2007B00D2007B00D2007B0065
:10175000D2007B00D2007B00D2007B00D2007B0055
:10176000D2007B00D2007B00D2007B00D2007B0045
:10177000D2007B00D2007B00D2007B00D2007B0035
:10178000D2007B00D2007B00D2007B00D2007B0025
:10179000D2007B00D2007B00D2007B00E56FB4005A
:1017A000FFFFFF00FFFFFF00FFFFFF00FFFFFF0045
:1017B000FFFFFF00FFFFFF00FFFFFF00FFFFFF0035
:1017C000FFFFFF00FFFFFF00FFFFFF00FFFFFF0025
:1017D000FFFFFF00FFFFFF00FFFFFF00FFFFFF0015
:1017E000FFFFFF00FFFFFF00FFFFFF00B5B5B56281
:1017F000000000FF000000FF000000FF000000FFED
:10180000000000FF000000FF000000FF000000FFDC
:10181000000000FF000000FF000000FF000000FFCC
:10182000000000FF000000FF000000FF000000FFBC
:10183000000000FF000000FF000000FF000000FFAC
:10184000000000FF000000FF000000FF000000FF9C
:10185000000000FF000000FF000000FF000000FF8C
:10186000000000FF000000FF000000FF000000FF7C
:10187000000000FF000000FF000000FF000000FF6C
:10188000000000FF12000BF29D005C58D2007B00AC
:10189000D2007B00D2007B00D2007B00D2007B0014
:1018A000D2007B00D2007B00D2007B00D2007B0004
:1018B000D2007B00D2007B00D2007B00D2007B00F4
:1018C000D2007B00D2007B00D2007B00D2007B00E4
:1018D000D2007B00D2007B00D2007B00D2007B00D4
:1018E000D2007B00D2007B00D2007B00D2007B00C4
:1018F000D2007B00D2007B00D2007B00D2007B00B4
:10190000D2007B00D2007B00D2007B00D2007B00A3
:10191000D2007B00D2007B00D2007B00D2007B0093
:10192000D2007B00D2007B00D2007B00D2007B0083
:10193000D2007B00D2007B00D2007B00D2007B0073
:10194000D2007B00D2007B00D2007B00D2007B0063
:10195000D2007B00D2007B00D2007B00D2007B0053
:10196000D2007B00D2007B00D2007B00D2007B0043
:10197000D2007B00D2007B00DF4AA100FFFCFE000A
:10198000FFFFFF00FFFFFF00FFFFFF00FFFFFF0063
:10199000FFFFFF00FFFFFF00FFFFFF00FFFFFF0053
:1019A000FFFFFF00FFFFFF00FFFFFF00FFFFFF0043
:1019B000FFFFFF00FFFFFF00FFFFFF00FFFFFF0033
:1019C000FFFFFF00FFFFFF00FFFFFF00C4C4C4498B
:1019D000000000FF000000FF000000FF000000FF0B
:1019E000000000FF000000FF000000FF000000FFFB
:1019F000000000FF000000FF000000FF000000FFEB
:101A0000000000FF000000FF000000FF000000FFDA
:101A1000000000FF000000FF000000FF000000FFCA
:101A2000000000FF000000FF000000FF000000FFBA
:101A3000000000FF000000FF000000FF000000FFAA
:101A4000000000FF000000FF000000FF000000FF9A
:101A5000000000FF000000FF000000FF000000FF8A
:101A6000290018DCBF00702DD2007B00D2007B0063
:101A7000D2007B00D2007B00D2007B00D2007B0032
:101A8000D2007B00D2007B00D2007B00D2007B0022
:101A9000D2007B00D2007B00D2007B00D2007B0012
:101AA000D2007B00D2007B00D2007B00D2007B0002
:101AB000D2007B00D2007B00D2007B00D2007B00F2
:101AC000D2007B00D2007B00D2007B00D2007B00E2
:101AD000D2007B00D2007B00D2007B00D2007B00D2
:101AE000D2007B00D2007B00D2007B00D2007B00C2
:101AF000D2007B00D2007B00D2007B00D2007B00B2
:101B0000D2007B00D2007B00D2007B00D2007B00A1
:101B1000D2007B00D2007B00D2007B00D2007B0091
:101B2000D2007B00D2007B00D2007B00D2007B0081
:101B3000D2007B00D2007B00D2007B00D2007B0071
:101B4000D2007B00D2007B00D2007B00D2007B0061
:101B5000D2007B00D9299000FCF0F700FFFFFF00C6
:101B6000FFFFFF00FFFFFF00FFFFFF00FFFFFF0081
:101B7000FFFFFF00FFFFFF00FFFFFF00FFFFFF0071
:101B8000FFFFFF00FFFFFF00FFFFFF00FFFFFF0061
:101B9000FFFFFF00FFFFFF00FFFFFF00FFFFFF0051
:101BA000FFFFFF00FFFFFF00FFFFFF00E0E0E03F5F
:101BB000000000FF000000FF000000FF000000FF29
:101BC000000000FF000000FF000000FF000000FF19
:101BD000000000FF000000FF000000FF000000FF09
:101BE000000000FF000000FF000000FF000000FFF9
:101BF000000000FF000000FF000000FF000000FFE9
:101C0000000000FF000000FF000000FF000000FFD8
:101C1000000000FF000000FF000000FF000000FFC8
:101C2000000000FF000000FF000000FF000000FFB8
:101C3000000000FF000000FF000000FF410026C37D
:101C4000CB007715D2007B00D2007B00D2007B0056
:101C5000D2007B00D2007B00D2007B00D2007B0050
:101C6000D2007B00D2007B00D2007B00D2007B0040
:101C7000D2007B00D2007B00D2007B00D2007B0030
:101C8000D2007B00D2007B00D2007B00D2007B0020
:101C9000D2007B00D2007B00D2007B00D2007B0010
:101CA000D2007B00D2007B00D2007B00D2007B0000
:101CB000D2007B00D2007B00D2007B00D2007B00F0
:101CC000D2007B00D2007B00D2007B00D2007B00E0
:101CD000D2007B00D2007B00D2007B00D2007B00D0
:101CE000D2007B00D2007B00D2007B00D2007B00C0
:101CF000D2007B00D2007B00D2007B00D2007B00B0
:101D0000D2007B00D2007B00D2007B00D2007B009F
:101D1000D2007B00D2007B00D2007B00D2007B008F
:101D2000D2007B00D2007B00D2007B00D2007B007F
:101D3000D40E8200F8D5E900FFFFFF00FFFFFF008F
:101D4000FFFFFF00FFFFFF00FFFFFF00FFFFFF009F
:101D5000FFFFFF00FFFFFF00FFFFFF00FFFFFF008F
:101D6000FFFFFF00FFFFFF00FFFFFF00FFFFFF007F
:101D7000FFFFFF00FFFFFF00FFFFFF00FFFFFF006F
:101D8000FFFFFF00FFFFFF00FFFFFF00E0E0E03F7D
:101D9000000000FF000000FF000000FF000000FF47
:101DA000000000FF000000FF000000FF000000FF37
:101DB000000000FF000000FF000000FF000000FF27
:101DC000000000FF000000FF000000FF000000FF17
:101DD000000000FF000000FF000000FF000000FF07
:101DE000000000FF000000FF000000FF000000FFF7
:101DF000000000FF000000FF000000FF000000FFE7
:101E0000000000FF000000FF000000FF000000FFD6
:101E1000000000FF000000FF570033ACD1007A0A39
:101E2000D2007B00D2007B00D2007B00D2007B007E
:101E3000D2007B00D2007B00D2007B00D2007B006E
:101E4000D2007B00D2007B00D2007B00D2007B005E
:101E5000D2007B00D2007B00D2007B00D2007B004E
:101E6000D2007B00D2007B00D2007B00D2007B003E
:101E7000D2007B00D2007B00D2007B00D2007B002E
:101E8000D2007B00D2007B00D2007B00D2007B001E
:101E9000D2007B00D2007B00D2007B00D2007B000E
:101EA000D2007B00D2007B00D2007B00D2007B00FE
:101EB000D2007B00D2007B00D2007B00D2007B00EE
:101EC000D2007B00D2007B00D2007B00D2007B00DE
:101ED000D2007B00D2007B00D2007B00D2007B00CE
:101EE000D2007B00D2007B00D2007B00D2007B00BE
:101EF000D2007B00D2007B00D2007B00D2007B00AE
:101F0000D2007B00D2007B00D2007B00D2017C009B
:101F1000F0A8D200FFFFFF00FFFFFF00FFFFFF0060
:101F2000FFFFFF00FFFFFF00FFFFFF00FFFFFF00BD
:101F3000FFFFFF00FFFFFF00FFFFFF00FFFFFF00AD
:101F4000FFFFFF00FFFFFF00FFFFFF00FFFFFF009D
:101F5000FFFFFF00FFFFFF00FFFFFF00FFFFFF008D
:101F6000FFFFFF00FFFFFF00FFFFFF00D0D0D044C6
:101F7000000000FF000000FF000000FF000000FF65
:101F8000000000FF000000FF000000FF000000FF55
:101F9000000000FF000000FF000000FF000000FF45
:101FA000000000FF000000FF000000FF000000FF35
:101FB000000000FF000000FF000000FF000000FF25
:101FC000000000FF000000FF000000FF000000FF15
:101FD000000000FF000000FF000000FF000000FF05
:101FE000000000FF000000FF000000FF000000FFF5
:101FF000010001FF69003D9ED0007A05D2007B0000
:10200000D2007B00D2007B00D2007B00D2007B009C
:10201000D2007B00D2007B00D2007B00D2007B008C
:10202000D2007B00D2007B00D2007B00D2007B007C
:10203000D2007B00D2007B00D2007B00D2007B006C
:10204000D2007B00D2007B00D2007B00D2007B005C
:10205000D2007B00D2007B00D2007B00D2007B004C
:10206000D2007B00D2007B00D2007B00D2007B003C
:10207000D2007B00D2007B00D2007B00D2007B002C
:10208000D2007B00D2007B00D2007B00D2007B001C
:10209000D2007B00D2007B00D2007B00D2007B000C
:1020A000D2007B00D2007B00D2007B00D2007B00FC
:1020B000D2007B00D2007B00D2007B00D2007B00EC
:1020C000D2007B00D2007B00D2007B00D2007B00DC
:1020D000D2007B00D2007B00D2007B00D2007B00CC
:1020E000D2007B00D2007B00D2007B00E56AB20008
:1020F000FFFFFF00FFFFFF00FFFFFF00FFFFFF00EC
:10210000FFFFFF00FFFFFF00FFFFFF00FFFFFF00DB
:10211000FFFFFF00FFFFFF00FFFFFF00FFFFFF00CB
:10212000FFFFFF00FFFFFF00FFFFFF00FFFFFF00BB
:10213000FFFFFF00FFFFFF00FFFFFF00FFFFFF00AB
:10214000FFFFFF00FFFFFF00FFFFFF00B6B6B65620
:10215000000000FF000000FF000000FF000000FF83
:10216000000000FF000000FF000000FF000000FF73
:10217000000000FF000000FF000000FF000000FF63
:10218000000000FF000000FF000000FF000000FF53
:10219000000000FF000000FF000000FF000000FF43
:1021A000000000FF000000FF000000FF000000FF33
:1021B000000000FF000000FF000000FF000000FF23
:1021C000000000FF000000FF000000FF010001FF11
:1021D0007600459AD2007B03D2007B00D2007B00C0
:1021E000D2007B00D2007B00D2007B00D2007B00BB
:1021F000D2007B00D2007B00D2007B00D2007B00AB
:10220000D2007B00D2007B00D2007B00D2007B009A
:10221000D2007B00D2007B00D2007B00D2007B008A
:10222000D2007B00D2007B00D2007B00D2007B007A
:10223000D2007B00D2007B00D2007B00D2007B006A
:10224000D2007B00D2007B00D2007B00D2007B005A
:10225000D2007B00D2007B00D2007B00D2007B004A
:10226000D2007B00D2007B00D2007B00D2007B003A
:10227000D2007B00D2007B00D2007B00D2007B002A
:10228000D2007B00D2007B00D2007B00D2007B001A
:10229000D2007B00D2007B00D2007B00D2007B000A
:1022A000D2007B00D2007B00D2007B00D2007B00FA
:1022B000D2007B00D2007B00D2007B00D2007B00EA
:1022C000D2007B00D2007B00DA2F9300FDF5FA00EC
:1022D000FFFFFF00FFFFFF00FFFFFF00FFFFFF000A
:1022E000FFFFFF00FFFFFF00FFFFFF00FFFFFF00FA
:1022F000FFFFFF00FFFFFF00FFFFFF00FFFFFF00EA
:10230000FFFFFF00FFFFFF00FFFFFF00FFFFFF00D9
:10231000FFFFFF00FFFFFF00FFFFFF00FFFFFF00C9
:10232000FFFFFF00FFFFFF00FFFFFF009E9E9E726A
:10233000000000FF000000FF000000FF000000FFA1
:10234000000000FF000000FF000000FF000000FF91
:10235000000000FF000000FF000000FF000000FF81
:10236000000000FF000000FF000000FF000000FF71
:10237000000000FF000000FF000000FF000000FF61
:10238000000000FF000000FF000000FF000000FF51
:10239000000000FF000000FF000000FF000000FF41
:1023A000000000FF000000FF000000FF69003D9EEC
:1023B000D2007B03D2007B00D2007B00D2007B00E6
:1023C000D2007B00D2007B00D2007B00D2007B00D9
:1023D000D2007B00D2007B00D2007B00D2007B00C9
:1023E000D2007B00D2007B00D2007B00D2007B00B9
:1023F000D2007B00D2007B00D2007B00D2007B00A9
:10240000D2007B00D2007B00D2007B00D2007B0098
:10241000D2007B00D2007B00D2007B00D2007B0088
:10242000D2007B00D2007B00D2007B00D2007B0078
:10243000D2007B00D2007B00D2007B00D2007B0068
:10244000D2007B00D2007B00D2007B00D2007B0058
:10245000D2007B00D2007B00D2007B00D2007B0048
:10246000D2007B00D2007B00D2007B00D2007B0038
:10247000D2007B00D2007B00D2007B00D2007B0028
:10248000D2007B00D2007B00D2007B00D2007B0018
:10249000D2007B00D2007B00D2007B00D2007B0008
:1024A000D2007B00D40A8000F7D2E700FFFFFF00D4
:1024B000FFFFFF00FFFFFF00FFFFFF00FFFFFF0028
:1024C000FFFFFF00FFFFFF00FFFFFF00FFFFFF0018
:1024D000FFFFFF00FFFFFF00FFFFFF00FFFFFF0008
:1024E000FFFFFF00FFFFFF00FFFFFF00FFFFFF00F8
:1024F000FFFFFF00FFFFFF00FFFFFF00FFFFFF00E8
:10250000FFFFFF00FFFFFF00FFFFFF007A7A7A97CF
:10251000000000FF000000FF000000FF000000FFBF
:10252000000000FF000000FF000000FF000000FFAF
:10253000000000FF000000FF000000FF000000FF9F
:10254000000000FF000000FF000000FF000000FF8F
:10255000000000FF000000FF000000FF000000FF7F
:10256000000000FF000000FF000000FF000000FF6F
:10257000000000FF000000FF000000FF000000FF5F
:10258000000000FF000000FF570033ACD0007A05C8
:10259000D2007B00D2007B00D2007B00D2007B0007
:1025A000D2007B00D2007B00D2007B00D2007B00F7
:1025B000D2007B00D2007B00D2007B00D2007B00E7
:1025C000D2007B00D2007B00D2007B00D2007B00D7
:1025D000D3057E00DB349600E466B000EA85C000D7
:1025E000EC95C800ED99CA00EB8EC400E87CBB00F6
:1025F000E361AD00DD3E9B00D6178700D2017B0072
:10260000D2007B00D2007B00D2007B00D2007B0096
:10261000D2007B00D2007B00D2007B00D2007B0086
:10262000D2007B00D2007B00D2007B00D2007B0076
:10263000D2007B00D2007B00D2007B00D2007B0066
:10264000D2007B00D2007B00D2007B00D2007B0056
:10265000D2007B00D2007B00D2007B00D2007B0046
:10266000D2007B00D2007B00D2007B00D2007B0036
:10267000D2007B00D2007B00D2007B00D2007B0026
:10268000D2007B00EC90C600FFFFFF00FFFFFF00C1
:10269000FFFFFF00FFFFFF00FFFFFF00FFFFFF0046
:1026A000FFFFFF00FFFFFF00FFFFFF00FFFFFF0036
:1026B000FFFFFF00FFFFFF00FFFFFF00FFFFFF0026
:1026C000FFFFFF00FFFFFF00FFFFFF00FFFFFF0016
:1026D000FFFFFF00FFFFFF00FFFFFF00FFFFFF0006
:1026E000FFFFFF00FFFFFF00FFFFFF00794664953B
:1026F000000000FF000000FF000000FF000000FFDE
:10270000000000FF000000FF000000FF000000FFCD
:10271000000000FF000000FF000000FF000000FFBD
:10272000000000FF000000FF000000FF000000FFAD
:10273000000000FF000000FF000000FF000000FF9D
:10274000000000FF000000FF000000FF000000FF8D
:10275000000000FF000000FF000000FF000000FF7D
:10276000000000FF410026C3D1007A0AD2007B009E
:10277000D2007B00D2007B00D2007B00D2007B0025
:10278000D2007B00D2007B00D2007B00D2007B0015
:10279000D2007B00D2007B00D2007B00D2007B0005
:1027A000D2007B00D2007B00D50F8300E983BF00FD
:1027B000FBE6F200FFFFFF00FFFFFF00FFFFFF004F
:1027C000FFFFFF00FFFFFF00FFFFFF00FFFFFF0015
:1027D000FFFFFF00FFFFFF00FEFBFD00FAE1EF003F
:1027E000F0AAD300E56DB300DA2B9200D2027C0090
:1027F000D2007B00D2007B00D2007B00D2007B00A5
:10280000D2007B00D2007B00D2007B00D2007B0094
:10281000D2007B00D2007B00D2007B00D2007B0084
:10282000D2007B00D2007B00D2007B00D2007B0074
:10283000D2007B00D2007B00D2007B00D2007B0064
:10284000D2007B00D2007B00D2007B00D2007B0054
:10285000D2007B00D2007B00D2007B00D2007B0044
:10286000DE449E00FEFCFD00FFFFFF00FFFFFF00B7
:10287000FFFFFF00FFFFFF00FFFFFF00FFFFFF0064
:10288000FFFFFF00FFFFFF00FFFFFF00FFFFFF0054
:10289000FFFFFF00FFFFFF00FFFFFF00FFFFFF0044
:1028A000FFFFFF00FFFFFF00FFFFFF00FFFFFF0034
:1028B000FFFFFF00FFFFFF00FFFFFF00FFFFFF0024
:1028C000FFFFFF00FFFFFF00FEF7FB00D30E8109B3
:1028D000470029C1000000FF000000FF000000FFCA
:1028E000000000FF000000FF000000FF000000FFEC
:1028F000000000FF000000FF000000FF000000FFDC
:10290000000000FF000000FF000000FF000000FFCB
:10291000000000FF000000FF000000FF000000FFBB
:10292000000000FF000000FF000000FF000000FFAB
:10293000000000FF000000FF000000FF000000FF9B
:10294000290018DCCB007715D2007B00D2007B0079
:10295000D2007B00D2007B00D2007B00D2007B0043
:10296000D2007B00D2007B00D2007B00D2007B0033
:10297000D2007B00D2007B00D2007B00D2007B0023
:10298000D2007B00D9268F00F9DFEE00FFFFFF00A9
:10299000FFFFFF00FFFFFF00FFFFFF00FFFFFF0043
:1029A000FFFFFF00FFFFFF00FFFFFF00FFFFFF0033
:1029B000FFFFFF00FFFFFF00FFFFFF00FFFFFF0023
:1029C000FFFFFF00FFFFFF00FFFEFF00F9E0EF0049
:1029D000EC95C800DE459F00D3057E00D2007B0049
:1029E000D2007B00D2007B00D2007B00D2007B00B3
:1029F000D2007B00D2007B00D2007B00D2007B00A3
:102A0000D2007B00D2007B00D2007B00D2007B0092
:102A1000D2007B00D2007B00D2007B00D2007B0082
:102A2000D2007B00D2007B00D2007B00D2007B0072
:102A3000D2007B00D2007B00D2007B00D50E82004A
:102A4000F9DDED00FFFFFF00FFFFFF00FFFFFF00CC
:102A5000FFFFFF00FFFFFF00FFFFFF00FFFFFF0082
:102A6000FFFFFF00FFFFFF00FFFFFF00FFFFFF0072
:102A7000FFFFFF00FFFFFF00FFFFFF00FFFFFF0062
:102A8000FFFFFF00FFFFFF00FFFFFF00FFFFFF0052
:102A9000FFFFFF00FFFFFF00FFFFFF00FFFFFF0042
:102AA000FFFFFF00FFFFFF00F5C8E200D2007B0040
:102AB000CB0077152F001CDB000000FF000000FF9B
:102AC000000000FF000000FF000000FF000000FF0A
:102AD000000000FF000000FF000000FF000000FFFA
:102AE000000000FF000000FF000000FF000000FFEA
:102AF000000000FF000000FF000000FF000000FFDA
:102B0000000000FF000000FF000000FF000000FFC9
:102B1000000000FF000000FF000000FF12000BF3A8
:102B2000BF00702DD2007B00D2007B00D2007B0062
:102B3000D2007B00D2007B00D2007B00D2007B0061
:102B4000D2007B00D2007B00D2007B00D2007B0051
:102B5000D2007B00D2007B00D2007B00D2007B0041
:102B6000D2007B00F2B4D800FFFFFF00FFFFFF00A0
:102B7000FFFFFF00FFFFFF00FFFFFF00FFFFFF0061
:102B8000FFFFFF00FFFFFF00FFFFFF00FFFFFF0051
:102B9000FFFFFF00FFFFFF00FFFFFF00FFFFFF0041
:102BA000FFFFFF00FFFFFF00FFFFFF00FFFFFF0031
:102BB000FFFFFF00FFFFFF00FBE8F300EC93C700FF
:102BC000DB349600D2007B00D2007B00D2007B0079
:102BD000D2007B00D2007B00D2007B00D2007B00C1
:102BE000D2007B00D2007B00D2007B00D2007B00B1
:102BF000D2007B00D2007B00D2007B00D2007B00A1
:102C0000D2007B00D2007B00D2007B00D2007B0090
:102C1000D2007B00D2007B00D2007B00EC94C80085
:102C2000FFFFFF00FFFFFF00FFFFFF00FFFFFF00B0
:102C3000FFFFFF00FFFFFF00FFFFFF00FFFFFF00A0
:102C4000FFFFFF00FFFFFF00FFFFFF00FFFFFF0090
:102C5000FFFFFF00FFFFFF00FFFFFF00FFFFFF0080
:102C6000FFFFFF00FFFFFF00FFFFFF00FFFFFF0070
:102C7000FFFFFF00FFFFFF00FFFFFF00FFFFFF0060
:102C8000FFFFFF00FFFFFF00E981BE00D2007B00D5
:102C9000D2007B00BF00702B12000BF2000000FF7F
:102CA000000000FF000000FF000000FF000000FF28
:102CB000000000FF000000FF000000FF000000FF18
:102CC000000000FF000000FF000000FF000000FF08
:102CD000000000FF000000FF000000FF000000FFF8
:102CE000000000FF000000FF000000FF000000FFE8
:102CF000000000FF000000FF060003FF9D005C587D
:102D0000D2007B00D2007B00D2007B00D2007B008F
:102D1000D2007B00D2007B00D2007B00D2007B007F
:102D2000D2007B00D2007B00D2007B00D2007B006F
:102D3000D2007B00D2007B00D2007B00D2007B005F
:102D4000D3087F00FDF2F800FFFFFF00FFFFFF0048
:102D5000FFFFFF00FFFFFF00FFFFFF00FFFFFF007F
:102D6000FFFFFF00FFFFFF00FFFFFF00FFFFFF006F
:102D7000FFFFFF00FFFFFF00FFFFFF00FFFFFF005F
:102D8000FFFFFF00FFFFFF00FFFFFF00FFFFFF004F
:102D9000FFFFFF00FFFFFF00FFFFFF00FFFFFF003F
:102DA000FFFEFF00F7D0E700E468B100D40C81001B
:102DB000D2007B00D2007B00D2007B00D2007B00DF
:102DC000D2007B00D2007B00D2007B00D2007B00CF
:102DD000D2007B00D2007B00D2007B00D2007B00BF
:102DE000D2007B00D2007B00D2007B00D2007B00AF
:102DF000D2007B00D2007B00DD3D9B00FFFCFE008B
:102E0000FFFFFF00FFFFFF00FFFFFF00FFFFFF00CE
:102E1000FFFFFF00FFFFFF00FFFFFF00FFFFFF00BE
:102E2000FFFFFF00FFFFFF00FFFFFF00FFFFFF00AE
:102E3000FFFFFF00FFFFFF00FFFFFF00FFFFFF009E
:102E4000FFFFFF00FFFFFF00FFFFFF00FFFFFF008E
:102E5000FFFFFF00FFFFFF00FFFFFF00FFFFFF007E
:102E6000FFFFFF00FFFFFF00DB349500D2007B0077
:102E7000D2007B00D2007B00A3005F56060003FF58
:102E8000000000FF000000FF000000FF000000FF46
:102E9000000000FF000000FF000000FF000000FF36
:102EA000000000FF000000FF000000FF000000FF26
:102EB000000000FF000000FF000000FF000000FF16
:102EC000000000FF000000FF000000FF000000FF06
:102ED000000000FF000000FF69003D97D2007B006A
:102EE000D2007B00D2007B00D2007B00D2007B00AE
:102EF000D2007B00D2007B00D2007B00D2007B009E
:102F0000D2007B00D2007B00D2007B00D2007B008D
:102F1000D2007B00D2007B00D2007B00D2007B007D
:102F2000D50F8200FEF9FC00FFFFFF00FFFFFF004E
:102F3000FFFFFF00FFFFFF00FFFFFF00FFFFFF009D
:102F4000FFFFFF00FFFFFF00FFFFFF00FFFFFF008D
:102F5000FFFFFF00FFFFFF00FFFFFF00FFFFFF007D
:102F6000FFFFFF00FFFFFF00FFFFFF00FFFFFF006D
:102F7000FFFFFF00FFFFFF00FFFFFF00FFFFFF005D
:102F8000FFFFFF00FFFFFF00FFFFFF00FCEFF70068
:102F9000EA8AC300D71C8A00D2007B00D2007B00E3
:102FA000D2007B00D2007B00D2007B00D2007B00ED
:102FB000D2007B00D2007B00D3037D00ED9ACB00D2
:102FC000E259A900D2017B00D2007B00D2007B0035
:102FD000D2007B00D3077F00F7D4E900FFFFFF009A
:102FE000FFFFFF00FFFFFF00FFFFFF00FFFFFF00ED
:102FF000FFFFFF00FFFFFF00FFFFFF00FFFFFF00DD
:10300000FFFFFF00FFFFFF00FFFFFF00FFFFFF00CC
:10301000FFFFFF00FFFFFF00FFFFFF00FFFFFF00BC
:10302000FFFFFF00FFFFFF00FFFFFF00FFFFFF00AC
:10303000FFFFFF00FFFFFF00FFFFFF00FFFFFF009C
:10304000FFFFFF00F8D9EB00D2037C00D2007B0029
:10305000D2007B00D2007B00D2007B006F00419544
:10306000000000FF000000FF000000FF000000FF64
:10307000000000FF000000FF000000FF000000FF54
:10308000000000FF000000FF000000FF000000FF44
:10309000000000FF000000FF000000FF000000FF34
:1030A000000000FF000000FF000000FF000000FF24
:1030B000000000FF2F001CD5D1007A09D2007B0050
:1030C000D2007B00D2007B00D2007B00D2007B00CC
:1030D000D2007B00D2007B00D2007B00D2007B00BC
:1030E000D2007B00D2007B00D2007B00D2007B00AC
:1030F000D2007B00D2007B00D2007B00D2007B009C
:10310000D3037D00FBEAF400FFFFFF00FFFFFF0099
:10311000FFFFFF00FFFFFF00FFFFFF00FFFFFF00BB
:10312000FFFFFF00FFFFFF00FFFFFF00FFFFFF00AB
:10313000FFFFFF00FFFFFF00FFFFFF00FFFFFF009B
:10314000FFFFFF00FFFFFF00FFFFFF00FFFFFF008B
:10315000FFFFFF00FFFFFF00FFFFFF00FFFFFF007B
:10316000FFFFFF00FFFFFF00FFFFFF00FFFFFF006B
:10317000FFFFFF00FEF8FB00ED9ACB00D8218C008A
:10318000D2007B00D2007B00D2007B00D2007B000B
:10319000D2007B00D2007B00E152A500FFFFFF00C0
:1031A000FFFFFF00EB8DC400D2017B00D2007B004B
:1031B000D2007B00E77ABA00FFFFFF00FFFFFF00AD
:1031C000FFFFFF00FFFFFF00FFFFFF00FFFFFF000B
:1031D000FFFFFF00FFFFFF00FFFFFF00FFFFFF00FB
:1031E000FFFFFF00FFFFFF00FFFFFF00FFFFFF00EB
:1031F000FFFFFF00FFFFFF00FFFFFF00FFFFFF00DB
:10320000FFFFFF00FFFFFF00FFFFFF00FFFFFF00CA
:10321000FFFFFF00FFFFFF00FFFFFF00FFFFFF00BA
:10322000FFFFFF00E87BBB00D2007B00D2007B00E9
:10323000D2007B00D2007B00D2007B00D1007A0953
:1032400035001FD3000000FF000000FF000000FF5A
:10325000000000FF000000FF000000FF000000FF72
:10326000000000FF000000FF000000FF000000FF62
:10327000000000FF000000FF000000FF000000FF52
:10328000000000FF000000FF000000FF000000FF42
:103290000C0007FABA006D34D2007B00D2007B002C
:1032A000D2007B00D2007B00D2007B00D2007B00EA
:1032B000D2007B00D2007B00D2007B00D2007B00DA
:1032C000D2007B00D2007B00D2007B00D2007B00CA
:1032D000D2007B00D2007B00D2007B00D2007B00BA
:1032E000D2007B00F4BFDE00FFFFFF00FFFFFF0006
:1032F000FFFFFF00FFFFFF00FFFFFF00FFFFFF00DA
:10330000FFFFFF00FFFFFF00FFFFFF00FFFFFF00C9
:10331000FFFFFF00FFFFFF00FFFFFF00FFFFFF00B9
:10332000FFFFFF00FFFFFF00FFFFFF00FFFFFF00A9
:10333000FFFFFF00FFFFFF00FFFFFF00FFFFFF0099
:10334000FFFFFF00FFFFFF00FFFFFF00FFFFFF0089
:10335000FFFFFF00FFFFFF00FFFFFF00FEF8FB0085
:10336000EC93C700D6178700D2007B00D2007B0009
:10337000D2007B00D2007B00EFA1CF00FFFFFF0057
:10338000FFFFFF00FFFFFF00E466AF00D2007B00FD
:10339000D8208B00FDF4F900FFFFFF00FFFFFF00C6
:1033A000FFFFFF00FFFFFF00FFFFFF00FFFFFF0029
:1033B000FFFFFF00FFFFFF00FFFFFF00FFFFFF0019
:1033C000FFFFFF00FFFFFF00FFFFFF00FFFFFF0009
:1033D000FFFFFF00FFFFFF00FFFFFF00FFFFFF00F9
:1033E000FFFFFF00FFFFFF00FFFFFF00FFFFFF00E9
:1033F000FFFFFF00FFFFFF00FFFFFF00FFFFFF00D9
:10340000FEF7FB00D71A8900D2007B00D2007B00B8
:10341000D2007B00D2007B00D2007B00D2007B0078
:10342000BA006D330C0007F9000000FF000000FF38
:10343000000000FF000000FF000000FF000000FF90
:10344000000000FF000000FF000000FF000000FF80
:10345000000000FF000000FF000000FF000000FF70
:10346000000000FF000000FF000000FF000000FF60
:103470007A004886D2007B00D2007B00D2007B001D
:10348000D2007B00D2007B00D2007B00D2007B0008
:10349000D2007B00D2007B00D2007B00D2007B00F8
:1034A000D2007B00D2007B00D2007B00D2007B00E8
:1034B000D2007B00D2007B00D2007B00D2007B00D8
:1034C000D2007B00E984BF00FFFFFF00FFFFFF0089
:1034D000FFFFFF00FFFFFF00FFFFFF00FFFFFF00F8
:1034E000FFFFFF00FFFFFF00FFFFFF00FFFFFF00E8
:1034F000FFFFFF00FFFFFF00FFFFFF00FFFFFF00D8
:10350000FFFFFF00FFFFFF00FFFFFF00FFFFFF00C7
:10351000FFFFFF00FFFFFF00FFFFFF00FFFFFF00B7
:10352000FFFFFF00FFFFFF00FFFFFF00FFFFFF00A7
:10353000FFFFFF00FFFFFF00FFFFFF00FFFFFF0097
:10354000FFFFFF00FCEFF700E672B600D3067E0037
:10355000D2007B00D2007B00F5C8E200FFFFFF0035
:10356000FFFFFF00FFFFFF00FCF0F700D61485000F
:10357000F0A9D300FFFFFF00FFFFFF00FFFFFF00E8
:10358000FFFFFF00FFFFFF00FFFFFF00FFFFFF0047
:10359000FFFFFF00FFFFFF00FFFFFF00FFFFFF0037
:1035A000FFFFFF00FFFFFF00FFFFFF00FFFFFF0027
:1035B000FFFFFF00FFFFFF00FFFFFF00FFFFFF0017
:1035C000FFFFFF00FFFFFF00FFFFFF00FFFFFF0007
:1035D000FFFFFF00FFFFFF00FFFFFF00FFFFFF00F7
:1035E000EE9ECD00D2007B00D2007B00D2007B009B
:1035F000D2007B00D2007B00D2007B00D2007B0097
:10360000D2007B0080004B84000000FF000000FF20
:10361000000000FF000000FF000000FF000000FFAE
:10362000000000FF000000FF000000FF000000FF9E
:10363000000000FF000000FF000000FF000000FF8E
:10364000000000FF000000FF000000FF2E001BDA5A
:10365000D0007A0AD2007B00D2007B00D2007B002F
:10366000D2007B00D2007B00D2007B00D2007B0026
:10367000D2007B00D2007B00D2007B00D2007B0016
:10368000D2007B00D2007B00D2007B00D2007B0006
:10369000D2007B00D2007B00D2007B00D2007B00F6
:1036A000D2007B00DD3D9B00FFFFFF00FFFFFF001E
:1036B000FFFFFF00FFFFFF00FFFFFF00FFFFFF0016
:1036C000FFFFFF00FFFFFF00FFFFFF00FFFFFF0006
:1036D000FFFFFF00FFFFFF00FFFFFF00FFFFFF00F6
:1036E000FFFFFF00FFFFFF00FFFFFF00FFFFFF00E6
:1036F000FFFFFF00FFFFFF00FFFFFF00FFFFFF00D6
:10370000FFFFFF00FFFFFF00FFFFFF00FFFFFF00C5
:10371000FFFFFF00FFFFFF00FFFFFF00FFFFFF00B5
:10372000FFFFFF00FFFFFF00FFFFFF00F6CEE500F9
:10373000DB329500D2007B00F6CEE600FFFFFF00F3
:10374000FFFFFF00FFFFFF00FFFFFF00F2B3D80005
:10375000FFFEFE00FFFFFF00FFFFFF00FFFFFF0077
:10376000FFFFFF00FFFFFF00FFFFFF00FFFFFF0065
:10377000FFFFFF00FFFFFF00FFFFFF00FFFFFF0055
:10378000FFFFFF00FFFFFF00FFFFFF00FFFFFF0045
:10379000FFFFFF00FFFFFF00FFFFFF00FFFFFF0035
:1037A000FFFFFF00FFFFFF00FFFFFF00FFFFFF0025
:1037B000FFFFFF00FFFFFF00FFFFFF00FEF9FC001F
:1037C000D9268F00D2007B00D2007B00D2007B0084
:1037D000D2007B00D2007B00D2007B00D2007B00B5
:1037E000D2007B00D0007A0A2E001BD9000000FF17
:1037F000000000FF000000FF000000FF000000FFCD
:10380000000000FF000000FF000000FF000000FFBC
:10381000000000FF000000FF000000FF000000FFAC
:10382000000000FF000000FF020001FEA700624B45
:10383000D2007B00D2007B00D2007B00D2007B0054
:10384000D2007B00D2007B00D2007B00D2007B0044
:10385000D2007B00D2007B00D2007B00D2007B0034
:10386000D2007B00D2007B00D2007B00D2007B0024
:10387000D2007B00D2007B00D2007B00D2007B0014
:10388000D2007B00D3057E00FAE4F100FFFFFF00C9
:10389000FFFFFF00FFFFFF00FFFFFF00FFFFFF0034
:1038A000FFFFFF00FFFFFF00FFFFFF00FFFFFF0024
:1038B000FFFFFF00FFFFFF00FFFFFF00FFFFFF0014
:1038C000FFFFFF00FFFFFF00FFFFFF00FFFFFF0004
:1038D000FFFFFF00FFFFFF00FFFFFF00FFFFFF00F4
:1038E000FFFFFF00FFFFFF00FFFFFF00FFFFFF00E4
:1038F000FFFFFF00FFFFFF00FFFFFF00FFFFFF00D4
:10390000FFFFFF00FFFFFF00FFFFFF00FFFFFF00C3
:10391000FEF7FB00E66FB500F4C2DF00FFFFFF001B
:10392000FFFFFF00FFFFFF00FFFFFF00FFFFFF00A3
:10393000FFFFFF00FFFFFF00FFFFFF00FFFFFF0093
:10394000FFFFFF00FFFFFF00FFFFFF00FFFFFF0083
:10395000FFFFFF00FFFFFF00FFFFFF00FFFFFF0073
:10396000FFFFFF00FFFFFF00FFFFFF00FFFFFF0063
:10397000FFFFFF00FFFFFF00FFFFFF00FFFFFF0053
:10398000FFFFFF00FFFFFF00FFFFFF00FFFFFF0043
:10399000FFFFFF00FFFFFF00FFFFFF00EC96C800E6
:1039A000D2007B00D2007B00D2007B00D2007B00E3
:1039B000D2007B00D2007B00D2007B00D2007B00D3
:1039C000D2007B00D2007B00A7006249020001FE0A
:1039D000000000FF000000FF000000FF000000FFEB
:1039E000000000FF000000FF000000FF000000FFDB
:1039F000000000FF000000FF000000FF000000FFCB
:103A0000000000FF000000FF540031B5D2007B0130
:103A1000D2007B00D2007B00D2007B00D2007B0072
:103A2000D2007B00D2007B00D2007B00D2007B0062
:103A3000D2007B00D2007B00D2007B00D2007B0052
:103A4000D2007B00D2007B00D2007B00D2007B0042
:103A5000D2007B00D2007B00D2007B00D2007B0032
:103A6000D2007B00D2007B00EB8BC300FFFFFF0086
:103A7000FFFFFF00FFFFFF00FFFFFF00FFFFFF0052
:103A8000FFFFFF00FFFFFF00FFFFFF00FFFFFF0042
:103A9000FFFFFF00FFFFFF00FFFFFF00FFFFFF0032
:103AA000FFFFFF00FFFFFF00FFFFFF00FFFFFF0022
:103AB000FFFFFF00FFFFFF00FFFFFF00FFFFFF0012
:103AC000FFFFFF00FFFFFF00FFFFFF00FFFFFF0002
:103AD000FFFFFF00FFFFFF00FFFFFF00FFFFFF00F2
:103AE000FFFFFF00FFFFFF00FFFFFF00FFFFFF00E2
:103AF000FFFFFF00FFFFFF00FDF5FA00FFFFFF00E3
:103B0000FFFFFF00FFFFFF00FFFFFF00FFFFFF00C1
:103B1000FFFFFF00FFFFFF00FFFFFF00FFFFFF00B1
:103B2000FFFFFF00FFFFFF00FFFFFF00FFFFFF00A1
:103B3000FFFFFF00FFFFFF00FFFFFF00FFFFFF0091
:103B4000FFFFFF00FFFFFF00FFFFFF00FFFFFF0081
:103B5000FFFFFF00FFFFFF00FFFFFF00FFFFFF0071
:103B6000FFFFFF00FFFFFF00FFFFFF00FFFFFF0061
:103B7000FFFFFF00FFFFFF00FBE9F400D615860002
:103B8000D2007B00D2007B00D2007B00D2007B0001
:103B9000D2007B00D2007B00D2007B00D2007B00F1
:103BA000D2007B00D2007B00D2007B01540031B3F5
:103BB000000000FF000000FF000000FF000000FF09
:103BC000000000FF000000FF000000FF000000FFF9
:103BD000000000FF000000FF000000FF000000FFE9
:103BE000000000FF0D0007FABA006D2ED2007B0026
:103BF000D2007B00D2007B00D2007B00D2007B0091
:103C0000D2007B00D2007B00D2007B00D2007B0080
:103C1000D2007B00D2007B00D2007B00D2007B0070
:103C2000D2007B00D2007B00D2007B00D2007B0060
:103C3000D2007B00D2007B00D2007B00D2007B0050
:103C4000D2007B00D2007B00D9278F00FEFBFD0055
:103C5000FFFFFF00FFFFFF00FFFFFF00FFFFFF0070
:103C6000FFFFFF00FFFFFF00FFFFFF00FFFFFF0060
:103C7000FFFFFF00FFFFFF00FFFFFF00FFFFFF0050
:103C8000FFFFFF00FFFFFF00FFFFFF00FFFFFF0040
:103C9000FFFFFF00FFFFFF00FFFFFF00FFFFFF0030
:103CA000FFFFFF00FFFFFF00FFFFFF00FFFFFF0020
:103CB000FFFFFF00FFFFFF00FFFFFF00FFFFFF0010
:103CC000FFFFFF00FFFFFF00FFFFFF00FFFFFF0000
:103CD000FFFFFF00FFFFFF00FFFFFF00FFFFFF00F0
:103CE000FFFFFF00FFFFFF00FFFFFF00FFFFFF00E0
:103CF000FFFFFF00FFFFFF00FFFFFF00FFFFFF00D0
:103D0000FFFFFF00FFFFFF00FFFFFF00FFFFFF00BF
:103D1000FFFFFF00FFFFFF00FFFFFF00FFFFFF00AF
:103D2000FFFFFF00FFFFFF00FFFFFF00FFFFFF009F
:103D3000FFFFFF00FFFFFF00FFFFFF00FFFFFF008F
:103D4000FFFFFF00FFFFFF00FFFFFF00FFFFFF007F
:103D5000FFFFFF00FFFEFF00E157A800D2007B003D
:103D6000D2007B00D2007B00D2007B00D2007B001F
:103D7000D2007B00D2007B00D2007B00D2007B000F
:103D8000D2007B00D2007B00D2007B00BA006D2CF9
:103D90000D0007FA000000FF000000FF000000FF18
:103DA000000000FF000000FF000000FF000000FF17
:103DB000000000FF000000FF000000FF000000FF07
:103DC000000000FF66003BA1D2007B00D2007B0018
:103DD000D2007B00D2007B00D2007B00D2007B00AF
:103DE000D2007B00D2007B00D2007B00D2007B009F
:103DF000D2007B00D2007B00D2007B00D2007B008F
:103E0000D2007B00D2007B00D2007B00D2007B007E
:103E1000D2007B00D2007B00D2007B00D2007B006E
:103E2000D2007B00D2007B00D2007B00F1B1D60033
:103E3000FFFFFF00FFFFFF00FFFFFF00FFFFFF008E
:103E4000FFFFFF00FFFFFF00FFFFFF00FFFFFF007E
:103E5000FFFFFF00FFFFFF00FFFFFF00FFFFFF006E
:103E6000FFFFFF00FFFFFF00FFFFFF00FFFFFF005E
:103E7000FFFFFF00FFFFFF00FFFFFF00FFFFFF004E
:103E8000FFFFFF00FFFFFF00FFFFFF00FFFFFF003E
:103E9000FFFFFF00FFFFFF00FFFFFF00FFFFFF002E
:103EA000FFFFFF00FFFFFF00FFFFFF00FFFFFF001E
:103EB000FFFFFF00FFFFFF00FFFFFF00FFFFFF000E
:103EC000FFFFFF00FFFFFF00FFFFFF00FFFFFF00FE
:103ED000FFFFFF00FFFFFF00FFFFFF00FFFFFF00EE
:103EE000FFFFFF00FFFFFF00FFFFFF00FFFFFF00DE
:103EF000FFFFFF00FFFFFF00FFFFFF00FFFFFF00CE
:103F0000FFFFFF00FFFFFF00FFFFFF00FFFFFF00BD
:103F1000FFFFFF00FFFFFF00FFFFFF00FFFFFF00AD
:103F2000FFFFFF00FFFFFF00FFFFFF00FFFFFF009D
:103F3000FFFFFF00ED9ACB00D2017B00D2007B0097
:103F4000D2007B00D2007B00D2007B00D2007B003D
:103F5000D2007B00D2007B00D2007B00D2007B002D
:103F6000D2007B00D2007B00D2007B00D2007B001D
:103F700066003B9F000000FF000000FF000000FF04
:103F8000000000FF000000FF000000FF000000FF35
:103F9000000000FF000000FF000000FF000000FF25
:103FA0000D0007F9C2007225D2007B00D2007B0011
:103FB000D2007B00D2007B00D2007B00D2007B00CD
:103FC000D2007B00D2007B00D2007B00D2007B00BD
:103FD000D2007B00D2007B00D2007B00D2007B00AD
:103FE000D2007B00D2007B00D2007B00D2007B009D
:103FF000D2007B00D2007B00D2007B00D2007B008D
:10400000D2007B00D2007B00D2007B00DC36970020
:10401000FFFDFE00FFFFFF00FFFFFF00FFFFFF00AF
:10402000FFFFFF00FFFFFF00FFFFFF00FFFFFF009C
:10403000FFFFFF00FFFFFF00FFFFFF00FFFFFF008C
:10404000FFFFFF00FFFFFF00FFFFFF00FFFFFF007C
:10405000FFFFFF00FFFFFF00FFFFFF00FFFFFF006C
:10406000FFFFFF00FFFFFF00FFFFFF00FFFFFF005C
:10407000FFFFFF00FFFFFF00FFFFFF00FFFFFF004C
:10408000FFFFFF00FFFFFF00FFFFFF00FFFFFF003C
:10409000FFFFFF00FFFFFF00FFFFFF00FFFFFF002C
:1040A000FFFFFF00FFFFFF00FFFFFF00FFFFFF001C
:1040B000FFFFFF00FFFFFF00FFFFFF00FFFFFF000C
:1040C000FFFFFF00FFFFFF00FFFFFF00FFFFFF00FC
:1040D000FFFFFF00FFFFFF00FFFFFF00FFFFFF00EC
:1040E000FFFFFF00FFFFFF00FFFFFF00FFFFFF00DC
:1040F000FFFFFF00FFFFFF00FFFFFF00FFFFFF00CC
:10410000FFFFFF00FFFFFF00FFFFFF00FFFFFF00BB
:10411000F4BEDD00D3087F00D2007B00D2007B001C
:10412000D2007B00D2007B00D2007B00D2007B005B
:10413000D2007B00D2007B00D2007B00D2007B004B
:10414000D2007B00D2007B00D2007B00D2007B003B
:10415000C20072250D0007F9000000FF000000FFFB
:10416000000000FF000000FF000000FF000000FF53
:10417000000000FF000000FF000000FF000000FF43
:10418000600039A5D2007B00D2007B00D2007B000A
:10419000D2007B00D2007B00D2007B00D2007B00EB
:1041A000D2007B00D2007B00D2007B00D2007B00DB
:1041B000D2007B00D2007B00D2007B00D2007B00CB
:1041C000D2007B00D2007B00D2007B00D2007B00BB
:1041D000D2007B00D2007B00D2007B00D2007B00AB
:1041E000D2007B00D2007B00D2007B00D2007B009B
:1041F000F1B0D600FFFFFF00FFFFFF00FFFFFF0051
:10420000FFFFFF00FFFFFF00FFFFFF00FFFFFF00BA
:10421000FFFFFF00FFFFFF00FFFFFF00FFFFFF00AA
:10422000FFFFFF00FFFFFF00FFFFFF00FFFFFF009A
:10423000FFFFFF00FFFFFF00FFFFFF00FFFFFF008A
:10424000FFFFFF00FFFFFF00FFFFFF00FFFFFF007A
:10425000FFFFFF00FFFFFF00FFFFFF00FFFFFF006A
:10426000FFFFFF00FFFFFF00FFFFFF00FFFFFF005A
:10427000FFFFFF00FFFFFF00FFFFFF00FFFFFF004A
:10428000FFFFFF00FFFFFF00FFFFFF00FFFFFF003A
:10429000FFFFFF00FFFFFF00FFFFFF00FFFFFF002A
:1042A000FFFFFF00FFFFFF00FFFFFF00FFFFFF001A
:1042B000FFFFFF00FFFFFF00FFFFFF00FFFFFF000A
:1042C000FFFFFF00FFFFFF00FFFFFF00FFFFFF00FA
:1042D000FFFFFF00FFFFFF00FFFFFF00FFFFFF00EA
:1042E000FFFFFF00FFFFFF00FFFFFF00FBE7F30002
:1042F000D6158600D2007B00D2007B00D2007B0066
:10430000D2007B00D2007B00D2007B00D2007B0079
:10431000D2007B00D2007B00D2007B00D2007B0069
:10432000D2007B00D2007B00D2007B00D2007B0059
:10433000D2007B00600039A2000000FF000000FFF7
:10434000000000FF000000FF000000FF000000FF71
:10435000000000FF000000FF000000FF050003FD5B
:10436000B8006C31D2007B00D2007B00D2007B0011
:10437000D2007B00D2007B00D2007B00D2007B0009
:10438000D2007B00D2007B00D2007B00D2007B00F9
:10439000D2007B00D2007B00D2007B00D2007B00E9
:1043A000D2007B00D2007B00D2007B00D2007B00D9
:1043B000D2007B00D2007B00D2007B00D2007B00C9
:1043C000D2007B00D2007B00D2007B00D2007B00B9
:1043D000D9278F00FEF8FC00FFFFFF00FFFFFF0062
:1043E000FFFFFF00FFFFFF00FFFFFF00FFFFFF00D9
:1043F000FFFFFF00FFFFFF00FFFFFF00FFFFFF00C9
:10440000FFFFFF00FFFFFF00FFFFFF00FFFFFF00B8
:10441000FFFFFF00FFFFFF00FFFFFF00FFFFFF00A8
:10442000FFFFFF00FFFFFF00FFFFFF00FFFFFF0098
:10443000FFFFFF00FFFFFF00FFFFFF00FFFFFF0088
:10444000FFFFFF00FFFFFF00FFFFFF00FFFFFF0078
:10445000FFFFFF00FFFFFF00FFFFFF00FFFFFF0068
:10446000FFFFFF00FFFFFF00FFFFFF00FFFFFF0058
:10447000FFFFFF00FFFFFF00FFFFFF00FFFFFF0048
:10448000FFFFFF00FFFFFF00FFFFFF00FFFFFF0038
:10449000FFFFFF00FFFFFF00FFFFFF00FFFFFF0028
:1044A000FFFFFF00FFFFFF00FFFFFF00FFFFFF0018
:1044B000FFFFFF00FFFFFF00FFFFFF00FFFFFF0008
:1044C000FFFFFF00FFFFFF00FFFFFF00FFFFFF00F8
:1044D000F9DDEE00E259A900D2017C00D2007B0098
:1044E000D2007B00D2007B00D2007B00D2007B0098
:1044F000D2007B00D2007B00D2007B00D2007B0088
:10450000D2007B00D2007B00D2007B00D2007B0077
:10451000D2007B00B8006C30050003FD000000FFF6
:10452000000000FF000000FF000000FF000000FF8F
:10453000000000FF000000FF000000FF48002BBF4C
:10454000D2007B00D2007B00D2007B00D2007B0037
:10455000D2007B00D2007B00D2007B00D2007B0027
:10456000D2007B00D2007B00D2007B00D2007B0017
:10457000D2007B00D2007B00D2007B00D2007B0007
:10458000D2007B00D2007B00D2007B00D2007B00F7
:10459000D2007B00D2007B00D2007B00D2007B00E7
:1045A000D2007B00D2007B00D2007B00D2007B00D7
:1045B000D2007B00EA86C000FFFFFF00FFFFFF0084
:1045C000FFFFFF00FFFFFF00FFFFFF00FFFFFF00F7
:1045D000FFFFFF00FFFFFF00FFFFFF00FFFFFF00E7
:1045E000FFFFFF00FFFFFF00FFFFFF00FFFFFF00D7
:1045F000FFFFFF00FFFFFF00FFFFFF00FFFFFF00C7
:10460000FFFFFF00FFFFFF00FFFFFF00FFFFFF00B6
:10461000FFFFFF00FFFFFF00FFFFFF00FFFFFF00A6
:10462000FFFFFF00FFFFFF00FFFFFF00FFFFFF0096
:10463000FFFFFF00FFFFFF00FFFFFF00FFFFFF0086
:10464000FFFFFF00FFFFFF00FFFFFF00FFFFFF0076
:10465000FFFFFF00FFFFFF00FFFFFF00FFFFFF0066
:10466000FFFFFF00FFFFFF00FFFFFF00FFFFFF0056
:10467000FFFFFF00FFFFFF00FFFFFF00FFFFFF0046
:10468000FFFFFF00FFFFFF00FFFFFF00FFFFFF0036
:10469000FFFFFF00FFFFFF00FFFFFF00FFFFFF0026
:1046A000FFFFFF00FFFFFF00FFFFFF00FFFFFF0016
:1046B000FFFFFF00FFFFFF00F4C2DF00DA2B9200D4
:1046C000D2007B00D2007B00D2007B00D2007B00B6
:1046D000D2007B00D2007B00D2007B00D2007B00A6
:1046E000D2007B00D2007B00D2007B00D2007B0096
:1046F000D2007B00D2007B0048002BBD000000FFF1
:10470000000000FF000000FF000000FF000000FFAD
:10471000000000FF000000FF000000FFA0005E5549
:10472000D2007B00D2007B00D2007B00D2007B0055
:10473000D2007B00D2007B00D2007B00D2007B0045
:10474000D2007B00D2007B00D2007B00D2007B0035
:10475000D2007B00D2007B00D2007B00D2007B0025
:10476000D2007B00D2007B00D2007B00D2007B0015
:10477000D2007B00D2007B00D2007B00D2007B0005
:10478000D2007B00D2007B00D2007B00D2007B00F5
:10479000D2007B00D4098000F8D6EA00FFFFFF00BA
:1047A000FFFFFF00FFFFFF00FFFFFF00FFFFFF0015
:1047B000FFFFFF00FFFFFF00FFFFFF00FFFFFF0005
:1047C000FFFFFF00FFFFFF00FFFFFF00FFFFFF00F5
:1047D000FFFFFF00FFFFFF00FFFFFF00FFFFFF00E5
:1047E000FFFFFF00FFFFFF00FFFFFF00FFFFFF00D5
:1047F000FFFFFF00FFFFFF00FFFFFF00FFFFFF00C5
:10480000FFFFFF00FFFFFF00FFFFFF00FFFFFF00B4
:10481000FFFFFF00FFFFFF00FFFFFF00FFFFFF00A4
:10482000FFFFFF00FFFFFF00FFFFFF00FFFFFF0094
:10483000FFFFFF00FFFFFF00FFFFFF00FFFFFF0084
:10484000FFFFFF00FFFFFF00FFFFFF00FFFFFF0074
:10485000FFFFFF00FFFFFF00FFFFFF00FFFFFF0064
:10486000FFFFFF00FFFFFF00FFFFFF00FFFFFF0054
:10487000FFFFFF00FFFFFF00FFFFFF00FFFFFF0044
:10488000FFFFFF00FFFFFF00FFFFFF00FFFFFF0034
:10489000FFFFFF00FFFFFF00FFFFFF00FEF8FB0030
:1048A000E778B900D3047D00D2007B00D2007B0002
:1048B000D2007B00D2007B00D2007B00D2007B00C4
:1048C000D2007B00D2007B00D2007B00D2007B00B4
:1048D000D2007B00D2007B00A0005E53000000FFEE
:1048E000000000FF000000FF000000FF000000FFCC
:1048F000000000FF000000FF200013E8D2007B084A
:10490000D2007B00D2007B00D2007B00D2007B0073
:10491000D2007B00D2007B00D2007B00D2007B0063
:10492000D2007B00D2007B00D2007B00D2007B0053
:10493000D2007B00D2007B00D2007B00D2007B0043
:10494000D2007B00D2007B00D2007B00D2007B0033
:10495000D2007B00D2007B00D2007B00D2007B0023
:10496000D2007B00D2007B00D2007B00D2007B0013
:10497000D2007B00D2007B00DB359600FEF9FC0004
:10498000FFFFFF00FFFFFF00FFFFFF00FFFFFF0033
:10499000FFFFFF00FFFFFF00FFFFFF00FFFFFF0023
:1049A000FFFFFF00FFFFFF00FFFFFF00FFFFFF0013
:1049B000FFFFFF00FFFFFF00FFFFFF00FFFFFF0003
:1049C000FFFFFF00FFFFFF00FFFFFF00FFFFFF00F3
:1049D000FFFFFF00FFFFFF00FFFFFF00FFFFFF00E3
:1049E000FFFFFF00FFFFFF00FFFFFF00FFFFFF00D3
:1049F000FFFFFF00FFFFFF00FFFFFF00FFFFFF00C3
:104A0000FFFFFF00FFFFFF00FFFFFF00FFFFFF00B2
:104A1000FFFFFF00FFFFFF00FFFFFF00FFFFFF00A2
:104A2000FFFFFF00FFFFFF00FFFFFF00FFFFFF0092
:104A3000FFFFFF00FFFFFF00FFFFFF00FFFFFF0082
:104A4000FFFFFF00FFFFFF00FFFFFF00FFFFFF0072
:104A5000FFFFFF00FFFFFF00FFFFFF00FFFFFF0062
:104A6000FFFFFF00FFFFFF00FFFFFF00FFFFFF0052
:104A7000FFFFFF00FFFFFF00FFFFFF00FFFFFF0042
:104A8000FFFFFF00F3BADB00D6158600D2007B00E3
:104A9000D2007B00D2007B00D2007B00D2007B00E2
:104AA000D2007B00D2007B00D2007B00D2007B00D2
:104AB000D2007B00D2007B00D2007B07200013E7EE
:104AC000000000FF000000FF000000FF000000FFEA
:104AD000000000FF000000FF71004290D2007B0048
:104AE000D2007B00D2007B00D2007B00D2007B0092
:104AF000D2007B00D2007B00D2007B00D2007B0082
:104B0000D2007B00D2007B00D2007B00D2007B0071
:104B1000D2007B00D2007B00D2007B00D2007B0061
:104B2000D2007B00D2007B00D2007B00D2007B0051
:104B3000D2007B00D2007B00D2007B00D2007B0041
:104B4000D2007B00D2007B00D2007B00D2007B0031
:104B5000D2007B00D2007B00D2007B00E670B50063
:104B6000FFFFFF00FFFFFF00FFFFFF00FFFFFF0051
:104B7000FFFFFF00FFFFFF00FFFFFF00FFFFFF0041
:104B8000FFFFFF00FFFFFF00FFFFFF00FFFFFF0031
:104B9000FFFFFF00FFFFFF00FFFFFF00FFFFFF0021
:104BA000FFFFFF00FFFFFF00FFFFFF00FFFFFF0011
:104BB000FFFFFF00FFFFFF00FFFFFF00FFFFFF0001
:104BC000FFFFFF00FFFFFF00FFFFFF00FFFFFF00F1
:104BD000FFFFFF00FFFFFF00FFFFFF00FFFFFF00E1
:104BE000FFFFFF00FFFFFF00FFFFFF00FFFFFF00D1
:104BF000FFFFFF00FFFFFF00FFFFFF00FFFFFF00C1
:104C0000FFFFFF00FFFFFF00FFFFFF00FFFFFF00B0
:104C1000FFFFFF00FFFFFF00FFFFFF00FFFFFF00A0
:104C2000FFFFFF00FFFFFF00FFFFFF00FFFFFF0090
:104C3000FFFFFF00FFFFFF00FFFFFF00FFFFFF0080
:104C4000FFFFFF00FFFFFF00FFFFFF00FFFFFF0070
:104C5000FFFFFF00FFFFFF00FFFFFF00FFFFFF0060
:104C6000FFFFFF00FFFFFF00F9DBEC00D9278F00FB
:104C7000D2007B00D2007B00D2007B00D2007B0000
:104C8000D2007B00D2007B00D2007B00D2007B00F0
:104C9000D2007B00D2007B00D2007B007100428FEB
:104CA000000000FF000000FF000000FF000000FF08
:104CB000000000FF020001FEB5006A37D2007B0051
:104CC000D2007B00D2007B00D2007B00D2007B00B0
:104CD000D2007B00D2007B00D2007B00D2007B00A0
:104CE000D2007B00D2007B00D2007B00D2007B0090
:104CF000D2007B00D2007B00D2007B00D2007B0080
:104D0000D2007B00D2007B00D2007B00D2007B006F
:104D1000D2007B00D2007B00D2007B00D2007B005F
:104D2000D2007B00D2007B00D2007B00D2007B004F
:104D3000D2007B00D2007B00D2007B00D2017B003E
:104D4000EE9FCD00FFFFFF00FFFFFF00FFFFFF0012
:104D5000FFFFFF00FFFFFF00FFFFFF00FFFFFF005F
:104D6000FFFFFF00FFFFFF00FFFFFF00FFFFFF004F
:104D7000FFFFFF00FFFFFF00FFFFFF00FFFFFF003F
:104D8000FFFFFF00FFFFFF00FFFFFF00FFFFFF002F
:104D9000FFFFFF00FFFFFF00FFFFFF00FFFFFF001F
:104DA000FFFFFF00FFFFFF00FFFFFF00FFFFFF000F
:104DB000FFFFFF00FFFFFF00FFFFFF00FFFFFF00FF
:104DC000FFFFFF00FFFFFF00FFFFFF00FFFFFF00EF
:104DD000FFFFFF00FFFFFF00FFFFFF00FFFFFF00DF
:104DE000FFFFFF00FFFFFF00FFFFFF00FFFFFF00CF
:104DF000FFFFFF00FFFFFF00FFFFFF00FFFFFF00BF
:104E0000FFFFFF00FFFFFF00FFFFFF00FFFFFF00AE
:104E1000FFFFFF00FFFFFF00FFFFFF00FFFFFF009E
:104E2000FFFFFF00FFFFFF00FFFFFF00FFFFFF008E
:104E3000FFFFFF00FFFFFF00FFFFFF00FFFFFF007E
:104E4000FFFFFF00FFFFFF00FFFFFF00FBE7F30096
:104E5000D92A9100D2007B00D2007B00D2007B00D7
:104E6000D2007B00D2007B00D2007B00D2007B000E
:104E7000D2007B00D2007B00D2007B00B5006A36F6
:104E8000020001FE000000FF000000FF000000FF24
:104E9000000000FF2B0019DED2007B02D2007B0055
:104EA000D2007B00D2007B00D2007B00D2007B00CE
:104EB000D2007B00D2007B00D2007B00D2007B00BE
:104EC000D2007B00D2007B00D2007B00D2007B00AE
:104ED000D2007B00D2007B00D2007B00D2007B009E
:104EE000D2007B00D2007B00D2007B00D2007B008E
:104EF000D2007B00D2007B00D2007B00D2007B007E
:104F0000D2007B00D2007B00D2007B00D2007B006D
:104F1000D2007B00D2007B00D2007B00D2007B005D
:104F2000D3077F00F2B7DA00FFFFFF00FFFFFF00AB
:104F3000FFFFFF00FFFFFF00FFFFFF00FFFFFF007D
:104F4000FFFFFF00FFFFFF00FFFFFF00FFFFFF006D
:104F5000FFFFFF00FFFFFF00FFFFFF00FFFFFF005D
:104F6000FFFFFF00FFFFFF00FFFFFF00FFFFFF004D
:104F7000FFFFFF00FFFFFF00FFFFFF00FFFFFF003D
:104F8000FFFFFF00FFFFFF00FFFFFF00FFFFFF002D
:104F9000FFFFFF00FFFFFF00FFFFFF00FFFFFF001D
:104FA000FFFFFF00FFFFFF00FFFFFF00FFFFFF000D
:104FB000FFFFFF00FFFFFF00FFFFFF00FFFFFF00FD
:104FC000FFFFFF00FFFFFF00FFFFFF00FFFFFF00ED
:104FD000FFFFFF00FFFFFF00FFFFFF00FFFFFF00DD
:104FE000FFFFFF00FFFFFF00FFFFFF00FFFFFF00CD
:104FF000FFFFFF00FFFFFF00FFFFFF00FFFFFF00BD
:10500000FFFFFF00FFFFFF00FFFFFF00FFFFFF00AC
:10501000FFFFFF00FFFFFF00FFFFFF00FFFFFF009C
:10502000FFFFFF00FFFFFF00FFFFFF00FFFFFF008C
:10503000FAE0EF00D71A8800D2007B00D2007B0094
:10504000D2007B00D2007B00D2007B00D2007B002C
:10505000D2007B00D2007B00D2007B00D2007B021A
:105060002B0019DD000000FF000000FF000000FF22
:10507000000000FF6B003F90D2007B00D2007B005D
:10508000D2007B00D2007B00D2007B00D2007B00EC
:10509000D2007B00D2007B00D2007B00D2007B00DC
:1050A000D2007B00D2007B00D2007B00D2007B00CC
:1050B000D2007B00D2007B00D2007B00D2007B00BC
:1050C000D2007B00D2007B00D2007B00D2007B00AC
:1050D000D2007B00D2007B00D2007B00D2007B009C
:1050E000D2007B00D2007B00D2007B00D2007B008C
:1050F000D2007B00D2007B00D2007B00D2007B007C
:10510000D2007B00D40B8100F3BADB00FFFFFF006D
:10511000FFFFFF00FFFFFF00FFFFFF00FFFFFF009B
:10512000FFFFFF00FFFFFF00FFFFFF00FFFFFF008B
:10513000FFFFFF00FFFFFF00FFFFFF00FFFFFF007B
:10514000FFFFFF00FFFFFF00FFFFFF00FFFFFF006B
:10515000FFFFFF00FFFFFF00FFFFFF00FFFFFF005B
:10516000FFFFFF00FFFFFF00FFFFFF00FFFFFF004B
:10517000FFFFFF00FFFFFF00FFFFFF00FFFFFF003B
:10518000FFFFFF00FFFFFF00FFFFFF00FFFFFF002B
:10519000FFFFFF00FFFFFF00FFFFFF00FFFFFF001B
:1051A000FFFFFF00FFFFFF00FFFFFF00FFFFFF000B
:1051B000FFFFFF00FFFFFF00FFFFFF00FFFFFF00FB
:1051C000FFFFFF00FFFFFF00FFFFFF00FFFFFF00EB
:1051D000FFFFFF00FFFFFF00FFFFFF00FFFFFF00DB
:1051E000FFFFFF00FFFFFF00FFFFFF00FFFFFF00CB
:1051F000FFFFFF00FFFFFF00FFFFFF00FFFFFF00BB
:10520000FFFFFF00FFFFFF00FFFFFF00FFFFFF00AA
:10521000FFFFFF00F4BFDE00D3037C00D2007B0061
:10522000D2007B00D2007B00D2007B00D2007B004A
:10523000D2007B00D2007B00D2007B00D2007B003A
:105240007100428E000000FF000000FF000000FF20
:10525000000000FFA7006245D2007B00D2007B0067
:10526000D2007B00D2007B00D2007B00D2007B000A
:10527000D2007B00D2007B00D2007B00D2007B00FA
:10528000D2007B00D2007B00D2007B00D2007B00EA
:10529000D2007B00D2007B00D2007B00D2007B00DA
:1052A000D2007B00D2007B00D2007B00D2007B00CA
:1052B000D2007B00D2007B00D2007B00D2007B00BA
:1052C000D2007B00D2007B00D2007B00D2007B00AA
:1052D000D2007B00D2007B00D2007B00D2007B009A
:1052E000D2007B00D2007B00D40A8000F0A8D2005C
:1052F000FFFFFF00FFFFFF00FFFFFF00FFFFFF00BA
:10530000FFFFFF00FFFFFF00FFFFFF00FFFFFF00A9
:10531000FFFFFF00FFFFFF00FFFFFF00FFFFFF0099
:10532000FFFFFF00FFFFFF00FFFFFF00FFFFFF0089
:10533000FFFFFF00FFFFFF00FFFFFF00FFFFFF0079
:10534000FFFFFF00FFFFFF00FFFFFF00FFFFFF0069
:10535000FFFFFF00FFFFFF00FFFFFF00FFFFFF0059
:10536000FFFFFF00FFFFFF00FFFFFF00FFFFFF0049
:10537000FFFFFF00FFFFFF00FFFFFF00FFFFFF0039
:10538000FFFFFF00FFFFFF00FFFFFF00FFFFFF0029
:10539000FFFFFF00FFFFFF00FFFFFF00FFFFFF0019
:1053A000FFFFFF00FFFFFF00FFFFFF00FFFFFF0009
:1053B000FFFFFF00FFFFFF00FFFFFF00FFFFFF00F9
:1053C000FFFFFF00FFFFFF00FFFFFF00FFFFFF00E9
:1053D000FFFFFF00FFFFFF00FFFFFF00FFFFFF00D9
:1053E000FFFFFF00FFFFFF00FFFFFF00FFFFFF00C9
:1053F000FFFFFF00FFFFFF00E56AB200D2007B0065
:10540000D2007B00D2007B00D2007B00D2007B0068
:10541000D2007B00D2007B00D2007B00D2007B0058
:10542000AB006444010000FF000000FF000000FF2B
:1054300015000CF4D0007A0AD2007B00D2007B0069
:10544000D2007B00D2007B00D2007B00D2007B0028
:10545000D2007B00D2007B00D2007B00D2007B0018
:10546000D2007B00D2007B00D2007B00D2007B0008
:10547000D2007B00D2007B00D2007B00D2007B00F8
:10548000D2007B00D2007B00D2007B00D2007B00E8
:10549000D2007B00D2007B00D2007B00D2007B00D8
:1054A000D2007B00D2007B00D2007B00D2007B00C8
:1054B000D2007B00D2007B00D2007B00D2007B00B8
:1054C000D2007B00D2007B00D2007B00D2037C00A4
:1054D000E777B800FEF8FC00FFFFFF00FFFFFF00CA
:1054E000FFFFFF00FFFFFF00FFFFFF00FFFFFF00C8
:1054F000FFFFFF00FFFFFF00FFFFFF00FFFFFF00B8
:10550000FFFFFF00FFFFFF00FFFFFF00FFFFFF00A7
:10551000FFFFFF00FFFFFF00FFFFFF00FFFFFF0097
:10552000FFFFFF00FFFFFF00FFFFFF00FFFFFF0087
:10553000FFFFFF00FFFFFF00FFFFFF00FFFFFF0077
:10554000FFFFFF00FFFFFF00FFFFFF00FFFFFF0067
:10555000FFFFFF00FFFFFF00FFFFFF00FFFFFF0057
:10556000FFFFFF00FFFFFF00FFFFFF00FFFFFF0047
:10557000FFFFFF00FFFFFF00FFFFFF00FFFFFF0037
:10558000FFFFFF00FFFFFF00FFFFFF00FFFFFF0027
:10559000FFFFFF00FFFFFF00FFFFFF00FFFFFF0017
:1055A000FFFFFF00FFFFFF00FFFFFF00FFFFFF0007
:1055B000FFFFFF00FFFFFF00FFFFFF00FFFFFF00F7
:1055C000FFFFFF00FFFFFF00FFFFFF00FFFFFF00E7
:1055D000FFFFFF00FFFFFF00FBE8F300D40980009E
:1055E000D2007B00D2007B00D2007B00D2007B0087
:1055F000D2007B00D2007B00D2007B00D2007B0077
:10560000D2007B0915000CF3000000FF000000FF32
:1056100048002BBCD2007B00D2007B00D2007B0074
:10562000D2007B00D2007B00D2007B00D2007B0046
:10563000D2007B00D2007B00D2007B00D2007B0036
:10564000D2007B00D2007B00D2007B00D2007B0026
:10565000D2007B00D2007B00D2007B00D2007B0016
:10566000D2007B00D2007B00D2007B00D2007B0006
:10567000D2007B00D2007B00D2007B00D2007B00F6
:10568000D2007B00D2007B00D2007B00D2007B00E6
:10569000D2007B00D2007B00D2007B00D2007B00D6
:1056A000D2007B00D2007B00D2007B00D2007B00C6
:1056B000D2007B00DA2F9300F3BCDC00FFFEFF007A
:1056C000FFFFFF00FFFFFF00FFFFFF00FFFFFF00E6
:1056D000FFFFFF00FFFFFF00FFFFFF00FFFFFF00D6
:1056E000FFFFFF00FFFFFF00FFFFFF00FFFFFF00C6
:1056F000FFFFFF00FFFFFF00FFFFFF00FFFFFF00B6
:10570000FFFFFF00FFFFFF00FFFFFF00FFFFFF00A5
:10571000FFFFFF00FFFFFF00FFFFFF00FFFFFF0095
:10572000FFFFFF00FFFFFF00FFFFFF00FFFFFF0085
:10573000FFFFFF00FFFFFF00FFFFFF00FFFFFF0075
:10574000FFFFFF00FFFFFF00FFFFFF00FFFFFF0065
:10575000FFFFFF00FFFFFF00FFFFFF00FFFFFF0055
:10576000FFFFFF00FFFFFF00FFFFFF00FFFFFF0045
:10577000FFFFFF00FFFFFF00FFFFFF00FFFFFF0035
:10578000FFFFFF00FFFFFF00FFFFFF00FFFFFF0025
:10579000FFFFFF00FFFFFF00FFFFFF00FFFFFF0015
:1057A000FFFFFF00FFFFFF00FFFFFF00FFFFFF0005
:1057B000FFFFFF00FFFFFF00FFFFFF00E25CAB0009
:1057C000D2007B00D2007B00D2007B00D2007B00A5
:1057D000D2007B00D2007B00D2007B00D2007B0095
:1057E000D2007B0048002BBB000000FF000000FF40
:1057F00078004680D2007B00D2007B00D2007B0084
:10580000D2007B00D2007B00D2007B00D2007B0064
:10581000D2007B00D2007B00D2007B00D2007B0054
:10582000D2007B00D2007B00D2007B00D2007B0044
:10583000D2007B00D2007B00D2007B00D2007B0034
:10584000D2007B00D2007B00D2007B00D2007B0024
:10585000D2007B00D2007B00D2007B00D2007B0014
:10586000D2007B00D2007B00D2007B00D2007B0004
:10587000D2007B00D2007B00D2007B00D2007B00F4
:10588000D2007B00D2007B00D2007B00D2007B00E4
:10589000D2007B00D2007B00D2017B00DC3B990070
:1058A000EE9BCB00F9DEEE00FFFDFE00FFFFFF00E8
:1058B000FFFFFF00FFFFFF00FFFFFF00FFFFFF00F4
:1058C000FFFFFF00FFFFFF00FFFFFF00FFFFFF00E4
:1058D000FFFFFF00FFFFFF00FFFFFF00FFFFFF00D4
:1058E000FFFFFF00FFFFFF00FFFFFF00FFFFFF00C4
:1058F000FFFFFF00FFFFFF00FFFFFF00FFFFFF00B4
:10590000FFFFFF00FFFFFF00FFFFFF00FFFFFF00A3
:10591000FFFFFF00FFFFFF00FFFFFF00FFFFFF0093
:10592000FFFFFF00FFFFFF00FFFFFF00FFFFFF0083
:10593000FFFFFF00FFFFFF00FFFFFF00FFFFFF0073
:10594000FFFFFF00FFFFFF00FFFFFF00FFFFFF0063
:10595000FFFFFF00FFFFFF00FFFFFF00FFFFFF0053
:10596000FFFFFF00FFFFFF00FFFFFF00FFFFFF0043
:10597000FFFFFF00FFFFFF00FFFFFF00FFFFFF0033
:10598000FFFFFF00FFFFFF00FFFFFF00FFFFFF0023
:10599000FFFFFF00FFFFFF00FFFFFF00F0A9D200A5
:1059A000D2007B00D2007B00D2007B00D2007B00C3
:1059B000D2007B00D2007B00D2007B00D2007B00B3
:1059C000D2007B007E004A7E000000FF000000FF46
:1059D000A6006148D2007B00D2007B00D2007B0091
:1059E000D2007B00D2007B00D2007B00D2007B0083
:1059F000D2007B00D2007B00D2007B00D2007B0073
:105A0000D2007B00D2007B00D2007B00D2007B0062
:105A1000D2007B00D2007B00D2007B00D2007B0052
:105A2000D2007B00D2007B00D2007B00D2007B0042
:105A3000D2007B00D2007B00D2007B00D2007B0032
:105A4000D2007B00D2007B00D2007B00D2007B0022
:105A5000D2007B00D2007B00D2007B00D2007B0012
:105A6000D2007B00D2007B00D2007B00D2007B0002
:105A7000D2007B00D2007B00D2007B00D2007B00F2
:105A8000D2007B00D2017B00D3087F00EA87C100EF
:105A9000FFFFFF00FFFFFF00FFFFFF00FFFFFF0012
:105AA000FFFFFF00FFFFFF00FFFFFF00FFFFFF0002
:105AB000FFFFFF00FFFFFF00FFFFFF00FFFFFF00F2
:105AC000FFFFFF00FFFFFF00FFFFFF00FFFFFF00E2
:105AD000FFFFFF00FFFFFF00FFFFFF00FFFFFF00D2
